
end_node.elf:     file format elf32-littlearm

Sections:
Idx Name          Size      VMA       LMA       File off  Algn
  0 .isr_vector   000000c0  08000000  08000000  00010000  2**0
                  CONTENTS, ALLOC, LOAD, READONLY, DATA
  1 .text         0000f7fc  080000c0  080000c0  000100c0  2**2
                  CONTENTS, ALLOC, LOAD, READONLY, CODE
  2 .rodata       00000e1c  0800f8bc  0800f8bc  0001f8bc  2**2
                  CONTENTS, ALLOC, LOAD, READONLY, DATA
  3 .ARM          00000008  080106d8  080106d8  000206d8  2**2
                  CONTENTS, ALLOC, LOAD, READONLY, DATA
  4 .init_array   00000004  080106e0  080106e0  000206e0  2**2
                  CONTENTS, ALLOC, LOAD, DATA
  5 .fini_array   00000004  080106e4  080106e4  000206e4  2**2
                  CONTENTS, ALLOC, LOAD, DATA
  6 .data         0000019c  20000000  080106e8  00030000  2**2
                  CONTENTS, ALLOC, LOAD, DATA
  7 .bss          00001424  2000019c  08010884  0003019c  2**2
                  ALLOC
  8 ._user_heap_stack 00000800  200015c0  08010884  000315c0  2**0
                  ALLOC
  9 .ARM.attributes 00000028  00000000  00000000  0003019c  2**0
                  CONTENTS, READONLY
 10 .debug_info   000552aa  00000000  00000000  000301c4  2**0
                  CONTENTS, READONLY, DEBUGGING
 11 .debug_abbrev 0000afe2  00000000  00000000  0008546e  2**0
                  CONTENTS, READONLY, DEBUGGING
 12 .debug_aranges 00002040  00000000  00000000  00090450  2**3
                  CONTENTS, READONLY, DEBUGGING
 13 .debug_ranges 00002fb0  00000000  00000000  00092490  2**3
                  CONTENTS, READONLY, DEBUGGING
 14 .debug_macro  00020c2b  00000000  00000000  00095440  2**0
                  CONTENTS, READONLY, DEBUGGING
 15 .debug_line   0002b2ad  00000000  00000000  000b606b  2**0
                  CONTENTS, READONLY, DEBUGGING
 16 .debug_str    000ae323  00000000  00000000  000e1318  2**0
                  CONTENTS, READONLY, DEBUGGING
 17 .comment      0000007b  00000000  00000000  0018f63b  2**0
                  CONTENTS, READONLY
 18 .debug_frame  00005df4  00000000  00000000  0018f6b8  2**2
                  CONTENTS, READONLY, DEBUGGING
 19 .debug_loc    00016262  00000000  00000000  001954ac  2**0
                  CONTENTS, READONLY, DEBUGGING

Disassembly of section .text:

080000c0 <__do_global_dtors_aux>:
 80000c0:	b510      	push	{r4, lr}
 80000c2:	4c06      	ldr	r4, [pc, #24]	; (80000dc <__do_global_dtors_aux+0x1c>)
 80000c4:	7823      	ldrb	r3, [r4, #0]
 80000c6:	2b00      	cmp	r3, #0
 80000c8:	d107      	bne.n	80000da <__do_global_dtors_aux+0x1a>
 80000ca:	4b05      	ldr	r3, [pc, #20]	; (80000e0 <__do_global_dtors_aux+0x20>)
 80000cc:	2b00      	cmp	r3, #0
 80000ce:	d002      	beq.n	80000d6 <__do_global_dtors_aux+0x16>
 80000d0:	4804      	ldr	r0, [pc, #16]	; (80000e4 <__do_global_dtors_aux+0x24>)
 80000d2:	e000      	b.n	80000d6 <__do_global_dtors_aux+0x16>
 80000d4:	bf00      	nop
 80000d6:	2301      	movs	r3, #1
 80000d8:	7023      	strb	r3, [r4, #0]
 80000da:	bd10      	pop	{r4, pc}
 80000dc:	2000019c 	.word	0x2000019c
 80000e0:	00000000 	.word	0x00000000
 80000e4:	0800f8a4 	.word	0x0800f8a4

080000e8 <frame_dummy>:
 80000e8:	4b04      	ldr	r3, [pc, #16]	; (80000fc <frame_dummy+0x14>)
 80000ea:	b510      	push	{r4, lr}
 80000ec:	2b00      	cmp	r3, #0
 80000ee:	d003      	beq.n	80000f8 <frame_dummy+0x10>
 80000f0:	4903      	ldr	r1, [pc, #12]	; (8000100 <frame_dummy+0x18>)
 80000f2:	4804      	ldr	r0, [pc, #16]	; (8000104 <frame_dummy+0x1c>)
 80000f4:	e000      	b.n	80000f8 <frame_dummy+0x10>
 80000f6:	bf00      	nop
 80000f8:	bd10      	pop	{r4, pc}
 80000fa:	46c0      	nop			; (mov r8, r8)
 80000fc:	00000000 	.word	0x00000000
 8000100:	200001a0 	.word	0x200001a0
 8000104:	0800f8a4 	.word	0x0800f8a4

08000108 <strlen>:
 8000108:	2300      	movs	r3, #0
 800010a:	5cc2      	ldrb	r2, [r0, r3]
 800010c:	3301      	adds	r3, #1
 800010e:	2a00      	cmp	r2, #0
 8000110:	d1fb      	bne.n	800010a <strlen+0x2>
 8000112:	1e58      	subs	r0, r3, #1
 8000114:	4770      	bx	lr
	...

08000118 <__gnu_thumb1_case_sqi>:
 8000118:	b402      	push	{r1}
 800011a:	4671      	mov	r1, lr
 800011c:	0849      	lsrs	r1, r1, #1
 800011e:	0049      	lsls	r1, r1, #1
 8000120:	5609      	ldrsb	r1, [r1, r0]
 8000122:	0049      	lsls	r1, r1, #1
 8000124:	448e      	add	lr, r1
 8000126:	bc02      	pop	{r1}
 8000128:	4770      	bx	lr
 800012a:	46c0      	nop			; (mov r8, r8)

0800012c <__gnu_thumb1_case_uqi>:
 800012c:	b402      	push	{r1}
 800012e:	4671      	mov	r1, lr
 8000130:	0849      	lsrs	r1, r1, #1
 8000132:	0049      	lsls	r1, r1, #1
 8000134:	5c09      	ldrb	r1, [r1, r0]
 8000136:	0049      	lsls	r1, r1, #1
 8000138:	448e      	add	lr, r1
 800013a:	bc02      	pop	{r1}
 800013c:	4770      	bx	lr
 800013e:	46c0      	nop			; (mov r8, r8)

08000140 <__gnu_thumb1_case_shi>:
 8000140:	b403      	push	{r0, r1}
 8000142:	4671      	mov	r1, lr
 8000144:	0849      	lsrs	r1, r1, #1
 8000146:	0040      	lsls	r0, r0, #1
 8000148:	0049      	lsls	r1, r1, #1
 800014a:	5e09      	ldrsh	r1, [r1, r0]
 800014c:	0049      	lsls	r1, r1, #1
 800014e:	448e      	add	lr, r1
 8000150:	bc03      	pop	{r0, r1}
 8000152:	4770      	bx	lr

08000154 <__gnu_thumb1_case_uhi>:
 8000154:	b403      	push	{r0, r1}
 8000156:	4671      	mov	r1, lr
 8000158:	0849      	lsrs	r1, r1, #1
 800015a:	0040      	lsls	r0, r0, #1
 800015c:	0049      	lsls	r1, r1, #1
 800015e:	5a09      	ldrh	r1, [r1, r0]
 8000160:	0049      	lsls	r1, r1, #1
 8000162:	448e      	add	lr, r1
 8000164:	bc03      	pop	{r0, r1}
 8000166:	4770      	bx	lr

08000168 <__udivsi3>:
 8000168:	2200      	movs	r2, #0
 800016a:	0843      	lsrs	r3, r0, #1
 800016c:	428b      	cmp	r3, r1
 800016e:	d374      	bcc.n	800025a <__udivsi3+0xf2>
 8000170:	0903      	lsrs	r3, r0, #4
 8000172:	428b      	cmp	r3, r1
 8000174:	d35f      	bcc.n	8000236 <__udivsi3+0xce>
 8000176:	0a03      	lsrs	r3, r0, #8
 8000178:	428b      	cmp	r3, r1
 800017a:	d344      	bcc.n	8000206 <__udivsi3+0x9e>
 800017c:	0b03      	lsrs	r3, r0, #12
 800017e:	428b      	cmp	r3, r1
 8000180:	d328      	bcc.n	80001d4 <__udivsi3+0x6c>
 8000182:	0c03      	lsrs	r3, r0, #16
 8000184:	428b      	cmp	r3, r1
 8000186:	d30d      	bcc.n	80001a4 <__udivsi3+0x3c>
 8000188:	22ff      	movs	r2, #255	; 0xff
 800018a:	0209      	lsls	r1, r1, #8
 800018c:	ba12      	rev	r2, r2
 800018e:	0c03      	lsrs	r3, r0, #16
 8000190:	428b      	cmp	r3, r1
 8000192:	d302      	bcc.n	800019a <__udivsi3+0x32>
 8000194:	1212      	asrs	r2, r2, #8
 8000196:	0209      	lsls	r1, r1, #8
 8000198:	d065      	beq.n	8000266 <__udivsi3+0xfe>
 800019a:	0b03      	lsrs	r3, r0, #12
 800019c:	428b      	cmp	r3, r1
 800019e:	d319      	bcc.n	80001d4 <__udivsi3+0x6c>
 80001a0:	e000      	b.n	80001a4 <__udivsi3+0x3c>
 80001a2:	0a09      	lsrs	r1, r1, #8
 80001a4:	0bc3      	lsrs	r3, r0, #15
 80001a6:	428b      	cmp	r3, r1
 80001a8:	d301      	bcc.n	80001ae <__udivsi3+0x46>
 80001aa:	03cb      	lsls	r3, r1, #15
 80001ac:	1ac0      	subs	r0, r0, r3
 80001ae:	4152      	adcs	r2, r2
 80001b0:	0b83      	lsrs	r3, r0, #14
 80001b2:	428b      	cmp	r3, r1
 80001b4:	d301      	bcc.n	80001ba <__udivsi3+0x52>
 80001b6:	038b      	lsls	r3, r1, #14
 80001b8:	1ac0      	subs	r0, r0, r3
 80001ba:	4152      	adcs	r2, r2
 80001bc:	0b43      	lsrs	r3, r0, #13
 80001be:	428b      	cmp	r3, r1
 80001c0:	d301      	bcc.n	80001c6 <__udivsi3+0x5e>
 80001c2:	034b      	lsls	r3, r1, #13
 80001c4:	1ac0      	subs	r0, r0, r3
 80001c6:	4152      	adcs	r2, r2
 80001c8:	0b03      	lsrs	r3, r0, #12
 80001ca:	428b      	cmp	r3, r1
 80001cc:	d301      	bcc.n	80001d2 <__udivsi3+0x6a>
 80001ce:	030b      	lsls	r3, r1, #12
 80001d0:	1ac0      	subs	r0, r0, r3
 80001d2:	4152      	adcs	r2, r2
 80001d4:	0ac3      	lsrs	r3, r0, #11
 80001d6:	428b      	cmp	r3, r1
 80001d8:	d301      	bcc.n	80001de <__udivsi3+0x76>
 80001da:	02cb      	lsls	r3, r1, #11
 80001dc:	1ac0      	subs	r0, r0, r3
 80001de:	4152      	adcs	r2, r2
 80001e0:	0a83      	lsrs	r3, r0, #10
 80001e2:	428b      	cmp	r3, r1
 80001e4:	d301      	bcc.n	80001ea <__udivsi3+0x82>
 80001e6:	028b      	lsls	r3, r1, #10
 80001e8:	1ac0      	subs	r0, r0, r3
 80001ea:	4152      	adcs	r2, r2
 80001ec:	0a43      	lsrs	r3, r0, #9
 80001ee:	428b      	cmp	r3, r1
 80001f0:	d301      	bcc.n	80001f6 <__udivsi3+0x8e>
 80001f2:	024b      	lsls	r3, r1, #9
 80001f4:	1ac0      	subs	r0, r0, r3
 80001f6:	4152      	adcs	r2, r2
 80001f8:	0a03      	lsrs	r3, r0, #8
 80001fa:	428b      	cmp	r3, r1
 80001fc:	d301      	bcc.n	8000202 <__udivsi3+0x9a>
 80001fe:	020b      	lsls	r3, r1, #8
 8000200:	1ac0      	subs	r0, r0, r3
 8000202:	4152      	adcs	r2, r2
 8000204:	d2cd      	bcs.n	80001a2 <__udivsi3+0x3a>
 8000206:	09c3      	lsrs	r3, r0, #7
 8000208:	428b      	cmp	r3, r1
 800020a:	d301      	bcc.n	8000210 <__udivsi3+0xa8>
 800020c:	01cb      	lsls	r3, r1, #7
 800020e:	1ac0      	subs	r0, r0, r3
 8000210:	4152      	adcs	r2, r2
 8000212:	0983      	lsrs	r3, r0, #6
 8000214:	428b      	cmp	r3, r1
 8000216:	d301      	bcc.n	800021c <__udivsi3+0xb4>
 8000218:	018b      	lsls	r3, r1, #6
 800021a:	1ac0      	subs	r0, r0, r3
 800021c:	4152      	adcs	r2, r2
 800021e:	0943      	lsrs	r3, r0, #5
 8000220:	428b      	cmp	r3, r1
 8000222:	d301      	bcc.n	8000228 <__udivsi3+0xc0>
 8000224:	014b      	lsls	r3, r1, #5
 8000226:	1ac0      	subs	r0, r0, r3
 8000228:	4152      	adcs	r2, r2
 800022a:	0903      	lsrs	r3, r0, #4
 800022c:	428b      	cmp	r3, r1
 800022e:	d301      	bcc.n	8000234 <__udivsi3+0xcc>
 8000230:	010b      	lsls	r3, r1, #4
 8000232:	1ac0      	subs	r0, r0, r3
 8000234:	4152      	adcs	r2, r2
 8000236:	08c3      	lsrs	r3, r0, #3
 8000238:	428b      	cmp	r3, r1
 800023a:	d301      	bcc.n	8000240 <__udivsi3+0xd8>
 800023c:	00cb      	lsls	r3, r1, #3
 800023e:	1ac0      	subs	r0, r0, r3
 8000240:	4152      	adcs	r2, r2
 8000242:	0883      	lsrs	r3, r0, #2
 8000244:	428b      	cmp	r3, r1
 8000246:	d301      	bcc.n	800024c <__udivsi3+0xe4>
 8000248:	008b      	lsls	r3, r1, #2
 800024a:	1ac0      	subs	r0, r0, r3
 800024c:	4152      	adcs	r2, r2
 800024e:	0843      	lsrs	r3, r0, #1
 8000250:	428b      	cmp	r3, r1
 8000252:	d301      	bcc.n	8000258 <__udivsi3+0xf0>
 8000254:	004b      	lsls	r3, r1, #1
 8000256:	1ac0      	subs	r0, r0, r3
 8000258:	4152      	adcs	r2, r2
 800025a:	1a41      	subs	r1, r0, r1
 800025c:	d200      	bcs.n	8000260 <__udivsi3+0xf8>
 800025e:	4601      	mov	r1, r0
 8000260:	4152      	adcs	r2, r2
 8000262:	4610      	mov	r0, r2
 8000264:	4770      	bx	lr
 8000266:	e7ff      	b.n	8000268 <__udivsi3+0x100>
 8000268:	b501      	push	{r0, lr}
 800026a:	2000      	movs	r0, #0
 800026c:	f000 f8f0 	bl	8000450 <__aeabi_idiv0>
 8000270:	bd02      	pop	{r1, pc}
 8000272:	46c0      	nop			; (mov r8, r8)

08000274 <__aeabi_uidivmod>:
 8000274:	2900      	cmp	r1, #0
 8000276:	d0f7      	beq.n	8000268 <__udivsi3+0x100>
 8000278:	e776      	b.n	8000168 <__udivsi3>
 800027a:	4770      	bx	lr

0800027c <__divsi3>:
 800027c:	4603      	mov	r3, r0
 800027e:	430b      	orrs	r3, r1
 8000280:	d47f      	bmi.n	8000382 <__divsi3+0x106>
 8000282:	2200      	movs	r2, #0
 8000284:	0843      	lsrs	r3, r0, #1
 8000286:	428b      	cmp	r3, r1
 8000288:	d374      	bcc.n	8000374 <__divsi3+0xf8>
 800028a:	0903      	lsrs	r3, r0, #4
 800028c:	428b      	cmp	r3, r1
 800028e:	d35f      	bcc.n	8000350 <__divsi3+0xd4>
 8000290:	0a03      	lsrs	r3, r0, #8
 8000292:	428b      	cmp	r3, r1
 8000294:	d344      	bcc.n	8000320 <__divsi3+0xa4>
 8000296:	0b03      	lsrs	r3, r0, #12
 8000298:	428b      	cmp	r3, r1
 800029a:	d328      	bcc.n	80002ee <__divsi3+0x72>
 800029c:	0c03      	lsrs	r3, r0, #16
 800029e:	428b      	cmp	r3, r1
 80002a0:	d30d      	bcc.n	80002be <__divsi3+0x42>
 80002a2:	22ff      	movs	r2, #255	; 0xff
 80002a4:	0209      	lsls	r1, r1, #8
 80002a6:	ba12      	rev	r2, r2
 80002a8:	0c03      	lsrs	r3, r0, #16
 80002aa:	428b      	cmp	r3, r1
 80002ac:	d302      	bcc.n	80002b4 <__divsi3+0x38>
 80002ae:	1212      	asrs	r2, r2, #8
 80002b0:	0209      	lsls	r1, r1, #8
 80002b2:	d065      	beq.n	8000380 <__divsi3+0x104>
 80002b4:	0b03      	lsrs	r3, r0, #12
 80002b6:	428b      	cmp	r3, r1
 80002b8:	d319      	bcc.n	80002ee <__divsi3+0x72>
 80002ba:	e000      	b.n	80002be <__divsi3+0x42>
 80002bc:	0a09      	lsrs	r1, r1, #8
 80002be:	0bc3      	lsrs	r3, r0, #15
 80002c0:	428b      	cmp	r3, r1
 80002c2:	d301      	bcc.n	80002c8 <__divsi3+0x4c>
 80002c4:	03cb      	lsls	r3, r1, #15
 80002c6:	1ac0      	subs	r0, r0, r3
 80002c8:	4152      	adcs	r2, r2
 80002ca:	0b83      	lsrs	r3, r0, #14
 80002cc:	428b      	cmp	r3, r1
 80002ce:	d301      	bcc.n	80002d4 <__divsi3+0x58>
 80002d0:	038b      	lsls	r3, r1, #14
 80002d2:	1ac0      	subs	r0, r0, r3
 80002d4:	4152      	adcs	r2, r2
 80002d6:	0b43      	lsrs	r3, r0, #13
 80002d8:	428b      	cmp	r3, r1
 80002da:	d301      	bcc.n	80002e0 <__divsi3+0x64>
 80002dc:	034b      	lsls	r3, r1, #13
 80002de:	1ac0      	subs	r0, r0, r3
 80002e0:	4152      	adcs	r2, r2
 80002e2:	0b03      	lsrs	r3, r0, #12
 80002e4:	428b      	cmp	r3, r1
 80002e6:	d301      	bcc.n	80002ec <__divsi3+0x70>
 80002e8:	030b      	lsls	r3, r1, #12
 80002ea:	1ac0      	subs	r0, r0, r3
 80002ec:	4152      	adcs	r2, r2
 80002ee:	0ac3      	lsrs	r3, r0, #11
 80002f0:	428b      	cmp	r3, r1
 80002f2:	d301      	bcc.n	80002f8 <__divsi3+0x7c>
 80002f4:	02cb      	lsls	r3, r1, #11
 80002f6:	1ac0      	subs	r0, r0, r3
 80002f8:	4152      	adcs	r2, r2
 80002fa:	0a83      	lsrs	r3, r0, #10
 80002fc:	428b      	cmp	r3, r1
 80002fe:	d301      	bcc.n	8000304 <__divsi3+0x88>
 8000300:	028b      	lsls	r3, r1, #10
 8000302:	1ac0      	subs	r0, r0, r3
 8000304:	4152      	adcs	r2, r2
 8000306:	0a43      	lsrs	r3, r0, #9
 8000308:	428b      	cmp	r3, r1
 800030a:	d301      	bcc.n	8000310 <__divsi3+0x94>
 800030c:	024b      	lsls	r3, r1, #9
 800030e:	1ac0      	subs	r0, r0, r3
 8000310:	4152      	adcs	r2, r2
 8000312:	0a03      	lsrs	r3, r0, #8
 8000314:	428b      	cmp	r3, r1
 8000316:	d301      	bcc.n	800031c <__divsi3+0xa0>
 8000318:	020b      	lsls	r3, r1, #8
 800031a:	1ac0      	subs	r0, r0, r3
 800031c:	4152      	adcs	r2, r2
 800031e:	d2cd      	bcs.n	80002bc <__divsi3+0x40>
 8000320:	09c3      	lsrs	r3, r0, #7
 8000322:	428b      	cmp	r3, r1
 8000324:	d301      	bcc.n	800032a <__divsi3+0xae>
 8000326:	01cb      	lsls	r3, r1, #7
 8000328:	1ac0      	subs	r0, r0, r3
 800032a:	4152      	adcs	r2, r2
 800032c:	0983      	lsrs	r3, r0, #6
 800032e:	428b      	cmp	r3, r1
 8000330:	d301      	bcc.n	8000336 <__divsi3+0xba>
 8000332:	018b      	lsls	r3, r1, #6
 8000334:	1ac0      	subs	r0, r0, r3
 8000336:	4152      	adcs	r2, r2
 8000338:	0943      	lsrs	r3, r0, #5
 800033a:	428b      	cmp	r3, r1
 800033c:	d301      	bcc.n	8000342 <__divsi3+0xc6>
 800033e:	014b      	lsls	r3, r1, #5
 8000340:	1ac0      	subs	r0, r0, r3
 8000342:	4152      	adcs	r2, r2
 8000344:	0903      	lsrs	r3, r0, #4
 8000346:	428b      	cmp	r3, r1
 8000348:	d301      	bcc.n	800034e <__divsi3+0xd2>
 800034a:	010b      	lsls	r3, r1, #4
 800034c:	1ac0      	subs	r0, r0, r3
 800034e:	4152      	adcs	r2, r2
 8000350:	08c3      	lsrs	r3, r0, #3
 8000352:	428b      	cmp	r3, r1
 8000354:	d301      	bcc.n	800035a <__divsi3+0xde>
 8000356:	00cb      	lsls	r3, r1, #3
 8000358:	1ac0      	subs	r0, r0, r3
 800035a:	4152      	adcs	r2, r2
 800035c:	0883      	lsrs	r3, r0, #2
 800035e:	428b      	cmp	r3, r1
 8000360:	d301      	bcc.n	8000366 <__divsi3+0xea>
 8000362:	008b      	lsls	r3, r1, #2
 8000364:	1ac0      	subs	r0, r0, r3
 8000366:	4152      	adcs	r2, r2
 8000368:	0843      	lsrs	r3, r0, #1
 800036a:	428b      	cmp	r3, r1
 800036c:	d301      	bcc.n	8000372 <__divsi3+0xf6>
 800036e:	004b      	lsls	r3, r1, #1
 8000370:	1ac0      	subs	r0, r0, r3
 8000372:	4152      	adcs	r2, r2
 8000374:	1a41      	subs	r1, r0, r1
 8000376:	d200      	bcs.n	800037a <__divsi3+0xfe>
 8000378:	4601      	mov	r1, r0
 800037a:	4152      	adcs	r2, r2
 800037c:	4610      	mov	r0, r2
 800037e:	4770      	bx	lr
 8000380:	e05d      	b.n	800043e <__divsi3+0x1c2>
 8000382:	0fca      	lsrs	r2, r1, #31
 8000384:	d000      	beq.n	8000388 <__divsi3+0x10c>
 8000386:	4249      	negs	r1, r1
 8000388:	1003      	asrs	r3, r0, #32
 800038a:	d300      	bcc.n	800038e <__divsi3+0x112>
 800038c:	4240      	negs	r0, r0
 800038e:	4053      	eors	r3, r2
 8000390:	2200      	movs	r2, #0
 8000392:	469c      	mov	ip, r3
 8000394:	0903      	lsrs	r3, r0, #4
 8000396:	428b      	cmp	r3, r1
 8000398:	d32d      	bcc.n	80003f6 <__divsi3+0x17a>
 800039a:	0a03      	lsrs	r3, r0, #8
 800039c:	428b      	cmp	r3, r1
 800039e:	d312      	bcc.n	80003c6 <__divsi3+0x14a>
 80003a0:	22fc      	movs	r2, #252	; 0xfc
 80003a2:	0189      	lsls	r1, r1, #6
 80003a4:	ba12      	rev	r2, r2
 80003a6:	0a03      	lsrs	r3, r0, #8
 80003a8:	428b      	cmp	r3, r1
 80003aa:	d30c      	bcc.n	80003c6 <__divsi3+0x14a>
 80003ac:	0189      	lsls	r1, r1, #6
 80003ae:	1192      	asrs	r2, r2, #6
 80003b0:	428b      	cmp	r3, r1
 80003b2:	d308      	bcc.n	80003c6 <__divsi3+0x14a>
 80003b4:	0189      	lsls	r1, r1, #6
 80003b6:	1192      	asrs	r2, r2, #6
 80003b8:	428b      	cmp	r3, r1
 80003ba:	d304      	bcc.n	80003c6 <__divsi3+0x14a>
 80003bc:	0189      	lsls	r1, r1, #6
 80003be:	d03a      	beq.n	8000436 <__divsi3+0x1ba>
 80003c0:	1192      	asrs	r2, r2, #6
 80003c2:	e000      	b.n	80003c6 <__divsi3+0x14a>
 80003c4:	0989      	lsrs	r1, r1, #6
 80003c6:	09c3      	lsrs	r3, r0, #7
 80003c8:	428b      	cmp	r3, r1
 80003ca:	d301      	bcc.n	80003d0 <__divsi3+0x154>
 80003cc:	01cb      	lsls	r3, r1, #7
 80003ce:	1ac0      	subs	r0, r0, r3
 80003d0:	4152      	adcs	r2, r2
 80003d2:	0983      	lsrs	r3, r0, #6
 80003d4:	428b      	cmp	r3, r1
 80003d6:	d301      	bcc.n	80003dc <__divsi3+0x160>
 80003d8:	018b      	lsls	r3, r1, #6
 80003da:	1ac0      	subs	r0, r0, r3
 80003dc:	4152      	adcs	r2, r2
 80003de:	0943      	lsrs	r3, r0, #5
 80003e0:	428b      	cmp	r3, r1
 80003e2:	d301      	bcc.n	80003e8 <__divsi3+0x16c>
 80003e4:	014b      	lsls	r3, r1, #5
 80003e6:	1ac0      	subs	r0, r0, r3
 80003e8:	4152      	adcs	r2, r2
 80003ea:	0903      	lsrs	r3, r0, #4
 80003ec:	428b      	cmp	r3, r1
 80003ee:	d301      	bcc.n	80003f4 <__divsi3+0x178>
 80003f0:	010b      	lsls	r3, r1, #4
 80003f2:	1ac0      	subs	r0, r0, r3
 80003f4:	4152      	adcs	r2, r2
 80003f6:	08c3      	lsrs	r3, r0, #3
 80003f8:	428b      	cmp	r3, r1
 80003fa:	d301      	bcc.n	8000400 <__divsi3+0x184>
 80003fc:	00cb      	lsls	r3, r1, #3
 80003fe:	1ac0      	subs	r0, r0, r3
 8000400:	4152      	adcs	r2, r2
 8000402:	0883      	lsrs	r3, r0, #2
 8000404:	428b      	cmp	r3, r1
 8000406:	d301      	bcc.n	800040c <__divsi3+0x190>
 8000408:	008b      	lsls	r3, r1, #2
 800040a:	1ac0      	subs	r0, r0, r3
 800040c:	4152      	adcs	r2, r2
 800040e:	d2d9      	bcs.n	80003c4 <__divsi3+0x148>
 8000410:	0843      	lsrs	r3, r0, #1
 8000412:	428b      	cmp	r3, r1
 8000414:	d301      	bcc.n	800041a <__divsi3+0x19e>
 8000416:	004b      	lsls	r3, r1, #1
 8000418:	1ac0      	subs	r0, r0, r3
 800041a:	4152      	adcs	r2, r2
 800041c:	1a41      	subs	r1, r0, r1
 800041e:	d200      	bcs.n	8000422 <__divsi3+0x1a6>
 8000420:	4601      	mov	r1, r0
 8000422:	4663      	mov	r3, ip
 8000424:	4152      	adcs	r2, r2
 8000426:	105b      	asrs	r3, r3, #1
 8000428:	4610      	mov	r0, r2
 800042a:	d301      	bcc.n	8000430 <__divsi3+0x1b4>
 800042c:	4240      	negs	r0, r0
 800042e:	2b00      	cmp	r3, #0
 8000430:	d500      	bpl.n	8000434 <__divsi3+0x1b8>
 8000432:	4249      	negs	r1, r1
 8000434:	4770      	bx	lr
 8000436:	4663      	mov	r3, ip
 8000438:	105b      	asrs	r3, r3, #1
 800043a:	d300      	bcc.n	800043e <__divsi3+0x1c2>
 800043c:	4240      	negs	r0, r0
 800043e:	b501      	push	{r0, lr}
 8000440:	2000      	movs	r0, #0
 8000442:	f000 f805 	bl	8000450 <__aeabi_idiv0>
 8000446:	bd02      	pop	{r1, pc}

08000448 <__aeabi_idivmod>:
 8000448:	2900      	cmp	r1, #0
 800044a:	d0f8      	beq.n	800043e <__divsi3+0x1c2>
 800044c:	e716      	b.n	800027c <__divsi3>
 800044e:	4770      	bx	lr

08000450 <__aeabi_idiv0>:
 8000450:	4770      	bx	lr
 8000452:	46c0      	nop			; (mov r8, r8)

08000454 <__aeabi_cdrcmple>:
 8000454:	4684      	mov	ip, r0
 8000456:	1c10      	adds	r0, r2, #0
 8000458:	4662      	mov	r2, ip
 800045a:	468c      	mov	ip, r1
 800045c:	1c19      	adds	r1, r3, #0
 800045e:	4663      	mov	r3, ip
 8000460:	e000      	b.n	8000464 <__aeabi_cdcmpeq>
 8000462:	46c0      	nop			; (mov r8, r8)

08000464 <__aeabi_cdcmpeq>:
 8000464:	b51f      	push	{r0, r1, r2, r3, r4, lr}
 8000466:	f001 fd9b 	bl	8001fa0 <__ledf2>
 800046a:	2800      	cmp	r0, #0
 800046c:	d401      	bmi.n	8000472 <__aeabi_cdcmpeq+0xe>
 800046e:	2100      	movs	r1, #0
 8000470:	42c8      	cmn	r0, r1
 8000472:	bd1f      	pop	{r0, r1, r2, r3, r4, pc}

08000474 <__aeabi_dcmpeq>:
 8000474:	b510      	push	{r4, lr}
 8000476:	f001 fcf3 	bl	8001e60 <__eqdf2>
 800047a:	4240      	negs	r0, r0
 800047c:	3001      	adds	r0, #1
 800047e:	bd10      	pop	{r4, pc}

08000480 <__aeabi_dcmplt>:
 8000480:	b510      	push	{r4, lr}
 8000482:	f001 fd8d 	bl	8001fa0 <__ledf2>
 8000486:	2800      	cmp	r0, #0
 8000488:	db01      	blt.n	800048e <__aeabi_dcmplt+0xe>
 800048a:	2000      	movs	r0, #0
 800048c:	bd10      	pop	{r4, pc}
 800048e:	2001      	movs	r0, #1
 8000490:	bd10      	pop	{r4, pc}
 8000492:	46c0      	nop			; (mov r8, r8)

08000494 <__aeabi_dcmple>:
 8000494:	b510      	push	{r4, lr}
 8000496:	f001 fd83 	bl	8001fa0 <__ledf2>
 800049a:	2800      	cmp	r0, #0
 800049c:	dd01      	ble.n	80004a2 <__aeabi_dcmple+0xe>
 800049e:	2000      	movs	r0, #0
 80004a0:	bd10      	pop	{r4, pc}
 80004a2:	2001      	movs	r0, #1
 80004a4:	bd10      	pop	{r4, pc}
 80004a6:	46c0      	nop			; (mov r8, r8)

080004a8 <__aeabi_dcmpgt>:
 80004a8:	b510      	push	{r4, lr}
 80004aa:	f001 fd15 	bl	8001ed8 <__gedf2>
 80004ae:	2800      	cmp	r0, #0
 80004b0:	dc01      	bgt.n	80004b6 <__aeabi_dcmpgt+0xe>
 80004b2:	2000      	movs	r0, #0
 80004b4:	bd10      	pop	{r4, pc}
 80004b6:	2001      	movs	r0, #1
 80004b8:	bd10      	pop	{r4, pc}
 80004ba:	46c0      	nop			; (mov r8, r8)

080004bc <__aeabi_dcmpge>:
 80004bc:	b510      	push	{r4, lr}
 80004be:	f001 fd0b 	bl	8001ed8 <__gedf2>
 80004c2:	2800      	cmp	r0, #0
 80004c4:	da01      	bge.n	80004ca <__aeabi_dcmpge+0xe>
 80004c6:	2000      	movs	r0, #0
 80004c8:	bd10      	pop	{r4, pc}
 80004ca:	2001      	movs	r0, #1
 80004cc:	bd10      	pop	{r4, pc}
 80004ce:	46c0      	nop			; (mov r8, r8)

080004d0 <__aeabi_cfrcmple>:
 80004d0:	4684      	mov	ip, r0
 80004d2:	1c08      	adds	r0, r1, #0
 80004d4:	4661      	mov	r1, ip
 80004d6:	e7ff      	b.n	80004d8 <__aeabi_cfcmpeq>

080004d8 <__aeabi_cfcmpeq>:
 80004d8:	b51f      	push	{r0, r1, r2, r3, r4, lr}
 80004da:	f000 fafd 	bl	8000ad8 <__lesf2>
 80004de:	2800      	cmp	r0, #0
 80004e0:	d401      	bmi.n	80004e6 <__aeabi_cfcmpeq+0xe>
 80004e2:	2100      	movs	r1, #0
 80004e4:	42c8      	cmn	r0, r1
 80004e6:	bd1f      	pop	{r0, r1, r2, r3, r4, pc}

080004e8 <__aeabi_fcmpeq>:
 80004e8:	b510      	push	{r4, lr}
 80004ea:	f000 fa7f 	bl	80009ec <__eqsf2>
 80004ee:	4240      	negs	r0, r0
 80004f0:	3001      	adds	r0, #1
 80004f2:	bd10      	pop	{r4, pc}

080004f4 <__aeabi_fcmplt>:
 80004f4:	b510      	push	{r4, lr}
 80004f6:	f000 faef 	bl	8000ad8 <__lesf2>
 80004fa:	2800      	cmp	r0, #0
 80004fc:	db01      	blt.n	8000502 <__aeabi_fcmplt+0xe>
 80004fe:	2000      	movs	r0, #0
 8000500:	bd10      	pop	{r4, pc}
 8000502:	2001      	movs	r0, #1
 8000504:	bd10      	pop	{r4, pc}
 8000506:	46c0      	nop			; (mov r8, r8)

08000508 <__aeabi_fcmple>:
 8000508:	b510      	push	{r4, lr}
 800050a:	f000 fae5 	bl	8000ad8 <__lesf2>
 800050e:	2800      	cmp	r0, #0
 8000510:	dd01      	ble.n	8000516 <__aeabi_fcmple+0xe>
 8000512:	2000      	movs	r0, #0
 8000514:	bd10      	pop	{r4, pc}
 8000516:	2001      	movs	r0, #1
 8000518:	bd10      	pop	{r4, pc}
 800051a:	46c0      	nop			; (mov r8, r8)

0800051c <__aeabi_fcmpgt>:
 800051c:	b510      	push	{r4, lr}
 800051e:	f000 fa8d 	bl	8000a3c <__gesf2>
 8000522:	2800      	cmp	r0, #0
 8000524:	dc01      	bgt.n	800052a <__aeabi_fcmpgt+0xe>
 8000526:	2000      	movs	r0, #0
 8000528:	bd10      	pop	{r4, pc}
 800052a:	2001      	movs	r0, #1
 800052c:	bd10      	pop	{r4, pc}
 800052e:	46c0      	nop			; (mov r8, r8)

08000530 <__aeabi_fcmpge>:
 8000530:	b510      	push	{r4, lr}
 8000532:	f000 fa83 	bl	8000a3c <__gesf2>
 8000536:	2800      	cmp	r0, #0
 8000538:	da01      	bge.n	800053e <__aeabi_fcmpge+0xe>
 800053a:	2000      	movs	r0, #0
 800053c:	bd10      	pop	{r4, pc}
 800053e:	2001      	movs	r0, #1
 8000540:	bd10      	pop	{r4, pc}
 8000542:	46c0      	nop			; (mov r8, r8)

08000544 <__aeabi_uldivmod>:
 8000544:	2b00      	cmp	r3, #0
 8000546:	d111      	bne.n	800056c <__aeabi_uldivmod+0x28>
 8000548:	2a00      	cmp	r2, #0
 800054a:	d10f      	bne.n	800056c <__aeabi_uldivmod+0x28>
 800054c:	2900      	cmp	r1, #0
 800054e:	d100      	bne.n	8000552 <__aeabi_uldivmod+0xe>
 8000550:	2800      	cmp	r0, #0
 8000552:	d002      	beq.n	800055a <__aeabi_uldivmod+0x16>
 8000554:	2100      	movs	r1, #0
 8000556:	43c9      	mvns	r1, r1
 8000558:	1c08      	adds	r0, r1, #0
 800055a:	b407      	push	{r0, r1, r2}
 800055c:	4802      	ldr	r0, [pc, #8]	; (8000568 <__aeabi_uldivmod+0x24>)
 800055e:	a102      	add	r1, pc, #8	; (adr r1, 8000568 <__aeabi_uldivmod+0x24>)
 8000560:	1840      	adds	r0, r0, r1
 8000562:	9002      	str	r0, [sp, #8]
 8000564:	bd03      	pop	{r0, r1, pc}
 8000566:	46c0      	nop			; (mov r8, r8)
 8000568:	fffffee9 	.word	0xfffffee9
 800056c:	b403      	push	{r0, r1}
 800056e:	4668      	mov	r0, sp
 8000570:	b501      	push	{r0, lr}
 8000572:	9802      	ldr	r0, [sp, #8]
 8000574:	f000 f866 	bl	8000644 <__udivmoddi4>
 8000578:	9b01      	ldr	r3, [sp, #4]
 800057a:	469e      	mov	lr, r3
 800057c:	b002      	add	sp, #8
 800057e:	bc0c      	pop	{r2, r3}
 8000580:	4770      	bx	lr
 8000582:	46c0      	nop			; (mov r8, r8)

08000584 <__aeabi_lmul>:
 8000584:	b5f0      	push	{r4, r5, r6, r7, lr}
 8000586:	46ce      	mov	lr, r9
 8000588:	4647      	mov	r7, r8
 800058a:	0415      	lsls	r5, r2, #16
 800058c:	0c2d      	lsrs	r5, r5, #16
 800058e:	002e      	movs	r6, r5
 8000590:	b580      	push	{r7, lr}
 8000592:	0407      	lsls	r7, r0, #16
 8000594:	0c14      	lsrs	r4, r2, #16
 8000596:	0c3f      	lsrs	r7, r7, #16
 8000598:	4699      	mov	r9, r3
 800059a:	0c03      	lsrs	r3, r0, #16
 800059c:	437e      	muls	r6, r7
 800059e:	435d      	muls	r5, r3
 80005a0:	4367      	muls	r7, r4
 80005a2:	4363      	muls	r3, r4
 80005a4:	197f      	adds	r7, r7, r5
 80005a6:	0c34      	lsrs	r4, r6, #16
 80005a8:	19e4      	adds	r4, r4, r7
 80005aa:	469c      	mov	ip, r3
 80005ac:	42a5      	cmp	r5, r4
 80005ae:	d903      	bls.n	80005b8 <__aeabi_lmul+0x34>
 80005b0:	2380      	movs	r3, #128	; 0x80
 80005b2:	025b      	lsls	r3, r3, #9
 80005b4:	4698      	mov	r8, r3
 80005b6:	44c4      	add	ip, r8
 80005b8:	464b      	mov	r3, r9
 80005ba:	4343      	muls	r3, r0
 80005bc:	4351      	muls	r1, r2
 80005be:	0c25      	lsrs	r5, r4, #16
 80005c0:	0436      	lsls	r6, r6, #16
 80005c2:	4465      	add	r5, ip
 80005c4:	0c36      	lsrs	r6, r6, #16
 80005c6:	0424      	lsls	r4, r4, #16
 80005c8:	19a4      	adds	r4, r4, r6
 80005ca:	195b      	adds	r3, r3, r5
 80005cc:	1859      	adds	r1, r3, r1
 80005ce:	0020      	movs	r0, r4
 80005d0:	bc0c      	pop	{r2, r3}
 80005d2:	4690      	mov	r8, r2
 80005d4:	4699      	mov	r9, r3
 80005d6:	bdf0      	pop	{r4, r5, r6, r7, pc}

080005d8 <__aeabi_f2uiz>:
 80005d8:	219e      	movs	r1, #158	; 0x9e
 80005da:	b510      	push	{r4, lr}
 80005dc:	05c9      	lsls	r1, r1, #23
 80005de:	1c04      	adds	r4, r0, #0
 80005e0:	f7ff ffa6 	bl	8000530 <__aeabi_fcmpge>
 80005e4:	2800      	cmp	r0, #0
 80005e6:	d103      	bne.n	80005f0 <__aeabi_f2uiz+0x18>
 80005e8:	1c20      	adds	r0, r4, #0
 80005ea:	f000 fdbb 	bl	8001164 <__aeabi_f2iz>
 80005ee:	bd10      	pop	{r4, pc}
 80005f0:	219e      	movs	r1, #158	; 0x9e
 80005f2:	1c20      	adds	r0, r4, #0
 80005f4:	05c9      	lsls	r1, r1, #23
 80005f6:	f000 fbf1 	bl	8000ddc <__aeabi_fsub>
 80005fa:	f000 fdb3 	bl	8001164 <__aeabi_f2iz>
 80005fe:	2380      	movs	r3, #128	; 0x80
 8000600:	061b      	lsls	r3, r3, #24
 8000602:	469c      	mov	ip, r3
 8000604:	4460      	add	r0, ip
 8000606:	e7f2      	b.n	80005ee <__aeabi_f2uiz+0x16>

08000608 <__aeabi_d2uiz>:
 8000608:	b570      	push	{r4, r5, r6, lr}
 800060a:	2200      	movs	r2, #0
 800060c:	4b0c      	ldr	r3, [pc, #48]	; (8000640 <__aeabi_d2uiz+0x38>)
 800060e:	0004      	movs	r4, r0
 8000610:	000d      	movs	r5, r1
 8000612:	f7ff ff53 	bl	80004bc <__aeabi_dcmpge>
 8000616:	2800      	cmp	r0, #0
 8000618:	d104      	bne.n	8000624 <__aeabi_d2uiz+0x1c>
 800061a:	0020      	movs	r0, r4
 800061c:	0029      	movs	r1, r5
 800061e:	f002 fae1 	bl	8002be4 <__aeabi_d2iz>
 8000622:	bd70      	pop	{r4, r5, r6, pc}
 8000624:	4b06      	ldr	r3, [pc, #24]	; (8000640 <__aeabi_d2uiz+0x38>)
 8000626:	2200      	movs	r2, #0
 8000628:	0020      	movs	r0, r4
 800062a:	0029      	movs	r1, r5
 800062c:	f001 ff92 	bl	8002554 <__aeabi_dsub>
 8000630:	f002 fad8 	bl	8002be4 <__aeabi_d2iz>
 8000634:	2380      	movs	r3, #128	; 0x80
 8000636:	061b      	lsls	r3, r3, #24
 8000638:	469c      	mov	ip, r3
 800063a:	4460      	add	r0, ip
 800063c:	e7f1      	b.n	8000622 <__aeabi_d2uiz+0x1a>
 800063e:	46c0      	nop			; (mov r8, r8)
 8000640:	41e00000 	.word	0x41e00000

08000644 <__udivmoddi4>:
 8000644:	b5f0      	push	{r4, r5, r6, r7, lr}
 8000646:	464f      	mov	r7, r9
 8000648:	4646      	mov	r6, r8
 800064a:	46d6      	mov	lr, sl
 800064c:	b5c0      	push	{r6, r7, lr}
 800064e:	0004      	movs	r4, r0
 8000650:	b082      	sub	sp, #8
 8000652:	000d      	movs	r5, r1
 8000654:	4691      	mov	r9, r2
 8000656:	4698      	mov	r8, r3
 8000658:	428b      	cmp	r3, r1
 800065a:	d82f      	bhi.n	80006bc <__udivmoddi4+0x78>
 800065c:	d02c      	beq.n	80006b8 <__udivmoddi4+0x74>
 800065e:	4641      	mov	r1, r8
 8000660:	4648      	mov	r0, r9
 8000662:	f002 fbd1 	bl	8002e08 <__clzdi2>
 8000666:	0029      	movs	r1, r5
 8000668:	0006      	movs	r6, r0
 800066a:	0020      	movs	r0, r4
 800066c:	f002 fbcc 	bl	8002e08 <__clzdi2>
 8000670:	1a33      	subs	r3, r6, r0
 8000672:	469c      	mov	ip, r3
 8000674:	3b20      	subs	r3, #32
 8000676:	469a      	mov	sl, r3
 8000678:	d500      	bpl.n	800067c <__udivmoddi4+0x38>
 800067a:	e076      	b.n	800076a <__udivmoddi4+0x126>
 800067c:	464b      	mov	r3, r9
 800067e:	4652      	mov	r2, sl
 8000680:	4093      	lsls	r3, r2
 8000682:	001f      	movs	r7, r3
 8000684:	464b      	mov	r3, r9
 8000686:	4662      	mov	r2, ip
 8000688:	4093      	lsls	r3, r2
 800068a:	001e      	movs	r6, r3
 800068c:	42af      	cmp	r7, r5
 800068e:	d828      	bhi.n	80006e2 <__udivmoddi4+0x9e>
 8000690:	d025      	beq.n	80006de <__udivmoddi4+0x9a>
 8000692:	4653      	mov	r3, sl
 8000694:	1ba4      	subs	r4, r4, r6
 8000696:	41bd      	sbcs	r5, r7
 8000698:	2b00      	cmp	r3, #0
 800069a:	da00      	bge.n	800069e <__udivmoddi4+0x5a>
 800069c:	e07b      	b.n	8000796 <__udivmoddi4+0x152>
 800069e:	2200      	movs	r2, #0
 80006a0:	2300      	movs	r3, #0
 80006a2:	9200      	str	r2, [sp, #0]
 80006a4:	9301      	str	r3, [sp, #4]
 80006a6:	2301      	movs	r3, #1
 80006a8:	4652      	mov	r2, sl
 80006aa:	4093      	lsls	r3, r2
 80006ac:	9301      	str	r3, [sp, #4]
 80006ae:	2301      	movs	r3, #1
 80006b0:	4662      	mov	r2, ip
 80006b2:	4093      	lsls	r3, r2
 80006b4:	9300      	str	r3, [sp, #0]
 80006b6:	e018      	b.n	80006ea <__udivmoddi4+0xa6>
 80006b8:	4282      	cmp	r2, r0
 80006ba:	d9d0      	bls.n	800065e <__udivmoddi4+0x1a>
 80006bc:	2200      	movs	r2, #0
 80006be:	2300      	movs	r3, #0
 80006c0:	9200      	str	r2, [sp, #0]
 80006c2:	9301      	str	r3, [sp, #4]
 80006c4:	9b0a      	ldr	r3, [sp, #40]	; 0x28
 80006c6:	2b00      	cmp	r3, #0
 80006c8:	d001      	beq.n	80006ce <__udivmoddi4+0x8a>
 80006ca:	601c      	str	r4, [r3, #0]
 80006cc:	605d      	str	r5, [r3, #4]
 80006ce:	9800      	ldr	r0, [sp, #0]
 80006d0:	9901      	ldr	r1, [sp, #4]
 80006d2:	b002      	add	sp, #8
 80006d4:	bc1c      	pop	{r2, r3, r4}
 80006d6:	4690      	mov	r8, r2
 80006d8:	4699      	mov	r9, r3
 80006da:	46a2      	mov	sl, r4
 80006dc:	bdf0      	pop	{r4, r5, r6, r7, pc}
 80006de:	42a3      	cmp	r3, r4
 80006e0:	d9d7      	bls.n	8000692 <__udivmoddi4+0x4e>
 80006e2:	2200      	movs	r2, #0
 80006e4:	2300      	movs	r3, #0
 80006e6:	9200      	str	r2, [sp, #0]
 80006e8:	9301      	str	r3, [sp, #4]
 80006ea:	4663      	mov	r3, ip
 80006ec:	2b00      	cmp	r3, #0
 80006ee:	d0e9      	beq.n	80006c4 <__udivmoddi4+0x80>
 80006f0:	07fb      	lsls	r3, r7, #31
 80006f2:	4698      	mov	r8, r3
 80006f4:	4641      	mov	r1, r8
 80006f6:	0872      	lsrs	r2, r6, #1
 80006f8:	430a      	orrs	r2, r1
 80006fa:	087b      	lsrs	r3, r7, #1
 80006fc:	4666      	mov	r6, ip
 80006fe:	e00e      	b.n	800071e <__udivmoddi4+0xda>
 8000700:	42ab      	cmp	r3, r5
 8000702:	d101      	bne.n	8000708 <__udivmoddi4+0xc4>
 8000704:	42a2      	cmp	r2, r4
 8000706:	d80c      	bhi.n	8000722 <__udivmoddi4+0xde>
 8000708:	1aa4      	subs	r4, r4, r2
 800070a:	419d      	sbcs	r5, r3
 800070c:	2001      	movs	r0, #1
 800070e:	1924      	adds	r4, r4, r4
 8000710:	416d      	adcs	r5, r5
 8000712:	2100      	movs	r1, #0
 8000714:	3e01      	subs	r6, #1
 8000716:	1824      	adds	r4, r4, r0
 8000718:	414d      	adcs	r5, r1
 800071a:	2e00      	cmp	r6, #0
 800071c:	d006      	beq.n	800072c <__udivmoddi4+0xe8>
 800071e:	42ab      	cmp	r3, r5
 8000720:	d9ee      	bls.n	8000700 <__udivmoddi4+0xbc>
 8000722:	3e01      	subs	r6, #1
 8000724:	1924      	adds	r4, r4, r4
 8000726:	416d      	adcs	r5, r5
 8000728:	2e00      	cmp	r6, #0
 800072a:	d1f8      	bne.n	800071e <__udivmoddi4+0xda>
 800072c:	9800      	ldr	r0, [sp, #0]
 800072e:	9901      	ldr	r1, [sp, #4]
 8000730:	4653      	mov	r3, sl
 8000732:	1900      	adds	r0, r0, r4
 8000734:	4169      	adcs	r1, r5
 8000736:	2b00      	cmp	r3, #0
 8000738:	db23      	blt.n	8000782 <__udivmoddi4+0x13e>
 800073a:	002b      	movs	r3, r5
 800073c:	4652      	mov	r2, sl
 800073e:	40d3      	lsrs	r3, r2
 8000740:	002a      	movs	r2, r5
 8000742:	4664      	mov	r4, ip
 8000744:	40e2      	lsrs	r2, r4
 8000746:	001c      	movs	r4, r3
 8000748:	4653      	mov	r3, sl
 800074a:	0015      	movs	r5, r2
 800074c:	2b00      	cmp	r3, #0
 800074e:	db2d      	blt.n	80007ac <__udivmoddi4+0x168>
 8000750:	0026      	movs	r6, r4
 8000752:	4657      	mov	r7, sl
 8000754:	40be      	lsls	r6, r7
 8000756:	0033      	movs	r3, r6
 8000758:	0026      	movs	r6, r4
 800075a:	4667      	mov	r7, ip
 800075c:	40be      	lsls	r6, r7
 800075e:	0032      	movs	r2, r6
 8000760:	1a80      	subs	r0, r0, r2
 8000762:	4199      	sbcs	r1, r3
 8000764:	9000      	str	r0, [sp, #0]
 8000766:	9101      	str	r1, [sp, #4]
 8000768:	e7ac      	b.n	80006c4 <__udivmoddi4+0x80>
 800076a:	4662      	mov	r2, ip
 800076c:	2320      	movs	r3, #32
 800076e:	1a9b      	subs	r3, r3, r2
 8000770:	464a      	mov	r2, r9
 8000772:	40da      	lsrs	r2, r3
 8000774:	4661      	mov	r1, ip
 8000776:	0013      	movs	r3, r2
 8000778:	4642      	mov	r2, r8
 800077a:	408a      	lsls	r2, r1
 800077c:	0017      	movs	r7, r2
 800077e:	431f      	orrs	r7, r3
 8000780:	e780      	b.n	8000684 <__udivmoddi4+0x40>
 8000782:	4662      	mov	r2, ip
 8000784:	2320      	movs	r3, #32
 8000786:	1a9b      	subs	r3, r3, r2
 8000788:	002a      	movs	r2, r5
 800078a:	4666      	mov	r6, ip
 800078c:	409a      	lsls	r2, r3
 800078e:	0023      	movs	r3, r4
 8000790:	40f3      	lsrs	r3, r6
 8000792:	4313      	orrs	r3, r2
 8000794:	e7d4      	b.n	8000740 <__udivmoddi4+0xfc>
 8000796:	4662      	mov	r2, ip
 8000798:	2320      	movs	r3, #32
 800079a:	2100      	movs	r1, #0
 800079c:	1a9b      	subs	r3, r3, r2
 800079e:	2200      	movs	r2, #0
 80007a0:	9100      	str	r1, [sp, #0]
 80007a2:	9201      	str	r2, [sp, #4]
 80007a4:	2201      	movs	r2, #1
 80007a6:	40da      	lsrs	r2, r3
 80007a8:	9201      	str	r2, [sp, #4]
 80007aa:	e780      	b.n	80006ae <__udivmoddi4+0x6a>
 80007ac:	2320      	movs	r3, #32
 80007ae:	4662      	mov	r2, ip
 80007b0:	0026      	movs	r6, r4
 80007b2:	1a9b      	subs	r3, r3, r2
 80007b4:	40de      	lsrs	r6, r3
 80007b6:	002f      	movs	r7, r5
 80007b8:	46b0      	mov	r8, r6
 80007ba:	4666      	mov	r6, ip
 80007bc:	40b7      	lsls	r7, r6
 80007be:	4646      	mov	r6, r8
 80007c0:	003b      	movs	r3, r7
 80007c2:	4333      	orrs	r3, r6
 80007c4:	e7c8      	b.n	8000758 <__udivmoddi4+0x114>
 80007c6:	46c0      	nop			; (mov r8, r8)

080007c8 <__aeabi_fdiv>:
 80007c8:	b5f8      	push	{r3, r4, r5, r6, r7, lr}
 80007ca:	4657      	mov	r7, sl
 80007cc:	464e      	mov	r6, r9
 80007ce:	4645      	mov	r5, r8
 80007d0:	46de      	mov	lr, fp
 80007d2:	0244      	lsls	r4, r0, #9
 80007d4:	b5e0      	push	{r5, r6, r7, lr}
 80007d6:	0046      	lsls	r6, r0, #1
 80007d8:	4688      	mov	r8, r1
 80007da:	0a64      	lsrs	r4, r4, #9
 80007dc:	0e36      	lsrs	r6, r6, #24
 80007de:	0fc7      	lsrs	r7, r0, #31
 80007e0:	2e00      	cmp	r6, #0
 80007e2:	d063      	beq.n	80008ac <__aeabi_fdiv+0xe4>
 80007e4:	2eff      	cmp	r6, #255	; 0xff
 80007e6:	d024      	beq.n	8000832 <__aeabi_fdiv+0x6a>
 80007e8:	2380      	movs	r3, #128	; 0x80
 80007ea:	00e4      	lsls	r4, r4, #3
 80007ec:	04db      	lsls	r3, r3, #19
 80007ee:	431c      	orrs	r4, r3
 80007f0:	2300      	movs	r3, #0
 80007f2:	4699      	mov	r9, r3
 80007f4:	469b      	mov	fp, r3
 80007f6:	3e7f      	subs	r6, #127	; 0x7f
 80007f8:	4643      	mov	r3, r8
 80007fa:	4642      	mov	r2, r8
 80007fc:	025d      	lsls	r5, r3, #9
 80007fe:	0fd2      	lsrs	r2, r2, #31
 8000800:	005b      	lsls	r3, r3, #1
 8000802:	0a6d      	lsrs	r5, r5, #9
 8000804:	0e1b      	lsrs	r3, r3, #24
 8000806:	4690      	mov	r8, r2
 8000808:	4692      	mov	sl, r2
 800080a:	d065      	beq.n	80008d8 <__aeabi_fdiv+0x110>
 800080c:	2bff      	cmp	r3, #255	; 0xff
 800080e:	d055      	beq.n	80008bc <__aeabi_fdiv+0xf4>
 8000810:	2280      	movs	r2, #128	; 0x80
 8000812:	2100      	movs	r1, #0
 8000814:	00ed      	lsls	r5, r5, #3
 8000816:	04d2      	lsls	r2, r2, #19
 8000818:	3b7f      	subs	r3, #127	; 0x7f
 800081a:	4315      	orrs	r5, r2
 800081c:	1af6      	subs	r6, r6, r3
 800081e:	4643      	mov	r3, r8
 8000820:	464a      	mov	r2, r9
 8000822:	407b      	eors	r3, r7
 8000824:	2a0f      	cmp	r2, #15
 8000826:	d900      	bls.n	800082a <__aeabi_fdiv+0x62>
 8000828:	e08d      	b.n	8000946 <__aeabi_fdiv+0x17e>
 800082a:	486d      	ldr	r0, [pc, #436]	; (80009e0 <__aeabi_fdiv+0x218>)
 800082c:	0092      	lsls	r2, r2, #2
 800082e:	5882      	ldr	r2, [r0, r2]
 8000830:	4697      	mov	pc, r2
 8000832:	2c00      	cmp	r4, #0
 8000834:	d154      	bne.n	80008e0 <__aeabi_fdiv+0x118>
 8000836:	2308      	movs	r3, #8
 8000838:	4699      	mov	r9, r3
 800083a:	3b06      	subs	r3, #6
 800083c:	26ff      	movs	r6, #255	; 0xff
 800083e:	469b      	mov	fp, r3
 8000840:	e7da      	b.n	80007f8 <__aeabi_fdiv+0x30>
 8000842:	2500      	movs	r5, #0
 8000844:	4653      	mov	r3, sl
 8000846:	2902      	cmp	r1, #2
 8000848:	d01b      	beq.n	8000882 <__aeabi_fdiv+0xba>
 800084a:	2903      	cmp	r1, #3
 800084c:	d100      	bne.n	8000850 <__aeabi_fdiv+0x88>
 800084e:	e0bf      	b.n	80009d0 <__aeabi_fdiv+0x208>
 8000850:	2901      	cmp	r1, #1
 8000852:	d028      	beq.n	80008a6 <__aeabi_fdiv+0xde>
 8000854:	0030      	movs	r0, r6
 8000856:	307f      	adds	r0, #127	; 0x7f
 8000858:	2800      	cmp	r0, #0
 800085a:	dd20      	ble.n	800089e <__aeabi_fdiv+0xd6>
 800085c:	076a      	lsls	r2, r5, #29
 800085e:	d004      	beq.n	800086a <__aeabi_fdiv+0xa2>
 8000860:	220f      	movs	r2, #15
 8000862:	402a      	ands	r2, r5
 8000864:	2a04      	cmp	r2, #4
 8000866:	d000      	beq.n	800086a <__aeabi_fdiv+0xa2>
 8000868:	3504      	adds	r5, #4
 800086a:	012a      	lsls	r2, r5, #4
 800086c:	d503      	bpl.n	8000876 <__aeabi_fdiv+0xae>
 800086e:	0030      	movs	r0, r6
 8000870:	4a5c      	ldr	r2, [pc, #368]	; (80009e4 <__aeabi_fdiv+0x21c>)
 8000872:	3080      	adds	r0, #128	; 0x80
 8000874:	4015      	ands	r5, r2
 8000876:	28fe      	cmp	r0, #254	; 0xfe
 8000878:	dc03      	bgt.n	8000882 <__aeabi_fdiv+0xba>
 800087a:	01ac      	lsls	r4, r5, #6
 800087c:	0a64      	lsrs	r4, r4, #9
 800087e:	b2c2      	uxtb	r2, r0
 8000880:	e001      	b.n	8000886 <__aeabi_fdiv+0xbe>
 8000882:	22ff      	movs	r2, #255	; 0xff
 8000884:	2400      	movs	r4, #0
 8000886:	0264      	lsls	r4, r4, #9
 8000888:	05d2      	lsls	r2, r2, #23
 800088a:	0a60      	lsrs	r0, r4, #9
 800088c:	07db      	lsls	r3, r3, #31
 800088e:	4310      	orrs	r0, r2
 8000890:	4318      	orrs	r0, r3
 8000892:	bc3c      	pop	{r2, r3, r4, r5}
 8000894:	4690      	mov	r8, r2
 8000896:	4699      	mov	r9, r3
 8000898:	46a2      	mov	sl, r4
 800089a:	46ab      	mov	fp, r5
 800089c:	bdf8      	pop	{r3, r4, r5, r6, r7, pc}
 800089e:	2201      	movs	r2, #1
 80008a0:	1a10      	subs	r0, r2, r0
 80008a2:	281b      	cmp	r0, #27
 80008a4:	dd7c      	ble.n	80009a0 <__aeabi_fdiv+0x1d8>
 80008a6:	2200      	movs	r2, #0
 80008a8:	2400      	movs	r4, #0
 80008aa:	e7ec      	b.n	8000886 <__aeabi_fdiv+0xbe>
 80008ac:	2c00      	cmp	r4, #0
 80008ae:	d11d      	bne.n	80008ec <__aeabi_fdiv+0x124>
 80008b0:	2304      	movs	r3, #4
 80008b2:	4699      	mov	r9, r3
 80008b4:	3b03      	subs	r3, #3
 80008b6:	2600      	movs	r6, #0
 80008b8:	469b      	mov	fp, r3
 80008ba:	e79d      	b.n	80007f8 <__aeabi_fdiv+0x30>
 80008bc:	3eff      	subs	r6, #255	; 0xff
 80008be:	2d00      	cmp	r5, #0
 80008c0:	d120      	bne.n	8000904 <__aeabi_fdiv+0x13c>
 80008c2:	2102      	movs	r1, #2
 80008c4:	4643      	mov	r3, r8
 80008c6:	464a      	mov	r2, r9
 80008c8:	407b      	eors	r3, r7
 80008ca:	430a      	orrs	r2, r1
 80008cc:	2a0f      	cmp	r2, #15
 80008ce:	d8d8      	bhi.n	8000882 <__aeabi_fdiv+0xba>
 80008d0:	4845      	ldr	r0, [pc, #276]	; (80009e8 <__aeabi_fdiv+0x220>)
 80008d2:	0092      	lsls	r2, r2, #2
 80008d4:	5882      	ldr	r2, [r0, r2]
 80008d6:	4697      	mov	pc, r2
 80008d8:	2d00      	cmp	r5, #0
 80008da:	d119      	bne.n	8000910 <__aeabi_fdiv+0x148>
 80008dc:	2101      	movs	r1, #1
 80008de:	e7f1      	b.n	80008c4 <__aeabi_fdiv+0xfc>
 80008e0:	230c      	movs	r3, #12
 80008e2:	4699      	mov	r9, r3
 80008e4:	3b09      	subs	r3, #9
 80008e6:	26ff      	movs	r6, #255	; 0xff
 80008e8:	469b      	mov	fp, r3
 80008ea:	e785      	b.n	80007f8 <__aeabi_fdiv+0x30>
 80008ec:	0020      	movs	r0, r4
 80008ee:	f002 fa6d 	bl	8002dcc <__clzsi2>
 80008f2:	2676      	movs	r6, #118	; 0x76
 80008f4:	1f43      	subs	r3, r0, #5
 80008f6:	409c      	lsls	r4, r3
 80008f8:	2300      	movs	r3, #0
 80008fa:	4276      	negs	r6, r6
 80008fc:	1a36      	subs	r6, r6, r0
 80008fe:	4699      	mov	r9, r3
 8000900:	469b      	mov	fp, r3
 8000902:	e779      	b.n	80007f8 <__aeabi_fdiv+0x30>
 8000904:	464a      	mov	r2, r9
 8000906:	2303      	movs	r3, #3
 8000908:	431a      	orrs	r2, r3
 800090a:	4691      	mov	r9, r2
 800090c:	2103      	movs	r1, #3
 800090e:	e786      	b.n	800081e <__aeabi_fdiv+0x56>
 8000910:	0028      	movs	r0, r5
 8000912:	f002 fa5b 	bl	8002dcc <__clzsi2>
 8000916:	1f43      	subs	r3, r0, #5
 8000918:	1836      	adds	r6, r6, r0
 800091a:	409d      	lsls	r5, r3
 800091c:	3676      	adds	r6, #118	; 0x76
 800091e:	2100      	movs	r1, #0
 8000920:	e77d      	b.n	800081e <__aeabi_fdiv+0x56>
 8000922:	2480      	movs	r4, #128	; 0x80
 8000924:	2300      	movs	r3, #0
 8000926:	03e4      	lsls	r4, r4, #15
 8000928:	22ff      	movs	r2, #255	; 0xff
 800092a:	e7ac      	b.n	8000886 <__aeabi_fdiv+0xbe>
 800092c:	2500      	movs	r5, #0
 800092e:	2380      	movs	r3, #128	; 0x80
 8000930:	03db      	lsls	r3, r3, #15
 8000932:	421c      	tst	r4, r3
 8000934:	d028      	beq.n	8000988 <__aeabi_fdiv+0x1c0>
 8000936:	421d      	tst	r5, r3
 8000938:	d126      	bne.n	8000988 <__aeabi_fdiv+0x1c0>
 800093a:	432b      	orrs	r3, r5
 800093c:	025c      	lsls	r4, r3, #9
 800093e:	0a64      	lsrs	r4, r4, #9
 8000940:	4643      	mov	r3, r8
 8000942:	22ff      	movs	r2, #255	; 0xff
 8000944:	e79f      	b.n	8000886 <__aeabi_fdiv+0xbe>
 8000946:	0162      	lsls	r2, r4, #5
 8000948:	016c      	lsls	r4, r5, #5
 800094a:	42a2      	cmp	r2, r4
 800094c:	d224      	bcs.n	8000998 <__aeabi_fdiv+0x1d0>
 800094e:	211b      	movs	r1, #27
 8000950:	2500      	movs	r5, #0
 8000952:	3e01      	subs	r6, #1
 8000954:	2701      	movs	r7, #1
 8000956:	0010      	movs	r0, r2
 8000958:	006d      	lsls	r5, r5, #1
 800095a:	0052      	lsls	r2, r2, #1
 800095c:	2800      	cmp	r0, #0
 800095e:	db01      	blt.n	8000964 <__aeabi_fdiv+0x19c>
 8000960:	4294      	cmp	r4, r2
 8000962:	d801      	bhi.n	8000968 <__aeabi_fdiv+0x1a0>
 8000964:	1b12      	subs	r2, r2, r4
 8000966:	433d      	orrs	r5, r7
 8000968:	3901      	subs	r1, #1
 800096a:	2900      	cmp	r1, #0
 800096c:	d1f3      	bne.n	8000956 <__aeabi_fdiv+0x18e>
 800096e:	0014      	movs	r4, r2
 8000970:	1e62      	subs	r2, r4, #1
 8000972:	4194      	sbcs	r4, r2
 8000974:	4325      	orrs	r5, r4
 8000976:	e76d      	b.n	8000854 <__aeabi_fdiv+0x8c>
 8000978:	46ba      	mov	sl, r7
 800097a:	4659      	mov	r1, fp
 800097c:	0025      	movs	r5, r4
 800097e:	4653      	mov	r3, sl
 8000980:	2902      	cmp	r1, #2
 8000982:	d000      	beq.n	8000986 <__aeabi_fdiv+0x1be>
 8000984:	e761      	b.n	800084a <__aeabi_fdiv+0x82>
 8000986:	e77c      	b.n	8000882 <__aeabi_fdiv+0xba>
 8000988:	2380      	movs	r3, #128	; 0x80
 800098a:	03db      	lsls	r3, r3, #15
 800098c:	431c      	orrs	r4, r3
 800098e:	0264      	lsls	r4, r4, #9
 8000990:	0a64      	lsrs	r4, r4, #9
 8000992:	003b      	movs	r3, r7
 8000994:	22ff      	movs	r2, #255	; 0xff
 8000996:	e776      	b.n	8000886 <__aeabi_fdiv+0xbe>
 8000998:	1b12      	subs	r2, r2, r4
 800099a:	211a      	movs	r1, #26
 800099c:	2501      	movs	r5, #1
 800099e:	e7d9      	b.n	8000954 <__aeabi_fdiv+0x18c>
 80009a0:	369e      	adds	r6, #158	; 0x9e
 80009a2:	002a      	movs	r2, r5
 80009a4:	40b5      	lsls	r5, r6
 80009a6:	002c      	movs	r4, r5
 80009a8:	40c2      	lsrs	r2, r0
 80009aa:	1e65      	subs	r5, r4, #1
 80009ac:	41ac      	sbcs	r4, r5
 80009ae:	4314      	orrs	r4, r2
 80009b0:	0762      	lsls	r2, r4, #29
 80009b2:	d004      	beq.n	80009be <__aeabi_fdiv+0x1f6>
 80009b4:	220f      	movs	r2, #15
 80009b6:	4022      	ands	r2, r4
 80009b8:	2a04      	cmp	r2, #4
 80009ba:	d000      	beq.n	80009be <__aeabi_fdiv+0x1f6>
 80009bc:	3404      	adds	r4, #4
 80009be:	0162      	lsls	r2, r4, #5
 80009c0:	d403      	bmi.n	80009ca <__aeabi_fdiv+0x202>
 80009c2:	01a4      	lsls	r4, r4, #6
 80009c4:	0a64      	lsrs	r4, r4, #9
 80009c6:	2200      	movs	r2, #0
 80009c8:	e75d      	b.n	8000886 <__aeabi_fdiv+0xbe>
 80009ca:	2201      	movs	r2, #1
 80009cc:	2400      	movs	r4, #0
 80009ce:	e75a      	b.n	8000886 <__aeabi_fdiv+0xbe>
 80009d0:	2480      	movs	r4, #128	; 0x80
 80009d2:	03e4      	lsls	r4, r4, #15
 80009d4:	432c      	orrs	r4, r5
 80009d6:	0264      	lsls	r4, r4, #9
 80009d8:	0a64      	lsrs	r4, r4, #9
 80009da:	22ff      	movs	r2, #255	; 0xff
 80009dc:	e753      	b.n	8000886 <__aeabi_fdiv+0xbe>
 80009de:	46c0      	nop			; (mov r8, r8)
 80009e0:	0800ff80 	.word	0x0800ff80
 80009e4:	f7ffffff 	.word	0xf7ffffff
 80009e8:	0800ffc0 	.word	0x0800ffc0

080009ec <__eqsf2>:
 80009ec:	b570      	push	{r4, r5, r6, lr}
 80009ee:	0042      	lsls	r2, r0, #1
 80009f0:	024e      	lsls	r6, r1, #9
 80009f2:	004c      	lsls	r4, r1, #1
 80009f4:	0245      	lsls	r5, r0, #9
 80009f6:	0a6d      	lsrs	r5, r5, #9
 80009f8:	0e12      	lsrs	r2, r2, #24
 80009fa:	0fc3      	lsrs	r3, r0, #31
 80009fc:	0a76      	lsrs	r6, r6, #9
 80009fe:	0e24      	lsrs	r4, r4, #24
 8000a00:	0fc9      	lsrs	r1, r1, #31
 8000a02:	2aff      	cmp	r2, #255	; 0xff
 8000a04:	d00f      	beq.n	8000a26 <__eqsf2+0x3a>
 8000a06:	2cff      	cmp	r4, #255	; 0xff
 8000a08:	d011      	beq.n	8000a2e <__eqsf2+0x42>
 8000a0a:	2001      	movs	r0, #1
 8000a0c:	42a2      	cmp	r2, r4
 8000a0e:	d000      	beq.n	8000a12 <__eqsf2+0x26>
 8000a10:	bd70      	pop	{r4, r5, r6, pc}
 8000a12:	42b5      	cmp	r5, r6
 8000a14:	d1fc      	bne.n	8000a10 <__eqsf2+0x24>
 8000a16:	428b      	cmp	r3, r1
 8000a18:	d00d      	beq.n	8000a36 <__eqsf2+0x4a>
 8000a1a:	2a00      	cmp	r2, #0
 8000a1c:	d1f8      	bne.n	8000a10 <__eqsf2+0x24>
 8000a1e:	0028      	movs	r0, r5
 8000a20:	1e45      	subs	r5, r0, #1
 8000a22:	41a8      	sbcs	r0, r5
 8000a24:	e7f4      	b.n	8000a10 <__eqsf2+0x24>
 8000a26:	2001      	movs	r0, #1
 8000a28:	2d00      	cmp	r5, #0
 8000a2a:	d1f1      	bne.n	8000a10 <__eqsf2+0x24>
 8000a2c:	e7eb      	b.n	8000a06 <__eqsf2+0x1a>
 8000a2e:	2001      	movs	r0, #1
 8000a30:	2e00      	cmp	r6, #0
 8000a32:	d1ed      	bne.n	8000a10 <__eqsf2+0x24>
 8000a34:	e7e9      	b.n	8000a0a <__eqsf2+0x1e>
 8000a36:	2000      	movs	r0, #0
 8000a38:	e7ea      	b.n	8000a10 <__eqsf2+0x24>
 8000a3a:	46c0      	nop			; (mov r8, r8)

08000a3c <__gesf2>:
 8000a3c:	b570      	push	{r4, r5, r6, lr}
 8000a3e:	004a      	lsls	r2, r1, #1
 8000a40:	024e      	lsls	r6, r1, #9
 8000a42:	0245      	lsls	r5, r0, #9
 8000a44:	0044      	lsls	r4, r0, #1
 8000a46:	0a6d      	lsrs	r5, r5, #9
 8000a48:	0e24      	lsrs	r4, r4, #24
 8000a4a:	0fc3      	lsrs	r3, r0, #31
 8000a4c:	0a76      	lsrs	r6, r6, #9
 8000a4e:	0e12      	lsrs	r2, r2, #24
 8000a50:	0fc9      	lsrs	r1, r1, #31
 8000a52:	2cff      	cmp	r4, #255	; 0xff
 8000a54:	d015      	beq.n	8000a82 <__gesf2+0x46>
 8000a56:	2aff      	cmp	r2, #255	; 0xff
 8000a58:	d00e      	beq.n	8000a78 <__gesf2+0x3c>
 8000a5a:	2c00      	cmp	r4, #0
 8000a5c:	d115      	bne.n	8000a8a <__gesf2+0x4e>
 8000a5e:	2a00      	cmp	r2, #0
 8000a60:	d101      	bne.n	8000a66 <__gesf2+0x2a>
 8000a62:	2e00      	cmp	r6, #0
 8000a64:	d01c      	beq.n	8000aa0 <__gesf2+0x64>
 8000a66:	2d00      	cmp	r5, #0
 8000a68:	d014      	beq.n	8000a94 <__gesf2+0x58>
 8000a6a:	428b      	cmp	r3, r1
 8000a6c:	d027      	beq.n	8000abe <__gesf2+0x82>
 8000a6e:	2002      	movs	r0, #2
 8000a70:	3b01      	subs	r3, #1
 8000a72:	4018      	ands	r0, r3
 8000a74:	3801      	subs	r0, #1
 8000a76:	bd70      	pop	{r4, r5, r6, pc}
 8000a78:	2e00      	cmp	r6, #0
 8000a7a:	d0ee      	beq.n	8000a5a <__gesf2+0x1e>
 8000a7c:	2002      	movs	r0, #2
 8000a7e:	4240      	negs	r0, r0
 8000a80:	e7f9      	b.n	8000a76 <__gesf2+0x3a>
 8000a82:	2d00      	cmp	r5, #0
 8000a84:	d1fa      	bne.n	8000a7c <__gesf2+0x40>
 8000a86:	2aff      	cmp	r2, #255	; 0xff
 8000a88:	d00e      	beq.n	8000aa8 <__gesf2+0x6c>
 8000a8a:	2a00      	cmp	r2, #0
 8000a8c:	d10e      	bne.n	8000aac <__gesf2+0x70>
 8000a8e:	2e00      	cmp	r6, #0
 8000a90:	d0ed      	beq.n	8000a6e <__gesf2+0x32>
 8000a92:	e00b      	b.n	8000aac <__gesf2+0x70>
 8000a94:	2301      	movs	r3, #1
 8000a96:	3901      	subs	r1, #1
 8000a98:	4399      	bics	r1, r3
 8000a9a:	0008      	movs	r0, r1
 8000a9c:	3001      	adds	r0, #1
 8000a9e:	e7ea      	b.n	8000a76 <__gesf2+0x3a>
 8000aa0:	2000      	movs	r0, #0
 8000aa2:	2d00      	cmp	r5, #0
 8000aa4:	d0e7      	beq.n	8000a76 <__gesf2+0x3a>
 8000aa6:	e7e2      	b.n	8000a6e <__gesf2+0x32>
 8000aa8:	2e00      	cmp	r6, #0
 8000aaa:	d1e7      	bne.n	8000a7c <__gesf2+0x40>
 8000aac:	428b      	cmp	r3, r1
 8000aae:	d1de      	bne.n	8000a6e <__gesf2+0x32>
 8000ab0:	4294      	cmp	r4, r2
 8000ab2:	dd05      	ble.n	8000ac0 <__gesf2+0x84>
 8000ab4:	2102      	movs	r1, #2
 8000ab6:	1e58      	subs	r0, r3, #1
 8000ab8:	4008      	ands	r0, r1
 8000aba:	3801      	subs	r0, #1
 8000abc:	e7db      	b.n	8000a76 <__gesf2+0x3a>
 8000abe:	2400      	movs	r4, #0
 8000ac0:	42a2      	cmp	r2, r4
 8000ac2:	dc04      	bgt.n	8000ace <__gesf2+0x92>
 8000ac4:	42b5      	cmp	r5, r6
 8000ac6:	d8d2      	bhi.n	8000a6e <__gesf2+0x32>
 8000ac8:	2000      	movs	r0, #0
 8000aca:	42b5      	cmp	r5, r6
 8000acc:	d2d3      	bcs.n	8000a76 <__gesf2+0x3a>
 8000ace:	1e58      	subs	r0, r3, #1
 8000ad0:	2301      	movs	r3, #1
 8000ad2:	4398      	bics	r0, r3
 8000ad4:	3001      	adds	r0, #1
 8000ad6:	e7ce      	b.n	8000a76 <__gesf2+0x3a>

08000ad8 <__lesf2>:
 8000ad8:	b530      	push	{r4, r5, lr}
 8000ada:	0042      	lsls	r2, r0, #1
 8000adc:	0244      	lsls	r4, r0, #9
 8000ade:	024d      	lsls	r5, r1, #9
 8000ae0:	0fc3      	lsrs	r3, r0, #31
 8000ae2:	0048      	lsls	r0, r1, #1
 8000ae4:	0a64      	lsrs	r4, r4, #9
 8000ae6:	0e12      	lsrs	r2, r2, #24
 8000ae8:	0a6d      	lsrs	r5, r5, #9
 8000aea:	0e00      	lsrs	r0, r0, #24
 8000aec:	0fc9      	lsrs	r1, r1, #31
 8000aee:	2aff      	cmp	r2, #255	; 0xff
 8000af0:	d012      	beq.n	8000b18 <__lesf2+0x40>
 8000af2:	28ff      	cmp	r0, #255	; 0xff
 8000af4:	d00c      	beq.n	8000b10 <__lesf2+0x38>
 8000af6:	2a00      	cmp	r2, #0
 8000af8:	d112      	bne.n	8000b20 <__lesf2+0x48>
 8000afa:	2800      	cmp	r0, #0
 8000afc:	d119      	bne.n	8000b32 <__lesf2+0x5a>
 8000afe:	2d00      	cmp	r5, #0
 8000b00:	d117      	bne.n	8000b32 <__lesf2+0x5a>
 8000b02:	2c00      	cmp	r4, #0
 8000b04:	d02b      	beq.n	8000b5e <__lesf2+0x86>
 8000b06:	2002      	movs	r0, #2
 8000b08:	3b01      	subs	r3, #1
 8000b0a:	4018      	ands	r0, r3
 8000b0c:	3801      	subs	r0, #1
 8000b0e:	e026      	b.n	8000b5e <__lesf2+0x86>
 8000b10:	2d00      	cmp	r5, #0
 8000b12:	d0f0      	beq.n	8000af6 <__lesf2+0x1e>
 8000b14:	2002      	movs	r0, #2
 8000b16:	e022      	b.n	8000b5e <__lesf2+0x86>
 8000b18:	2c00      	cmp	r4, #0
 8000b1a:	d1fb      	bne.n	8000b14 <__lesf2+0x3c>
 8000b1c:	28ff      	cmp	r0, #255	; 0xff
 8000b1e:	d01f      	beq.n	8000b60 <__lesf2+0x88>
 8000b20:	2800      	cmp	r0, #0
 8000b22:	d11f      	bne.n	8000b64 <__lesf2+0x8c>
 8000b24:	2d00      	cmp	r5, #0
 8000b26:	d11d      	bne.n	8000b64 <__lesf2+0x8c>
 8000b28:	2002      	movs	r0, #2
 8000b2a:	3b01      	subs	r3, #1
 8000b2c:	4018      	ands	r0, r3
 8000b2e:	3801      	subs	r0, #1
 8000b30:	e015      	b.n	8000b5e <__lesf2+0x86>
 8000b32:	2c00      	cmp	r4, #0
 8000b34:	d00e      	beq.n	8000b54 <__lesf2+0x7c>
 8000b36:	428b      	cmp	r3, r1
 8000b38:	d1e5      	bne.n	8000b06 <__lesf2+0x2e>
 8000b3a:	2200      	movs	r2, #0
 8000b3c:	4290      	cmp	r0, r2
 8000b3e:	dc04      	bgt.n	8000b4a <__lesf2+0x72>
 8000b40:	42ac      	cmp	r4, r5
 8000b42:	d8e0      	bhi.n	8000b06 <__lesf2+0x2e>
 8000b44:	2000      	movs	r0, #0
 8000b46:	42ac      	cmp	r4, r5
 8000b48:	d209      	bcs.n	8000b5e <__lesf2+0x86>
 8000b4a:	1e58      	subs	r0, r3, #1
 8000b4c:	2301      	movs	r3, #1
 8000b4e:	4398      	bics	r0, r3
 8000b50:	3001      	adds	r0, #1
 8000b52:	e004      	b.n	8000b5e <__lesf2+0x86>
 8000b54:	2301      	movs	r3, #1
 8000b56:	3901      	subs	r1, #1
 8000b58:	4399      	bics	r1, r3
 8000b5a:	0008      	movs	r0, r1
 8000b5c:	3001      	adds	r0, #1
 8000b5e:	bd30      	pop	{r4, r5, pc}
 8000b60:	2d00      	cmp	r5, #0
 8000b62:	d1d7      	bne.n	8000b14 <__lesf2+0x3c>
 8000b64:	428b      	cmp	r3, r1
 8000b66:	d1ce      	bne.n	8000b06 <__lesf2+0x2e>
 8000b68:	4282      	cmp	r2, r0
 8000b6a:	dde7      	ble.n	8000b3c <__lesf2+0x64>
 8000b6c:	2102      	movs	r1, #2
 8000b6e:	1e58      	subs	r0, r3, #1
 8000b70:	4008      	ands	r0, r1
 8000b72:	3801      	subs	r0, #1
 8000b74:	e7f3      	b.n	8000b5e <__lesf2+0x86>
 8000b76:	46c0      	nop			; (mov r8, r8)

08000b78 <__aeabi_fmul>:
 8000b78:	b5f0      	push	{r4, r5, r6, r7, lr}
 8000b7a:	464e      	mov	r6, r9
 8000b7c:	4657      	mov	r7, sl
 8000b7e:	4645      	mov	r5, r8
 8000b80:	46de      	mov	lr, fp
 8000b82:	b5e0      	push	{r5, r6, r7, lr}
 8000b84:	0243      	lsls	r3, r0, #9
 8000b86:	0a5b      	lsrs	r3, r3, #9
 8000b88:	0045      	lsls	r5, r0, #1
 8000b8a:	b083      	sub	sp, #12
 8000b8c:	1c0f      	adds	r7, r1, #0
 8000b8e:	4699      	mov	r9, r3
 8000b90:	0e2d      	lsrs	r5, r5, #24
 8000b92:	0fc6      	lsrs	r6, r0, #31
 8000b94:	2d00      	cmp	r5, #0
 8000b96:	d057      	beq.n	8000c48 <__aeabi_fmul+0xd0>
 8000b98:	2dff      	cmp	r5, #255	; 0xff
 8000b9a:	d024      	beq.n	8000be6 <__aeabi_fmul+0x6e>
 8000b9c:	2080      	movs	r0, #128	; 0x80
 8000b9e:	00db      	lsls	r3, r3, #3
 8000ba0:	04c0      	lsls	r0, r0, #19
 8000ba2:	4318      	orrs	r0, r3
 8000ba4:	2300      	movs	r3, #0
 8000ba6:	4681      	mov	r9, r0
 8000ba8:	469a      	mov	sl, r3
 8000baa:	469b      	mov	fp, r3
 8000bac:	3d7f      	subs	r5, #127	; 0x7f
 8000bae:	027c      	lsls	r4, r7, #9
 8000bb0:	007a      	lsls	r2, r7, #1
 8000bb2:	0ffb      	lsrs	r3, r7, #31
 8000bb4:	0a64      	lsrs	r4, r4, #9
 8000bb6:	0e12      	lsrs	r2, r2, #24
 8000bb8:	4698      	mov	r8, r3
 8000bba:	d023      	beq.n	8000c04 <__aeabi_fmul+0x8c>
 8000bbc:	2aff      	cmp	r2, #255	; 0xff
 8000bbe:	d04b      	beq.n	8000c58 <__aeabi_fmul+0xe0>
 8000bc0:	00e3      	lsls	r3, r4, #3
 8000bc2:	2480      	movs	r4, #128	; 0x80
 8000bc4:	2000      	movs	r0, #0
 8000bc6:	04e4      	lsls	r4, r4, #19
 8000bc8:	3a7f      	subs	r2, #127	; 0x7f
 8000bca:	431c      	orrs	r4, r3
 8000bcc:	18ad      	adds	r5, r5, r2
 8000bce:	1c6b      	adds	r3, r5, #1
 8000bd0:	4647      	mov	r7, r8
 8000bd2:	9301      	str	r3, [sp, #4]
 8000bd4:	4653      	mov	r3, sl
 8000bd6:	4077      	eors	r7, r6
 8000bd8:	003a      	movs	r2, r7
 8000bda:	2b0f      	cmp	r3, #15
 8000bdc:	d848      	bhi.n	8000c70 <__aeabi_fmul+0xf8>
 8000bde:	497d      	ldr	r1, [pc, #500]	; (8000dd4 <__aeabi_fmul+0x25c>)
 8000be0:	009b      	lsls	r3, r3, #2
 8000be2:	58cb      	ldr	r3, [r1, r3]
 8000be4:	469f      	mov	pc, r3
 8000be6:	2b00      	cmp	r3, #0
 8000be8:	d000      	beq.n	8000bec <__aeabi_fmul+0x74>
 8000bea:	e085      	b.n	8000cf8 <__aeabi_fmul+0x180>
 8000bec:	3308      	adds	r3, #8
 8000bee:	469a      	mov	sl, r3
 8000bf0:	3b06      	subs	r3, #6
 8000bf2:	469b      	mov	fp, r3
 8000bf4:	027c      	lsls	r4, r7, #9
 8000bf6:	007a      	lsls	r2, r7, #1
 8000bf8:	0ffb      	lsrs	r3, r7, #31
 8000bfa:	25ff      	movs	r5, #255	; 0xff
 8000bfc:	0a64      	lsrs	r4, r4, #9
 8000bfe:	0e12      	lsrs	r2, r2, #24
 8000c00:	4698      	mov	r8, r3
 8000c02:	d1db      	bne.n	8000bbc <__aeabi_fmul+0x44>
 8000c04:	2c00      	cmp	r4, #0
 8000c06:	d000      	beq.n	8000c0a <__aeabi_fmul+0x92>
 8000c08:	e090      	b.n	8000d2c <__aeabi_fmul+0x1b4>
 8000c0a:	4652      	mov	r2, sl
 8000c0c:	2301      	movs	r3, #1
 8000c0e:	431a      	orrs	r2, r3
 8000c10:	4692      	mov	sl, r2
 8000c12:	2001      	movs	r0, #1
 8000c14:	e7db      	b.n	8000bce <__aeabi_fmul+0x56>
 8000c16:	464c      	mov	r4, r9
 8000c18:	4658      	mov	r0, fp
 8000c1a:	0017      	movs	r7, r2
 8000c1c:	2802      	cmp	r0, #2
 8000c1e:	d024      	beq.n	8000c6a <__aeabi_fmul+0xf2>
 8000c20:	2803      	cmp	r0, #3
 8000c22:	d100      	bne.n	8000c26 <__aeabi_fmul+0xae>
 8000c24:	e0cf      	b.n	8000dc6 <__aeabi_fmul+0x24e>
 8000c26:	2200      	movs	r2, #0
 8000c28:	2300      	movs	r3, #0
 8000c2a:	2801      	cmp	r0, #1
 8000c2c:	d14d      	bne.n	8000cca <__aeabi_fmul+0x152>
 8000c2e:	0258      	lsls	r0, r3, #9
 8000c30:	05d2      	lsls	r2, r2, #23
 8000c32:	0a40      	lsrs	r0, r0, #9
 8000c34:	07ff      	lsls	r7, r7, #31
 8000c36:	4310      	orrs	r0, r2
 8000c38:	4338      	orrs	r0, r7
 8000c3a:	b003      	add	sp, #12
 8000c3c:	bc3c      	pop	{r2, r3, r4, r5}
 8000c3e:	4690      	mov	r8, r2
 8000c40:	4699      	mov	r9, r3
 8000c42:	46a2      	mov	sl, r4
 8000c44:	46ab      	mov	fp, r5
 8000c46:	bdf0      	pop	{r4, r5, r6, r7, pc}
 8000c48:	2b00      	cmp	r3, #0
 8000c4a:	d15b      	bne.n	8000d04 <__aeabi_fmul+0x18c>
 8000c4c:	2304      	movs	r3, #4
 8000c4e:	469a      	mov	sl, r3
 8000c50:	3b03      	subs	r3, #3
 8000c52:	2500      	movs	r5, #0
 8000c54:	469b      	mov	fp, r3
 8000c56:	e7aa      	b.n	8000bae <__aeabi_fmul+0x36>
 8000c58:	35ff      	adds	r5, #255	; 0xff
 8000c5a:	2c00      	cmp	r4, #0
 8000c5c:	d160      	bne.n	8000d20 <__aeabi_fmul+0x1a8>
 8000c5e:	4652      	mov	r2, sl
 8000c60:	2302      	movs	r3, #2
 8000c62:	431a      	orrs	r2, r3
 8000c64:	4692      	mov	sl, r2
 8000c66:	2002      	movs	r0, #2
 8000c68:	e7b1      	b.n	8000bce <__aeabi_fmul+0x56>
 8000c6a:	22ff      	movs	r2, #255	; 0xff
 8000c6c:	2300      	movs	r3, #0
 8000c6e:	e7de      	b.n	8000c2e <__aeabi_fmul+0xb6>
 8000c70:	464b      	mov	r3, r9
 8000c72:	0c1b      	lsrs	r3, r3, #16
 8000c74:	469c      	mov	ip, r3
 8000c76:	464b      	mov	r3, r9
 8000c78:	0426      	lsls	r6, r4, #16
 8000c7a:	0c36      	lsrs	r6, r6, #16
 8000c7c:	0418      	lsls	r0, r3, #16
 8000c7e:	4661      	mov	r1, ip
 8000c80:	0033      	movs	r3, r6
 8000c82:	0c22      	lsrs	r2, r4, #16
 8000c84:	4664      	mov	r4, ip
 8000c86:	0c00      	lsrs	r0, r0, #16
 8000c88:	4343      	muls	r3, r0
 8000c8a:	434e      	muls	r6, r1
 8000c8c:	4350      	muls	r0, r2
 8000c8e:	4354      	muls	r4, r2
 8000c90:	1980      	adds	r0, r0, r6
 8000c92:	0c1a      	lsrs	r2, r3, #16
 8000c94:	1812      	adds	r2, r2, r0
 8000c96:	4296      	cmp	r6, r2
 8000c98:	d903      	bls.n	8000ca2 <__aeabi_fmul+0x12a>
 8000c9a:	2180      	movs	r1, #128	; 0x80
 8000c9c:	0249      	lsls	r1, r1, #9
 8000c9e:	468c      	mov	ip, r1
 8000ca0:	4464      	add	r4, ip
 8000ca2:	041b      	lsls	r3, r3, #16
 8000ca4:	0c1b      	lsrs	r3, r3, #16
 8000ca6:	0410      	lsls	r0, r2, #16
 8000ca8:	18c0      	adds	r0, r0, r3
 8000caa:	0183      	lsls	r3, r0, #6
 8000cac:	1e5e      	subs	r6, r3, #1
 8000cae:	41b3      	sbcs	r3, r6
 8000cb0:	0e80      	lsrs	r0, r0, #26
 8000cb2:	4318      	orrs	r0, r3
 8000cb4:	0c13      	lsrs	r3, r2, #16
 8000cb6:	191b      	adds	r3, r3, r4
 8000cb8:	019b      	lsls	r3, r3, #6
 8000cba:	4303      	orrs	r3, r0
 8000cbc:	001c      	movs	r4, r3
 8000cbe:	0123      	lsls	r3, r4, #4
 8000cc0:	d579      	bpl.n	8000db6 <__aeabi_fmul+0x23e>
 8000cc2:	2301      	movs	r3, #1
 8000cc4:	0862      	lsrs	r2, r4, #1
 8000cc6:	401c      	ands	r4, r3
 8000cc8:	4314      	orrs	r4, r2
 8000cca:	9a01      	ldr	r2, [sp, #4]
 8000ccc:	327f      	adds	r2, #127	; 0x7f
 8000cce:	2a00      	cmp	r2, #0
 8000cd0:	dd4d      	ble.n	8000d6e <__aeabi_fmul+0x1f6>
 8000cd2:	0763      	lsls	r3, r4, #29
 8000cd4:	d004      	beq.n	8000ce0 <__aeabi_fmul+0x168>
 8000cd6:	230f      	movs	r3, #15
 8000cd8:	4023      	ands	r3, r4
 8000cda:	2b04      	cmp	r3, #4
 8000cdc:	d000      	beq.n	8000ce0 <__aeabi_fmul+0x168>
 8000cde:	3404      	adds	r4, #4
 8000ce0:	0123      	lsls	r3, r4, #4
 8000ce2:	d503      	bpl.n	8000cec <__aeabi_fmul+0x174>
 8000ce4:	4b3c      	ldr	r3, [pc, #240]	; (8000dd8 <__aeabi_fmul+0x260>)
 8000ce6:	9a01      	ldr	r2, [sp, #4]
 8000ce8:	401c      	ands	r4, r3
 8000cea:	3280      	adds	r2, #128	; 0x80
 8000cec:	2afe      	cmp	r2, #254	; 0xfe
 8000cee:	dcbc      	bgt.n	8000c6a <__aeabi_fmul+0xf2>
 8000cf0:	01a3      	lsls	r3, r4, #6
 8000cf2:	0a5b      	lsrs	r3, r3, #9
 8000cf4:	b2d2      	uxtb	r2, r2
 8000cf6:	e79a      	b.n	8000c2e <__aeabi_fmul+0xb6>
 8000cf8:	230c      	movs	r3, #12
 8000cfa:	469a      	mov	sl, r3
 8000cfc:	3b09      	subs	r3, #9
 8000cfe:	25ff      	movs	r5, #255	; 0xff
 8000d00:	469b      	mov	fp, r3
 8000d02:	e754      	b.n	8000bae <__aeabi_fmul+0x36>
 8000d04:	0018      	movs	r0, r3
 8000d06:	f002 f861 	bl	8002dcc <__clzsi2>
 8000d0a:	464a      	mov	r2, r9
 8000d0c:	1f43      	subs	r3, r0, #5
 8000d0e:	2576      	movs	r5, #118	; 0x76
 8000d10:	409a      	lsls	r2, r3
 8000d12:	2300      	movs	r3, #0
 8000d14:	426d      	negs	r5, r5
 8000d16:	4691      	mov	r9, r2
 8000d18:	1a2d      	subs	r5, r5, r0
 8000d1a:	469a      	mov	sl, r3
 8000d1c:	469b      	mov	fp, r3
 8000d1e:	e746      	b.n	8000bae <__aeabi_fmul+0x36>
 8000d20:	4652      	mov	r2, sl
 8000d22:	2303      	movs	r3, #3
 8000d24:	431a      	orrs	r2, r3
 8000d26:	4692      	mov	sl, r2
 8000d28:	2003      	movs	r0, #3
 8000d2a:	e750      	b.n	8000bce <__aeabi_fmul+0x56>
 8000d2c:	0020      	movs	r0, r4
 8000d2e:	f002 f84d 	bl	8002dcc <__clzsi2>
 8000d32:	1f43      	subs	r3, r0, #5
 8000d34:	1a2d      	subs	r5, r5, r0
 8000d36:	409c      	lsls	r4, r3
 8000d38:	3d76      	subs	r5, #118	; 0x76
 8000d3a:	2000      	movs	r0, #0
 8000d3c:	e747      	b.n	8000bce <__aeabi_fmul+0x56>
 8000d3e:	2380      	movs	r3, #128	; 0x80
 8000d40:	2700      	movs	r7, #0
 8000d42:	03db      	lsls	r3, r3, #15
 8000d44:	22ff      	movs	r2, #255	; 0xff
 8000d46:	e772      	b.n	8000c2e <__aeabi_fmul+0xb6>
 8000d48:	4642      	mov	r2, r8
 8000d4a:	e766      	b.n	8000c1a <__aeabi_fmul+0xa2>
 8000d4c:	464c      	mov	r4, r9
 8000d4e:	0032      	movs	r2, r6
 8000d50:	4658      	mov	r0, fp
 8000d52:	e762      	b.n	8000c1a <__aeabi_fmul+0xa2>
 8000d54:	2380      	movs	r3, #128	; 0x80
 8000d56:	464a      	mov	r2, r9
 8000d58:	03db      	lsls	r3, r3, #15
 8000d5a:	421a      	tst	r2, r3
 8000d5c:	d022      	beq.n	8000da4 <__aeabi_fmul+0x22c>
 8000d5e:	421c      	tst	r4, r3
 8000d60:	d120      	bne.n	8000da4 <__aeabi_fmul+0x22c>
 8000d62:	4323      	orrs	r3, r4
 8000d64:	025b      	lsls	r3, r3, #9
 8000d66:	0a5b      	lsrs	r3, r3, #9
 8000d68:	4647      	mov	r7, r8
 8000d6a:	22ff      	movs	r2, #255	; 0xff
 8000d6c:	e75f      	b.n	8000c2e <__aeabi_fmul+0xb6>
 8000d6e:	2301      	movs	r3, #1
 8000d70:	1a9a      	subs	r2, r3, r2
 8000d72:	2a1b      	cmp	r2, #27
 8000d74:	dc21      	bgt.n	8000dba <__aeabi_fmul+0x242>
 8000d76:	0023      	movs	r3, r4
 8000d78:	9901      	ldr	r1, [sp, #4]
 8000d7a:	40d3      	lsrs	r3, r2
 8000d7c:	319e      	adds	r1, #158	; 0x9e
 8000d7e:	408c      	lsls	r4, r1
 8000d80:	001a      	movs	r2, r3
 8000d82:	0023      	movs	r3, r4
 8000d84:	1e5c      	subs	r4, r3, #1
 8000d86:	41a3      	sbcs	r3, r4
 8000d88:	4313      	orrs	r3, r2
 8000d8a:	075a      	lsls	r2, r3, #29
 8000d8c:	d004      	beq.n	8000d98 <__aeabi_fmul+0x220>
 8000d8e:	220f      	movs	r2, #15
 8000d90:	401a      	ands	r2, r3
 8000d92:	2a04      	cmp	r2, #4
 8000d94:	d000      	beq.n	8000d98 <__aeabi_fmul+0x220>
 8000d96:	3304      	adds	r3, #4
 8000d98:	015a      	lsls	r2, r3, #5
 8000d9a:	d411      	bmi.n	8000dc0 <__aeabi_fmul+0x248>
 8000d9c:	019b      	lsls	r3, r3, #6
 8000d9e:	0a5b      	lsrs	r3, r3, #9
 8000da0:	2200      	movs	r2, #0
 8000da2:	e744      	b.n	8000c2e <__aeabi_fmul+0xb6>
 8000da4:	2380      	movs	r3, #128	; 0x80
 8000da6:	464a      	mov	r2, r9
 8000da8:	03db      	lsls	r3, r3, #15
 8000daa:	4313      	orrs	r3, r2
 8000dac:	025b      	lsls	r3, r3, #9
 8000dae:	0a5b      	lsrs	r3, r3, #9
 8000db0:	0037      	movs	r7, r6
 8000db2:	22ff      	movs	r2, #255	; 0xff
 8000db4:	e73b      	b.n	8000c2e <__aeabi_fmul+0xb6>
 8000db6:	9501      	str	r5, [sp, #4]
 8000db8:	e787      	b.n	8000cca <__aeabi_fmul+0x152>
 8000dba:	2200      	movs	r2, #0
 8000dbc:	2300      	movs	r3, #0
 8000dbe:	e736      	b.n	8000c2e <__aeabi_fmul+0xb6>
 8000dc0:	2201      	movs	r2, #1
 8000dc2:	2300      	movs	r3, #0
 8000dc4:	e733      	b.n	8000c2e <__aeabi_fmul+0xb6>
 8000dc6:	2380      	movs	r3, #128	; 0x80
 8000dc8:	03db      	lsls	r3, r3, #15
 8000dca:	4323      	orrs	r3, r4
 8000dcc:	025b      	lsls	r3, r3, #9
 8000dce:	0a5b      	lsrs	r3, r3, #9
 8000dd0:	22ff      	movs	r2, #255	; 0xff
 8000dd2:	e72c      	b.n	8000c2e <__aeabi_fmul+0xb6>
 8000dd4:	08010000 	.word	0x08010000
 8000dd8:	f7ffffff 	.word	0xf7ffffff

08000ddc <__aeabi_fsub>:
 8000ddc:	b5f8      	push	{r3, r4, r5, r6, r7, lr}
 8000dde:	4647      	mov	r7, r8
 8000de0:	46ce      	mov	lr, r9
 8000de2:	0044      	lsls	r4, r0, #1
 8000de4:	0fc2      	lsrs	r2, r0, #31
 8000de6:	b580      	push	{r7, lr}
 8000de8:	0247      	lsls	r7, r0, #9
 8000dea:	0248      	lsls	r0, r1, #9
 8000dec:	0a40      	lsrs	r0, r0, #9
 8000dee:	4684      	mov	ip, r0
 8000df0:	4666      	mov	r6, ip
 8000df2:	0048      	lsls	r0, r1, #1
 8000df4:	0a7f      	lsrs	r7, r7, #9
 8000df6:	0e24      	lsrs	r4, r4, #24
 8000df8:	00f6      	lsls	r6, r6, #3
 8000dfa:	0025      	movs	r5, r4
 8000dfc:	4690      	mov	r8, r2
 8000dfe:	00fb      	lsls	r3, r7, #3
 8000e00:	0e00      	lsrs	r0, r0, #24
 8000e02:	0fc9      	lsrs	r1, r1, #31
 8000e04:	46b1      	mov	r9, r6
 8000e06:	28ff      	cmp	r0, #255	; 0xff
 8000e08:	d100      	bne.n	8000e0c <__aeabi_fsub+0x30>
 8000e0a:	e085      	b.n	8000f18 <__aeabi_fsub+0x13c>
 8000e0c:	2601      	movs	r6, #1
 8000e0e:	4071      	eors	r1, r6
 8000e10:	1a26      	subs	r6, r4, r0
 8000e12:	4291      	cmp	r1, r2
 8000e14:	d057      	beq.n	8000ec6 <__aeabi_fsub+0xea>
 8000e16:	2e00      	cmp	r6, #0
 8000e18:	dd43      	ble.n	8000ea2 <__aeabi_fsub+0xc6>
 8000e1a:	2800      	cmp	r0, #0
 8000e1c:	d000      	beq.n	8000e20 <__aeabi_fsub+0x44>
 8000e1e:	e07f      	b.n	8000f20 <__aeabi_fsub+0x144>
 8000e20:	4649      	mov	r1, r9
 8000e22:	2900      	cmp	r1, #0
 8000e24:	d100      	bne.n	8000e28 <__aeabi_fsub+0x4c>
 8000e26:	e0aa      	b.n	8000f7e <__aeabi_fsub+0x1a2>
 8000e28:	3e01      	subs	r6, #1
 8000e2a:	2e00      	cmp	r6, #0
 8000e2c:	d000      	beq.n	8000e30 <__aeabi_fsub+0x54>
 8000e2e:	e0f7      	b.n	8001020 <__aeabi_fsub+0x244>
 8000e30:	1a5b      	subs	r3, r3, r1
 8000e32:	015a      	lsls	r2, r3, #5
 8000e34:	d400      	bmi.n	8000e38 <__aeabi_fsub+0x5c>
 8000e36:	e08b      	b.n	8000f50 <__aeabi_fsub+0x174>
 8000e38:	019b      	lsls	r3, r3, #6
 8000e3a:	099c      	lsrs	r4, r3, #6
 8000e3c:	0020      	movs	r0, r4
 8000e3e:	f001 ffc5 	bl	8002dcc <__clzsi2>
 8000e42:	3805      	subs	r0, #5
 8000e44:	4084      	lsls	r4, r0
 8000e46:	4285      	cmp	r5, r0
 8000e48:	dd00      	ble.n	8000e4c <__aeabi_fsub+0x70>
 8000e4a:	e0d3      	b.n	8000ff4 <__aeabi_fsub+0x218>
 8000e4c:	1b45      	subs	r5, r0, r5
 8000e4e:	0023      	movs	r3, r4
 8000e50:	2020      	movs	r0, #32
 8000e52:	3501      	adds	r5, #1
 8000e54:	40eb      	lsrs	r3, r5
 8000e56:	1b45      	subs	r5, r0, r5
 8000e58:	40ac      	lsls	r4, r5
 8000e5a:	1e62      	subs	r2, r4, #1
 8000e5c:	4194      	sbcs	r4, r2
 8000e5e:	4323      	orrs	r3, r4
 8000e60:	2407      	movs	r4, #7
 8000e62:	2500      	movs	r5, #0
 8000e64:	401c      	ands	r4, r3
 8000e66:	2201      	movs	r2, #1
 8000e68:	4641      	mov	r1, r8
 8000e6a:	400a      	ands	r2, r1
 8000e6c:	2c00      	cmp	r4, #0
 8000e6e:	d004      	beq.n	8000e7a <__aeabi_fsub+0x9e>
 8000e70:	210f      	movs	r1, #15
 8000e72:	4019      	ands	r1, r3
 8000e74:	2904      	cmp	r1, #4
 8000e76:	d000      	beq.n	8000e7a <__aeabi_fsub+0x9e>
 8000e78:	3304      	adds	r3, #4
 8000e7a:	0159      	lsls	r1, r3, #5
 8000e7c:	d400      	bmi.n	8000e80 <__aeabi_fsub+0xa4>
 8000e7e:	e080      	b.n	8000f82 <__aeabi_fsub+0x1a6>
 8000e80:	3501      	adds	r5, #1
 8000e82:	b2ec      	uxtb	r4, r5
 8000e84:	2dff      	cmp	r5, #255	; 0xff
 8000e86:	d000      	beq.n	8000e8a <__aeabi_fsub+0xae>
 8000e88:	e0a3      	b.n	8000fd2 <__aeabi_fsub+0x1f6>
 8000e8a:	24ff      	movs	r4, #255	; 0xff
 8000e8c:	2300      	movs	r3, #0
 8000e8e:	025b      	lsls	r3, r3, #9
 8000e90:	05e4      	lsls	r4, r4, #23
 8000e92:	0a58      	lsrs	r0, r3, #9
 8000e94:	07d2      	lsls	r2, r2, #31
 8000e96:	4320      	orrs	r0, r4
 8000e98:	4310      	orrs	r0, r2
 8000e9a:	bc0c      	pop	{r2, r3}
 8000e9c:	4690      	mov	r8, r2
 8000e9e:	4699      	mov	r9, r3
 8000ea0:	bdf8      	pop	{r3, r4, r5, r6, r7, pc}
 8000ea2:	2e00      	cmp	r6, #0
 8000ea4:	d174      	bne.n	8000f90 <__aeabi_fsub+0x1b4>
 8000ea6:	1c60      	adds	r0, r4, #1
 8000ea8:	b2c0      	uxtb	r0, r0
 8000eaa:	2801      	cmp	r0, #1
 8000eac:	dc00      	bgt.n	8000eb0 <__aeabi_fsub+0xd4>
 8000eae:	e0a7      	b.n	8001000 <__aeabi_fsub+0x224>
 8000eb0:	464a      	mov	r2, r9
 8000eb2:	1a9c      	subs	r4, r3, r2
 8000eb4:	0162      	lsls	r2, r4, #5
 8000eb6:	d500      	bpl.n	8000eba <__aeabi_fsub+0xde>
 8000eb8:	e0b6      	b.n	8001028 <__aeabi_fsub+0x24c>
 8000eba:	2c00      	cmp	r4, #0
 8000ebc:	d1be      	bne.n	8000e3c <__aeabi_fsub+0x60>
 8000ebe:	2200      	movs	r2, #0
 8000ec0:	2400      	movs	r4, #0
 8000ec2:	2300      	movs	r3, #0
 8000ec4:	e7e3      	b.n	8000e8e <__aeabi_fsub+0xb2>
 8000ec6:	2e00      	cmp	r6, #0
 8000ec8:	dc00      	bgt.n	8000ecc <__aeabi_fsub+0xf0>
 8000eca:	e085      	b.n	8000fd8 <__aeabi_fsub+0x1fc>
 8000ecc:	2800      	cmp	r0, #0
 8000ece:	d046      	beq.n	8000f5e <__aeabi_fsub+0x182>
 8000ed0:	2cff      	cmp	r4, #255	; 0xff
 8000ed2:	d049      	beq.n	8000f68 <__aeabi_fsub+0x18c>
 8000ed4:	2280      	movs	r2, #128	; 0x80
 8000ed6:	4648      	mov	r0, r9
 8000ed8:	04d2      	lsls	r2, r2, #19
 8000eda:	4310      	orrs	r0, r2
 8000edc:	4681      	mov	r9, r0
 8000ede:	2201      	movs	r2, #1
 8000ee0:	2e1b      	cmp	r6, #27
 8000ee2:	dc09      	bgt.n	8000ef8 <__aeabi_fsub+0x11c>
 8000ee4:	2020      	movs	r0, #32
 8000ee6:	464c      	mov	r4, r9
 8000ee8:	1b80      	subs	r0, r0, r6
 8000eea:	4084      	lsls	r4, r0
 8000eec:	464a      	mov	r2, r9
 8000eee:	0020      	movs	r0, r4
 8000ef0:	40f2      	lsrs	r2, r6
 8000ef2:	1e44      	subs	r4, r0, #1
 8000ef4:	41a0      	sbcs	r0, r4
 8000ef6:	4302      	orrs	r2, r0
 8000ef8:	189b      	adds	r3, r3, r2
 8000efa:	015a      	lsls	r2, r3, #5
 8000efc:	d528      	bpl.n	8000f50 <__aeabi_fsub+0x174>
 8000efe:	3501      	adds	r5, #1
 8000f00:	2dff      	cmp	r5, #255	; 0xff
 8000f02:	d100      	bne.n	8000f06 <__aeabi_fsub+0x12a>
 8000f04:	e0a8      	b.n	8001058 <__aeabi_fsub+0x27c>
 8000f06:	2201      	movs	r2, #1
 8000f08:	2407      	movs	r4, #7
 8000f0a:	4994      	ldr	r1, [pc, #592]	; (800115c <__aeabi_fsub+0x380>)
 8000f0c:	401a      	ands	r2, r3
 8000f0e:	085b      	lsrs	r3, r3, #1
 8000f10:	400b      	ands	r3, r1
 8000f12:	4313      	orrs	r3, r2
 8000f14:	401c      	ands	r4, r3
 8000f16:	e7a6      	b.n	8000e66 <__aeabi_fsub+0x8a>
 8000f18:	2e00      	cmp	r6, #0
 8000f1a:	d000      	beq.n	8000f1e <__aeabi_fsub+0x142>
 8000f1c:	e778      	b.n	8000e10 <__aeabi_fsub+0x34>
 8000f1e:	e775      	b.n	8000e0c <__aeabi_fsub+0x30>
 8000f20:	2cff      	cmp	r4, #255	; 0xff
 8000f22:	d054      	beq.n	8000fce <__aeabi_fsub+0x1f2>
 8000f24:	2280      	movs	r2, #128	; 0x80
 8000f26:	4649      	mov	r1, r9
 8000f28:	04d2      	lsls	r2, r2, #19
 8000f2a:	4311      	orrs	r1, r2
 8000f2c:	4689      	mov	r9, r1
 8000f2e:	2201      	movs	r2, #1
 8000f30:	2e1b      	cmp	r6, #27
 8000f32:	dc09      	bgt.n	8000f48 <__aeabi_fsub+0x16c>
 8000f34:	2120      	movs	r1, #32
 8000f36:	4648      	mov	r0, r9
 8000f38:	1b89      	subs	r1, r1, r6
 8000f3a:	4088      	lsls	r0, r1
 8000f3c:	464a      	mov	r2, r9
 8000f3e:	0001      	movs	r1, r0
 8000f40:	40f2      	lsrs	r2, r6
 8000f42:	1e48      	subs	r0, r1, #1
 8000f44:	4181      	sbcs	r1, r0
 8000f46:	430a      	orrs	r2, r1
 8000f48:	1a9b      	subs	r3, r3, r2
 8000f4a:	015a      	lsls	r2, r3, #5
 8000f4c:	d500      	bpl.n	8000f50 <__aeabi_fsub+0x174>
 8000f4e:	e773      	b.n	8000e38 <__aeabi_fsub+0x5c>
 8000f50:	2201      	movs	r2, #1
 8000f52:	4641      	mov	r1, r8
 8000f54:	400a      	ands	r2, r1
 8000f56:	0759      	lsls	r1, r3, #29
 8000f58:	d000      	beq.n	8000f5c <__aeabi_fsub+0x180>
 8000f5a:	e789      	b.n	8000e70 <__aeabi_fsub+0x94>
 8000f5c:	e011      	b.n	8000f82 <__aeabi_fsub+0x1a6>
 8000f5e:	4648      	mov	r0, r9
 8000f60:	2800      	cmp	r0, #0
 8000f62:	d158      	bne.n	8001016 <__aeabi_fsub+0x23a>
 8000f64:	2cff      	cmp	r4, #255	; 0xff
 8000f66:	d10c      	bne.n	8000f82 <__aeabi_fsub+0x1a6>
 8000f68:	08db      	lsrs	r3, r3, #3
 8000f6a:	2b00      	cmp	r3, #0
 8000f6c:	d100      	bne.n	8000f70 <__aeabi_fsub+0x194>
 8000f6e:	e78c      	b.n	8000e8a <__aeabi_fsub+0xae>
 8000f70:	2080      	movs	r0, #128	; 0x80
 8000f72:	03c0      	lsls	r0, r0, #15
 8000f74:	4303      	orrs	r3, r0
 8000f76:	025b      	lsls	r3, r3, #9
 8000f78:	0a5b      	lsrs	r3, r3, #9
 8000f7a:	24ff      	movs	r4, #255	; 0xff
 8000f7c:	e787      	b.n	8000e8e <__aeabi_fsub+0xb2>
 8000f7e:	2cff      	cmp	r4, #255	; 0xff
 8000f80:	d025      	beq.n	8000fce <__aeabi_fsub+0x1f2>
 8000f82:	08db      	lsrs	r3, r3, #3
 8000f84:	2dff      	cmp	r5, #255	; 0xff
 8000f86:	d0f0      	beq.n	8000f6a <__aeabi_fsub+0x18e>
 8000f88:	025b      	lsls	r3, r3, #9
 8000f8a:	0a5b      	lsrs	r3, r3, #9
 8000f8c:	b2ec      	uxtb	r4, r5
 8000f8e:	e77e      	b.n	8000e8e <__aeabi_fsub+0xb2>
 8000f90:	2c00      	cmp	r4, #0
 8000f92:	d04d      	beq.n	8001030 <__aeabi_fsub+0x254>
 8000f94:	28ff      	cmp	r0, #255	; 0xff
 8000f96:	d018      	beq.n	8000fca <__aeabi_fsub+0x1ee>
 8000f98:	2480      	movs	r4, #128	; 0x80
 8000f9a:	04e4      	lsls	r4, r4, #19
 8000f9c:	4272      	negs	r2, r6
 8000f9e:	4323      	orrs	r3, r4
 8000fa0:	2a1b      	cmp	r2, #27
 8000fa2:	dd00      	ble.n	8000fa6 <__aeabi_fsub+0x1ca>
 8000fa4:	e0c4      	b.n	8001130 <__aeabi_fsub+0x354>
 8000fa6:	001c      	movs	r4, r3
 8000fa8:	2520      	movs	r5, #32
 8000faa:	40d4      	lsrs	r4, r2
 8000fac:	1aaa      	subs	r2, r5, r2
 8000fae:	4093      	lsls	r3, r2
 8000fb0:	1e5a      	subs	r2, r3, #1
 8000fb2:	4193      	sbcs	r3, r2
 8000fb4:	4323      	orrs	r3, r4
 8000fb6:	464a      	mov	r2, r9
 8000fb8:	0005      	movs	r5, r0
 8000fba:	1ad3      	subs	r3, r2, r3
 8000fbc:	4688      	mov	r8, r1
 8000fbe:	e738      	b.n	8000e32 <__aeabi_fsub+0x56>
 8000fc0:	1c72      	adds	r2, r6, #1
 8000fc2:	d0f8      	beq.n	8000fb6 <__aeabi_fsub+0x1da>
 8000fc4:	43f2      	mvns	r2, r6
 8000fc6:	28ff      	cmp	r0, #255	; 0xff
 8000fc8:	d1ea      	bne.n	8000fa0 <__aeabi_fsub+0x1c4>
 8000fca:	000a      	movs	r2, r1
 8000fcc:	464b      	mov	r3, r9
 8000fce:	25ff      	movs	r5, #255	; 0xff
 8000fd0:	e7d7      	b.n	8000f82 <__aeabi_fsub+0x1a6>
 8000fd2:	019b      	lsls	r3, r3, #6
 8000fd4:	0a5b      	lsrs	r3, r3, #9
 8000fd6:	e75a      	b.n	8000e8e <__aeabi_fsub+0xb2>
 8000fd8:	2e00      	cmp	r6, #0
 8000fda:	d141      	bne.n	8001060 <__aeabi_fsub+0x284>
 8000fdc:	1c65      	adds	r5, r4, #1
 8000fde:	b2e9      	uxtb	r1, r5
 8000fe0:	2901      	cmp	r1, #1
 8000fe2:	dd45      	ble.n	8001070 <__aeabi_fsub+0x294>
 8000fe4:	2dff      	cmp	r5, #255	; 0xff
 8000fe6:	d100      	bne.n	8000fea <__aeabi_fsub+0x20e>
 8000fe8:	e74f      	b.n	8000e8a <__aeabi_fsub+0xae>
 8000fea:	2407      	movs	r4, #7
 8000fec:	444b      	add	r3, r9
 8000fee:	085b      	lsrs	r3, r3, #1
 8000ff0:	401c      	ands	r4, r3
 8000ff2:	e738      	b.n	8000e66 <__aeabi_fsub+0x8a>
 8000ff4:	2207      	movs	r2, #7
 8000ff6:	4b5a      	ldr	r3, [pc, #360]	; (8001160 <__aeabi_fsub+0x384>)
 8000ff8:	1a2d      	subs	r5, r5, r0
 8000ffa:	4023      	ands	r3, r4
 8000ffc:	4014      	ands	r4, r2
 8000ffe:	e732      	b.n	8000e66 <__aeabi_fsub+0x8a>
 8001000:	2c00      	cmp	r4, #0
 8001002:	d11d      	bne.n	8001040 <__aeabi_fsub+0x264>
 8001004:	2b00      	cmp	r3, #0
 8001006:	d17a      	bne.n	80010fe <__aeabi_fsub+0x322>
 8001008:	464b      	mov	r3, r9
 800100a:	2b00      	cmp	r3, #0
 800100c:	d100      	bne.n	8001010 <__aeabi_fsub+0x234>
 800100e:	e091      	b.n	8001134 <__aeabi_fsub+0x358>
 8001010:	000a      	movs	r2, r1
 8001012:	2500      	movs	r5, #0
 8001014:	e7b5      	b.n	8000f82 <__aeabi_fsub+0x1a6>
 8001016:	3e01      	subs	r6, #1
 8001018:	2e00      	cmp	r6, #0
 800101a:	d119      	bne.n	8001050 <__aeabi_fsub+0x274>
 800101c:	444b      	add	r3, r9
 800101e:	e76c      	b.n	8000efa <__aeabi_fsub+0x11e>
 8001020:	2cff      	cmp	r4, #255	; 0xff
 8001022:	d184      	bne.n	8000f2e <__aeabi_fsub+0x152>
 8001024:	25ff      	movs	r5, #255	; 0xff
 8001026:	e7ac      	b.n	8000f82 <__aeabi_fsub+0x1a6>
 8001028:	464a      	mov	r2, r9
 800102a:	4688      	mov	r8, r1
 800102c:	1ad4      	subs	r4, r2, r3
 800102e:	e705      	b.n	8000e3c <__aeabi_fsub+0x60>
 8001030:	2b00      	cmp	r3, #0
 8001032:	d1c5      	bne.n	8000fc0 <__aeabi_fsub+0x1e4>
 8001034:	000a      	movs	r2, r1
 8001036:	28ff      	cmp	r0, #255	; 0xff
 8001038:	d0c8      	beq.n	8000fcc <__aeabi_fsub+0x1f0>
 800103a:	0005      	movs	r5, r0
 800103c:	464b      	mov	r3, r9
 800103e:	e7a0      	b.n	8000f82 <__aeabi_fsub+0x1a6>
 8001040:	2b00      	cmp	r3, #0
 8001042:	d149      	bne.n	80010d8 <__aeabi_fsub+0x2fc>
 8001044:	464b      	mov	r3, r9
 8001046:	2b00      	cmp	r3, #0
 8001048:	d077      	beq.n	800113a <__aeabi_fsub+0x35e>
 800104a:	000a      	movs	r2, r1
 800104c:	25ff      	movs	r5, #255	; 0xff
 800104e:	e798      	b.n	8000f82 <__aeabi_fsub+0x1a6>
 8001050:	2cff      	cmp	r4, #255	; 0xff
 8001052:	d000      	beq.n	8001056 <__aeabi_fsub+0x27a>
 8001054:	e743      	b.n	8000ede <__aeabi_fsub+0x102>
 8001056:	e787      	b.n	8000f68 <__aeabi_fsub+0x18c>
 8001058:	000a      	movs	r2, r1
 800105a:	24ff      	movs	r4, #255	; 0xff
 800105c:	2300      	movs	r3, #0
 800105e:	e716      	b.n	8000e8e <__aeabi_fsub+0xb2>
 8001060:	2c00      	cmp	r4, #0
 8001062:	d115      	bne.n	8001090 <__aeabi_fsub+0x2b4>
 8001064:	2b00      	cmp	r3, #0
 8001066:	d157      	bne.n	8001118 <__aeabi_fsub+0x33c>
 8001068:	28ff      	cmp	r0, #255	; 0xff
 800106a:	d1e6      	bne.n	800103a <__aeabi_fsub+0x25e>
 800106c:	464b      	mov	r3, r9
 800106e:	e77b      	b.n	8000f68 <__aeabi_fsub+0x18c>
 8001070:	2c00      	cmp	r4, #0
 8001072:	d120      	bne.n	80010b6 <__aeabi_fsub+0x2da>
 8001074:	2b00      	cmp	r3, #0
 8001076:	d057      	beq.n	8001128 <__aeabi_fsub+0x34c>
 8001078:	4649      	mov	r1, r9
 800107a:	2900      	cmp	r1, #0
 800107c:	d053      	beq.n	8001126 <__aeabi_fsub+0x34a>
 800107e:	444b      	add	r3, r9
 8001080:	015a      	lsls	r2, r3, #5
 8001082:	d568      	bpl.n	8001156 <__aeabi_fsub+0x37a>
 8001084:	2407      	movs	r4, #7
 8001086:	4a36      	ldr	r2, [pc, #216]	; (8001160 <__aeabi_fsub+0x384>)
 8001088:	401c      	ands	r4, r3
 800108a:	2501      	movs	r5, #1
 800108c:	4013      	ands	r3, r2
 800108e:	e6ea      	b.n	8000e66 <__aeabi_fsub+0x8a>
 8001090:	28ff      	cmp	r0, #255	; 0xff
 8001092:	d0eb      	beq.n	800106c <__aeabi_fsub+0x290>
 8001094:	2280      	movs	r2, #128	; 0x80
 8001096:	04d2      	lsls	r2, r2, #19
 8001098:	4276      	negs	r6, r6
 800109a:	4313      	orrs	r3, r2
 800109c:	2e1b      	cmp	r6, #27
 800109e:	dc53      	bgt.n	8001148 <__aeabi_fsub+0x36c>
 80010a0:	2520      	movs	r5, #32
 80010a2:	1bad      	subs	r5, r5, r6
 80010a4:	001a      	movs	r2, r3
 80010a6:	40ab      	lsls	r3, r5
 80010a8:	40f2      	lsrs	r2, r6
 80010aa:	1e5c      	subs	r4, r3, #1
 80010ac:	41a3      	sbcs	r3, r4
 80010ae:	4313      	orrs	r3, r2
 80010b0:	444b      	add	r3, r9
 80010b2:	0005      	movs	r5, r0
 80010b4:	e721      	b.n	8000efa <__aeabi_fsub+0x11e>
 80010b6:	2b00      	cmp	r3, #0
 80010b8:	d0d8      	beq.n	800106c <__aeabi_fsub+0x290>
 80010ba:	4649      	mov	r1, r9
 80010bc:	2900      	cmp	r1, #0
 80010be:	d100      	bne.n	80010c2 <__aeabi_fsub+0x2e6>
 80010c0:	e752      	b.n	8000f68 <__aeabi_fsub+0x18c>
 80010c2:	2180      	movs	r1, #128	; 0x80
 80010c4:	03c9      	lsls	r1, r1, #15
 80010c6:	420f      	tst	r7, r1
 80010c8:	d100      	bne.n	80010cc <__aeabi_fsub+0x2f0>
 80010ca:	e74d      	b.n	8000f68 <__aeabi_fsub+0x18c>
 80010cc:	4660      	mov	r0, ip
 80010ce:	4208      	tst	r0, r1
 80010d0:	d000      	beq.n	80010d4 <__aeabi_fsub+0x2f8>
 80010d2:	e749      	b.n	8000f68 <__aeabi_fsub+0x18c>
 80010d4:	464b      	mov	r3, r9
 80010d6:	e747      	b.n	8000f68 <__aeabi_fsub+0x18c>
 80010d8:	4648      	mov	r0, r9
 80010da:	25ff      	movs	r5, #255	; 0xff
 80010dc:	2800      	cmp	r0, #0
 80010de:	d100      	bne.n	80010e2 <__aeabi_fsub+0x306>
 80010e0:	e74f      	b.n	8000f82 <__aeabi_fsub+0x1a6>
 80010e2:	2280      	movs	r2, #128	; 0x80
 80010e4:	03d2      	lsls	r2, r2, #15
 80010e6:	4217      	tst	r7, r2
 80010e8:	d004      	beq.n	80010f4 <__aeabi_fsub+0x318>
 80010ea:	4660      	mov	r0, ip
 80010ec:	4210      	tst	r0, r2
 80010ee:	d101      	bne.n	80010f4 <__aeabi_fsub+0x318>
 80010f0:	464b      	mov	r3, r9
 80010f2:	4688      	mov	r8, r1
 80010f4:	2201      	movs	r2, #1
 80010f6:	4641      	mov	r1, r8
 80010f8:	25ff      	movs	r5, #255	; 0xff
 80010fa:	400a      	ands	r2, r1
 80010fc:	e741      	b.n	8000f82 <__aeabi_fsub+0x1a6>
 80010fe:	4648      	mov	r0, r9
 8001100:	2800      	cmp	r0, #0
 8001102:	d01f      	beq.n	8001144 <__aeabi_fsub+0x368>
 8001104:	1a1a      	subs	r2, r3, r0
 8001106:	0150      	lsls	r0, r2, #5
 8001108:	d520      	bpl.n	800114c <__aeabi_fsub+0x370>
 800110a:	464a      	mov	r2, r9
 800110c:	2407      	movs	r4, #7
 800110e:	1ad3      	subs	r3, r2, r3
 8001110:	401c      	ands	r4, r3
 8001112:	4688      	mov	r8, r1
 8001114:	2500      	movs	r5, #0
 8001116:	e6a6      	b.n	8000e66 <__aeabi_fsub+0x8a>
 8001118:	1c74      	adds	r4, r6, #1
 800111a:	d0c9      	beq.n	80010b0 <__aeabi_fsub+0x2d4>
 800111c:	43f6      	mvns	r6, r6
 800111e:	28ff      	cmp	r0, #255	; 0xff
 8001120:	d1bc      	bne.n	800109c <__aeabi_fsub+0x2c0>
 8001122:	464b      	mov	r3, r9
 8001124:	e720      	b.n	8000f68 <__aeabi_fsub+0x18c>
 8001126:	4699      	mov	r9, r3
 8001128:	464b      	mov	r3, r9
 800112a:	2500      	movs	r5, #0
 800112c:	08db      	lsrs	r3, r3, #3
 800112e:	e72b      	b.n	8000f88 <__aeabi_fsub+0x1ac>
 8001130:	2301      	movs	r3, #1
 8001132:	e740      	b.n	8000fb6 <__aeabi_fsub+0x1da>
 8001134:	2200      	movs	r2, #0
 8001136:	2300      	movs	r3, #0
 8001138:	e6a9      	b.n	8000e8e <__aeabi_fsub+0xb2>
 800113a:	2380      	movs	r3, #128	; 0x80
 800113c:	2200      	movs	r2, #0
 800113e:	03db      	lsls	r3, r3, #15
 8001140:	24ff      	movs	r4, #255	; 0xff
 8001142:	e6a4      	b.n	8000e8e <__aeabi_fsub+0xb2>
 8001144:	2500      	movs	r5, #0
 8001146:	e71c      	b.n	8000f82 <__aeabi_fsub+0x1a6>
 8001148:	2301      	movs	r3, #1
 800114a:	e7b1      	b.n	80010b0 <__aeabi_fsub+0x2d4>
 800114c:	2a00      	cmp	r2, #0
 800114e:	d0f1      	beq.n	8001134 <__aeabi_fsub+0x358>
 8001150:	0013      	movs	r3, r2
 8001152:	2500      	movs	r5, #0
 8001154:	e6fc      	b.n	8000f50 <__aeabi_fsub+0x174>
 8001156:	2500      	movs	r5, #0
 8001158:	e6fa      	b.n	8000f50 <__aeabi_fsub+0x174>
 800115a:	46c0      	nop			; (mov r8, r8)
 800115c:	7dffffff 	.word	0x7dffffff
 8001160:	fbffffff 	.word	0xfbffffff

08001164 <__aeabi_f2iz>:
 8001164:	0241      	lsls	r1, r0, #9
 8001166:	0042      	lsls	r2, r0, #1
 8001168:	0fc3      	lsrs	r3, r0, #31
 800116a:	0a49      	lsrs	r1, r1, #9
 800116c:	0e12      	lsrs	r2, r2, #24
 800116e:	2000      	movs	r0, #0
 8001170:	2a7e      	cmp	r2, #126	; 0x7e
 8001172:	d90d      	bls.n	8001190 <__aeabi_f2iz+0x2c>
 8001174:	2a9d      	cmp	r2, #157	; 0x9d
 8001176:	d80c      	bhi.n	8001192 <__aeabi_f2iz+0x2e>
 8001178:	2080      	movs	r0, #128	; 0x80
 800117a:	0400      	lsls	r0, r0, #16
 800117c:	4301      	orrs	r1, r0
 800117e:	2a95      	cmp	r2, #149	; 0x95
 8001180:	dc0a      	bgt.n	8001198 <__aeabi_f2iz+0x34>
 8001182:	2096      	movs	r0, #150	; 0x96
 8001184:	1a82      	subs	r2, r0, r2
 8001186:	40d1      	lsrs	r1, r2
 8001188:	4248      	negs	r0, r1
 800118a:	2b00      	cmp	r3, #0
 800118c:	d100      	bne.n	8001190 <__aeabi_f2iz+0x2c>
 800118e:	0008      	movs	r0, r1
 8001190:	4770      	bx	lr
 8001192:	4a03      	ldr	r2, [pc, #12]	; (80011a0 <__aeabi_f2iz+0x3c>)
 8001194:	1898      	adds	r0, r3, r2
 8001196:	e7fb      	b.n	8001190 <__aeabi_f2iz+0x2c>
 8001198:	3a96      	subs	r2, #150	; 0x96
 800119a:	4091      	lsls	r1, r2
 800119c:	e7f4      	b.n	8001188 <__aeabi_f2iz+0x24>
 800119e:	46c0      	nop			; (mov r8, r8)
 80011a0:	7fffffff 	.word	0x7fffffff

080011a4 <__aeabi_ui2f>:
 80011a4:	b570      	push	{r4, r5, r6, lr}
 80011a6:	1e04      	subs	r4, r0, #0
 80011a8:	d034      	beq.n	8001214 <__aeabi_ui2f+0x70>
 80011aa:	f001 fe0f 	bl	8002dcc <__clzsi2>
 80011ae:	229e      	movs	r2, #158	; 0x9e
 80011b0:	1a12      	subs	r2, r2, r0
 80011b2:	2a96      	cmp	r2, #150	; 0x96
 80011b4:	dc07      	bgt.n	80011c6 <__aeabi_ui2f+0x22>
 80011b6:	b2d2      	uxtb	r2, r2
 80011b8:	2808      	cmp	r0, #8
 80011ba:	dd2e      	ble.n	800121a <__aeabi_ui2f+0x76>
 80011bc:	3808      	subs	r0, #8
 80011be:	4084      	lsls	r4, r0
 80011c0:	0260      	lsls	r0, r4, #9
 80011c2:	0a40      	lsrs	r0, r0, #9
 80011c4:	e021      	b.n	800120a <__aeabi_ui2f+0x66>
 80011c6:	2a99      	cmp	r2, #153	; 0x99
 80011c8:	dd09      	ble.n	80011de <__aeabi_ui2f+0x3a>
 80011ca:	0003      	movs	r3, r0
 80011cc:	0021      	movs	r1, r4
 80011ce:	331b      	adds	r3, #27
 80011d0:	4099      	lsls	r1, r3
 80011d2:	1e4b      	subs	r3, r1, #1
 80011d4:	4199      	sbcs	r1, r3
 80011d6:	2305      	movs	r3, #5
 80011d8:	1a1b      	subs	r3, r3, r0
 80011da:	40dc      	lsrs	r4, r3
 80011dc:	430c      	orrs	r4, r1
 80011de:	2805      	cmp	r0, #5
 80011e0:	dd01      	ble.n	80011e6 <__aeabi_ui2f+0x42>
 80011e2:	1f43      	subs	r3, r0, #5
 80011e4:	409c      	lsls	r4, r3
 80011e6:	0023      	movs	r3, r4
 80011e8:	490d      	ldr	r1, [pc, #52]	; (8001220 <__aeabi_ui2f+0x7c>)
 80011ea:	400b      	ands	r3, r1
 80011ec:	0765      	lsls	r5, r4, #29
 80011ee:	d009      	beq.n	8001204 <__aeabi_ui2f+0x60>
 80011f0:	250f      	movs	r5, #15
 80011f2:	402c      	ands	r4, r5
 80011f4:	2c04      	cmp	r4, #4
 80011f6:	d005      	beq.n	8001204 <__aeabi_ui2f+0x60>
 80011f8:	3304      	adds	r3, #4
 80011fa:	015c      	lsls	r4, r3, #5
 80011fc:	d502      	bpl.n	8001204 <__aeabi_ui2f+0x60>
 80011fe:	229f      	movs	r2, #159	; 0x9f
 8001200:	400b      	ands	r3, r1
 8001202:	1a12      	subs	r2, r2, r0
 8001204:	019b      	lsls	r3, r3, #6
 8001206:	0a58      	lsrs	r0, r3, #9
 8001208:	b2d2      	uxtb	r2, r2
 800120a:	0240      	lsls	r0, r0, #9
 800120c:	05d2      	lsls	r2, r2, #23
 800120e:	0a40      	lsrs	r0, r0, #9
 8001210:	4310      	orrs	r0, r2
 8001212:	bd70      	pop	{r4, r5, r6, pc}
 8001214:	2200      	movs	r2, #0
 8001216:	2000      	movs	r0, #0
 8001218:	e7f7      	b.n	800120a <__aeabi_ui2f+0x66>
 800121a:	0260      	lsls	r0, r4, #9
 800121c:	0a40      	lsrs	r0, r0, #9
 800121e:	e7f4      	b.n	800120a <__aeabi_ui2f+0x66>
 8001220:	fbffffff 	.word	0xfbffffff

08001224 <__aeabi_dadd>:
 8001224:	b5f0      	push	{r4, r5, r6, r7, lr}
 8001226:	464f      	mov	r7, r9
 8001228:	4646      	mov	r6, r8
 800122a:	46d6      	mov	lr, sl
 800122c:	000c      	movs	r4, r1
 800122e:	0309      	lsls	r1, r1, #12
 8001230:	b5c0      	push	{r6, r7, lr}
 8001232:	0a49      	lsrs	r1, r1, #9
 8001234:	0f47      	lsrs	r7, r0, #29
 8001236:	005e      	lsls	r6, r3, #1
 8001238:	4339      	orrs	r1, r7
 800123a:	031f      	lsls	r7, r3, #12
 800123c:	0fdb      	lsrs	r3, r3, #31
 800123e:	469c      	mov	ip, r3
 8001240:	0065      	lsls	r5, r4, #1
 8001242:	0a7b      	lsrs	r3, r7, #9
 8001244:	0f57      	lsrs	r7, r2, #29
 8001246:	431f      	orrs	r7, r3
 8001248:	0d6d      	lsrs	r5, r5, #21
 800124a:	0fe4      	lsrs	r4, r4, #31
 800124c:	0d76      	lsrs	r6, r6, #21
 800124e:	46a1      	mov	r9, r4
 8001250:	00c0      	lsls	r0, r0, #3
 8001252:	46b8      	mov	r8, r7
 8001254:	00d2      	lsls	r2, r2, #3
 8001256:	1bab      	subs	r3, r5, r6
 8001258:	4564      	cmp	r4, ip
 800125a:	d07b      	beq.n	8001354 <__aeabi_dadd+0x130>
 800125c:	2b00      	cmp	r3, #0
 800125e:	dd5f      	ble.n	8001320 <__aeabi_dadd+0xfc>
 8001260:	2e00      	cmp	r6, #0
 8001262:	d000      	beq.n	8001266 <__aeabi_dadd+0x42>
 8001264:	e0a4      	b.n	80013b0 <__aeabi_dadd+0x18c>
 8001266:	003e      	movs	r6, r7
 8001268:	4316      	orrs	r6, r2
 800126a:	d100      	bne.n	800126e <__aeabi_dadd+0x4a>
 800126c:	e112      	b.n	8001494 <__aeabi_dadd+0x270>
 800126e:	1e5e      	subs	r6, r3, #1
 8001270:	2e00      	cmp	r6, #0
 8001272:	d000      	beq.n	8001276 <__aeabi_dadd+0x52>
 8001274:	e19e      	b.n	80015b4 <__aeabi_dadd+0x390>
 8001276:	1a87      	subs	r7, r0, r2
 8001278:	4643      	mov	r3, r8
 800127a:	42b8      	cmp	r0, r7
 800127c:	4180      	sbcs	r0, r0
 800127e:	2501      	movs	r5, #1
 8001280:	1ac9      	subs	r1, r1, r3
 8001282:	4240      	negs	r0, r0
 8001284:	1a09      	subs	r1, r1, r0
 8001286:	020b      	lsls	r3, r1, #8
 8001288:	d400      	bmi.n	800128c <__aeabi_dadd+0x68>
 800128a:	e131      	b.n	80014f0 <__aeabi_dadd+0x2cc>
 800128c:	0249      	lsls	r1, r1, #9
 800128e:	0a4e      	lsrs	r6, r1, #9
 8001290:	2e00      	cmp	r6, #0
 8001292:	d100      	bne.n	8001296 <__aeabi_dadd+0x72>
 8001294:	e16e      	b.n	8001574 <__aeabi_dadd+0x350>
 8001296:	0030      	movs	r0, r6
 8001298:	f001 fd98 	bl	8002dcc <__clzsi2>
 800129c:	0003      	movs	r3, r0
 800129e:	3b08      	subs	r3, #8
 80012a0:	2b1f      	cmp	r3, #31
 80012a2:	dd00      	ble.n	80012a6 <__aeabi_dadd+0x82>
 80012a4:	e161      	b.n	800156a <__aeabi_dadd+0x346>
 80012a6:	2220      	movs	r2, #32
 80012a8:	0039      	movs	r1, r7
 80012aa:	1ad2      	subs	r2, r2, r3
 80012ac:	409e      	lsls	r6, r3
 80012ae:	40d1      	lsrs	r1, r2
 80012b0:	409f      	lsls	r7, r3
 80012b2:	430e      	orrs	r6, r1
 80012b4:	429d      	cmp	r5, r3
 80012b6:	dd00      	ble.n	80012ba <__aeabi_dadd+0x96>
 80012b8:	e151      	b.n	800155e <__aeabi_dadd+0x33a>
 80012ba:	1b5d      	subs	r5, r3, r5
 80012bc:	1c6b      	adds	r3, r5, #1
 80012be:	2b1f      	cmp	r3, #31
 80012c0:	dd00      	ble.n	80012c4 <__aeabi_dadd+0xa0>
 80012c2:	e17c      	b.n	80015be <__aeabi_dadd+0x39a>
 80012c4:	2120      	movs	r1, #32
 80012c6:	1ac9      	subs	r1, r1, r3
 80012c8:	003d      	movs	r5, r7
 80012ca:	0030      	movs	r0, r6
 80012cc:	408f      	lsls	r7, r1
 80012ce:	4088      	lsls	r0, r1
 80012d0:	40dd      	lsrs	r5, r3
 80012d2:	1e79      	subs	r1, r7, #1
 80012d4:	418f      	sbcs	r7, r1
 80012d6:	0031      	movs	r1, r6
 80012d8:	2207      	movs	r2, #7
 80012da:	4328      	orrs	r0, r5
 80012dc:	40d9      	lsrs	r1, r3
 80012de:	2500      	movs	r5, #0
 80012e0:	4307      	orrs	r7, r0
 80012e2:	403a      	ands	r2, r7
 80012e4:	2a00      	cmp	r2, #0
 80012e6:	d009      	beq.n	80012fc <__aeabi_dadd+0xd8>
 80012e8:	230f      	movs	r3, #15
 80012ea:	403b      	ands	r3, r7
 80012ec:	2b04      	cmp	r3, #4
 80012ee:	d005      	beq.n	80012fc <__aeabi_dadd+0xd8>
 80012f0:	1d3b      	adds	r3, r7, #4
 80012f2:	42bb      	cmp	r3, r7
 80012f4:	41bf      	sbcs	r7, r7
 80012f6:	427f      	negs	r7, r7
 80012f8:	19c9      	adds	r1, r1, r7
 80012fa:	001f      	movs	r7, r3
 80012fc:	020b      	lsls	r3, r1, #8
 80012fe:	d400      	bmi.n	8001302 <__aeabi_dadd+0xde>
 8001300:	e226      	b.n	8001750 <__aeabi_dadd+0x52c>
 8001302:	1c6a      	adds	r2, r5, #1
 8001304:	4bc6      	ldr	r3, [pc, #792]	; (8001620 <__aeabi_dadd+0x3fc>)
 8001306:	0555      	lsls	r5, r2, #21
 8001308:	0d6d      	lsrs	r5, r5, #21
 800130a:	429a      	cmp	r2, r3
 800130c:	d100      	bne.n	8001310 <__aeabi_dadd+0xec>
 800130e:	e106      	b.n	800151e <__aeabi_dadd+0x2fa>
 8001310:	4ac4      	ldr	r2, [pc, #784]	; (8001624 <__aeabi_dadd+0x400>)
 8001312:	08ff      	lsrs	r7, r7, #3
 8001314:	400a      	ands	r2, r1
 8001316:	0753      	lsls	r3, r2, #29
 8001318:	0252      	lsls	r2, r2, #9
 800131a:	433b      	orrs	r3, r7
 800131c:	0b12      	lsrs	r2, r2, #12
 800131e:	e08e      	b.n	800143e <__aeabi_dadd+0x21a>
 8001320:	2b00      	cmp	r3, #0
 8001322:	d000      	beq.n	8001326 <__aeabi_dadd+0x102>
 8001324:	e0b8      	b.n	8001498 <__aeabi_dadd+0x274>
 8001326:	1c6b      	adds	r3, r5, #1
 8001328:	055b      	lsls	r3, r3, #21
 800132a:	0d5b      	lsrs	r3, r3, #21
 800132c:	2b01      	cmp	r3, #1
 800132e:	dc00      	bgt.n	8001332 <__aeabi_dadd+0x10e>
 8001330:	e130      	b.n	8001594 <__aeabi_dadd+0x370>
 8001332:	1a87      	subs	r7, r0, r2
 8001334:	4643      	mov	r3, r8
 8001336:	42b8      	cmp	r0, r7
 8001338:	41b6      	sbcs	r6, r6
 800133a:	1acb      	subs	r3, r1, r3
 800133c:	4276      	negs	r6, r6
 800133e:	1b9e      	subs	r6, r3, r6
 8001340:	0233      	lsls	r3, r6, #8
 8001342:	d500      	bpl.n	8001346 <__aeabi_dadd+0x122>
 8001344:	e14c      	b.n	80015e0 <__aeabi_dadd+0x3bc>
 8001346:	003b      	movs	r3, r7
 8001348:	4333      	orrs	r3, r6
 800134a:	d1a1      	bne.n	8001290 <__aeabi_dadd+0x6c>
 800134c:	2200      	movs	r2, #0
 800134e:	2400      	movs	r4, #0
 8001350:	2500      	movs	r5, #0
 8001352:	e070      	b.n	8001436 <__aeabi_dadd+0x212>
 8001354:	2b00      	cmp	r3, #0
 8001356:	dc00      	bgt.n	800135a <__aeabi_dadd+0x136>
 8001358:	e0e5      	b.n	8001526 <__aeabi_dadd+0x302>
 800135a:	2e00      	cmp	r6, #0
 800135c:	d100      	bne.n	8001360 <__aeabi_dadd+0x13c>
 800135e:	e083      	b.n	8001468 <__aeabi_dadd+0x244>
 8001360:	4eaf      	ldr	r6, [pc, #700]	; (8001620 <__aeabi_dadd+0x3fc>)
 8001362:	42b5      	cmp	r5, r6
 8001364:	d060      	beq.n	8001428 <__aeabi_dadd+0x204>
 8001366:	2680      	movs	r6, #128	; 0x80
 8001368:	0436      	lsls	r6, r6, #16
 800136a:	4337      	orrs	r7, r6
 800136c:	46b8      	mov	r8, r7
 800136e:	2b38      	cmp	r3, #56	; 0x38
 8001370:	dc00      	bgt.n	8001374 <__aeabi_dadd+0x150>
 8001372:	e13e      	b.n	80015f2 <__aeabi_dadd+0x3ce>
 8001374:	4643      	mov	r3, r8
 8001376:	4313      	orrs	r3, r2
 8001378:	001f      	movs	r7, r3
 800137a:	1e7a      	subs	r2, r7, #1
 800137c:	4197      	sbcs	r7, r2
 800137e:	183f      	adds	r7, r7, r0
 8001380:	4287      	cmp	r7, r0
 8001382:	4180      	sbcs	r0, r0
 8001384:	4240      	negs	r0, r0
 8001386:	1809      	adds	r1, r1, r0
 8001388:	020b      	lsls	r3, r1, #8
 800138a:	d400      	bmi.n	800138e <__aeabi_dadd+0x16a>
 800138c:	e0b0      	b.n	80014f0 <__aeabi_dadd+0x2cc>
 800138e:	4ba4      	ldr	r3, [pc, #656]	; (8001620 <__aeabi_dadd+0x3fc>)
 8001390:	3501      	adds	r5, #1
 8001392:	429d      	cmp	r5, r3
 8001394:	d100      	bne.n	8001398 <__aeabi_dadd+0x174>
 8001396:	e0c3      	b.n	8001520 <__aeabi_dadd+0x2fc>
 8001398:	4aa2      	ldr	r2, [pc, #648]	; (8001624 <__aeabi_dadd+0x400>)
 800139a:	087b      	lsrs	r3, r7, #1
 800139c:	400a      	ands	r2, r1
 800139e:	2101      	movs	r1, #1
 80013a0:	400f      	ands	r7, r1
 80013a2:	431f      	orrs	r7, r3
 80013a4:	0851      	lsrs	r1, r2, #1
 80013a6:	07d3      	lsls	r3, r2, #31
 80013a8:	2207      	movs	r2, #7
 80013aa:	431f      	orrs	r7, r3
 80013ac:	403a      	ands	r2, r7
 80013ae:	e799      	b.n	80012e4 <__aeabi_dadd+0xc0>
 80013b0:	4e9b      	ldr	r6, [pc, #620]	; (8001620 <__aeabi_dadd+0x3fc>)
 80013b2:	42b5      	cmp	r5, r6
 80013b4:	d038      	beq.n	8001428 <__aeabi_dadd+0x204>
 80013b6:	2680      	movs	r6, #128	; 0x80
 80013b8:	0436      	lsls	r6, r6, #16
 80013ba:	4337      	orrs	r7, r6
 80013bc:	46b8      	mov	r8, r7
 80013be:	2b38      	cmp	r3, #56	; 0x38
 80013c0:	dd00      	ble.n	80013c4 <__aeabi_dadd+0x1a0>
 80013c2:	e0dc      	b.n	800157e <__aeabi_dadd+0x35a>
 80013c4:	2b1f      	cmp	r3, #31
 80013c6:	dc00      	bgt.n	80013ca <__aeabi_dadd+0x1a6>
 80013c8:	e130      	b.n	800162c <__aeabi_dadd+0x408>
 80013ca:	001e      	movs	r6, r3
 80013cc:	4647      	mov	r7, r8
 80013ce:	3e20      	subs	r6, #32
 80013d0:	40f7      	lsrs	r7, r6
 80013d2:	46bc      	mov	ip, r7
 80013d4:	2b20      	cmp	r3, #32
 80013d6:	d004      	beq.n	80013e2 <__aeabi_dadd+0x1be>
 80013d8:	2640      	movs	r6, #64	; 0x40
 80013da:	1af3      	subs	r3, r6, r3
 80013dc:	4646      	mov	r6, r8
 80013de:	409e      	lsls	r6, r3
 80013e0:	4332      	orrs	r2, r6
 80013e2:	0017      	movs	r7, r2
 80013e4:	4663      	mov	r3, ip
 80013e6:	1e7a      	subs	r2, r7, #1
 80013e8:	4197      	sbcs	r7, r2
 80013ea:	431f      	orrs	r7, r3
 80013ec:	e0cc      	b.n	8001588 <__aeabi_dadd+0x364>
 80013ee:	2b00      	cmp	r3, #0
 80013f0:	d100      	bne.n	80013f4 <__aeabi_dadd+0x1d0>
 80013f2:	e204      	b.n	80017fe <__aeabi_dadd+0x5da>
 80013f4:	4643      	mov	r3, r8
 80013f6:	4313      	orrs	r3, r2
 80013f8:	d100      	bne.n	80013fc <__aeabi_dadd+0x1d8>
 80013fa:	e159      	b.n	80016b0 <__aeabi_dadd+0x48c>
 80013fc:	074b      	lsls	r3, r1, #29
 80013fe:	08c0      	lsrs	r0, r0, #3
 8001400:	4318      	orrs	r0, r3
 8001402:	2380      	movs	r3, #128	; 0x80
 8001404:	08c9      	lsrs	r1, r1, #3
 8001406:	031b      	lsls	r3, r3, #12
 8001408:	4219      	tst	r1, r3
 800140a:	d008      	beq.n	800141e <__aeabi_dadd+0x1fa>
 800140c:	4645      	mov	r5, r8
 800140e:	08ed      	lsrs	r5, r5, #3
 8001410:	421d      	tst	r5, r3
 8001412:	d104      	bne.n	800141e <__aeabi_dadd+0x1fa>
 8001414:	4643      	mov	r3, r8
 8001416:	08d0      	lsrs	r0, r2, #3
 8001418:	0759      	lsls	r1, r3, #29
 800141a:	4308      	orrs	r0, r1
 800141c:	0029      	movs	r1, r5
 800141e:	0f42      	lsrs	r2, r0, #29
 8001420:	00c9      	lsls	r1, r1, #3
 8001422:	4d7f      	ldr	r5, [pc, #508]	; (8001620 <__aeabi_dadd+0x3fc>)
 8001424:	4311      	orrs	r1, r2
 8001426:	00c0      	lsls	r0, r0, #3
 8001428:	074b      	lsls	r3, r1, #29
 800142a:	08ca      	lsrs	r2, r1, #3
 800142c:	497c      	ldr	r1, [pc, #496]	; (8001620 <__aeabi_dadd+0x3fc>)
 800142e:	08c0      	lsrs	r0, r0, #3
 8001430:	4303      	orrs	r3, r0
 8001432:	428d      	cmp	r5, r1
 8001434:	d068      	beq.n	8001508 <__aeabi_dadd+0x2e4>
 8001436:	0312      	lsls	r2, r2, #12
 8001438:	056d      	lsls	r5, r5, #21
 800143a:	0b12      	lsrs	r2, r2, #12
 800143c:	0d6d      	lsrs	r5, r5, #21
 800143e:	2100      	movs	r1, #0
 8001440:	0312      	lsls	r2, r2, #12
 8001442:	0018      	movs	r0, r3
 8001444:	0b13      	lsrs	r3, r2, #12
 8001446:	0d0a      	lsrs	r2, r1, #20
 8001448:	0512      	lsls	r2, r2, #20
 800144a:	431a      	orrs	r2, r3
 800144c:	4b76      	ldr	r3, [pc, #472]	; (8001628 <__aeabi_dadd+0x404>)
 800144e:	052d      	lsls	r5, r5, #20
 8001450:	4013      	ands	r3, r2
 8001452:	432b      	orrs	r3, r5
 8001454:	005b      	lsls	r3, r3, #1
 8001456:	07e4      	lsls	r4, r4, #31
 8001458:	085b      	lsrs	r3, r3, #1
 800145a:	4323      	orrs	r3, r4
 800145c:	0019      	movs	r1, r3
 800145e:	bc1c      	pop	{r2, r3, r4}
 8001460:	4690      	mov	r8, r2
 8001462:	4699      	mov	r9, r3
 8001464:	46a2      	mov	sl, r4
 8001466:	bdf0      	pop	{r4, r5, r6, r7, pc}
 8001468:	003e      	movs	r6, r7
 800146a:	4316      	orrs	r6, r2
 800146c:	d012      	beq.n	8001494 <__aeabi_dadd+0x270>
 800146e:	1e5e      	subs	r6, r3, #1
 8001470:	2e00      	cmp	r6, #0
 8001472:	d000      	beq.n	8001476 <__aeabi_dadd+0x252>
 8001474:	e100      	b.n	8001678 <__aeabi_dadd+0x454>
 8001476:	1887      	adds	r7, r0, r2
 8001478:	4287      	cmp	r7, r0
 800147a:	4180      	sbcs	r0, r0
 800147c:	4441      	add	r1, r8
 800147e:	4240      	negs	r0, r0
 8001480:	1809      	adds	r1, r1, r0
 8001482:	2501      	movs	r5, #1
 8001484:	020b      	lsls	r3, r1, #8
 8001486:	d533      	bpl.n	80014f0 <__aeabi_dadd+0x2cc>
 8001488:	2502      	movs	r5, #2
 800148a:	e785      	b.n	8001398 <__aeabi_dadd+0x174>
 800148c:	4664      	mov	r4, ip
 800148e:	0033      	movs	r3, r6
 8001490:	4641      	mov	r1, r8
 8001492:	0010      	movs	r0, r2
 8001494:	001d      	movs	r5, r3
 8001496:	e7c7      	b.n	8001428 <__aeabi_dadd+0x204>
 8001498:	2d00      	cmp	r5, #0
 800149a:	d000      	beq.n	800149e <__aeabi_dadd+0x27a>
 800149c:	e0da      	b.n	8001654 <__aeabi_dadd+0x430>
 800149e:	000c      	movs	r4, r1
 80014a0:	4304      	orrs	r4, r0
 80014a2:	d0f3      	beq.n	800148c <__aeabi_dadd+0x268>
 80014a4:	1c5c      	adds	r4, r3, #1
 80014a6:	d100      	bne.n	80014aa <__aeabi_dadd+0x286>
 80014a8:	e19f      	b.n	80017ea <__aeabi_dadd+0x5c6>
 80014aa:	4c5d      	ldr	r4, [pc, #372]	; (8001620 <__aeabi_dadd+0x3fc>)
 80014ac:	42a6      	cmp	r6, r4
 80014ae:	d100      	bne.n	80014b2 <__aeabi_dadd+0x28e>
 80014b0:	e12f      	b.n	8001712 <__aeabi_dadd+0x4ee>
 80014b2:	43db      	mvns	r3, r3
 80014b4:	2b38      	cmp	r3, #56	; 0x38
 80014b6:	dd00      	ble.n	80014ba <__aeabi_dadd+0x296>
 80014b8:	e166      	b.n	8001788 <__aeabi_dadd+0x564>
 80014ba:	2b1f      	cmp	r3, #31
 80014bc:	dd00      	ble.n	80014c0 <__aeabi_dadd+0x29c>
 80014be:	e183      	b.n	80017c8 <__aeabi_dadd+0x5a4>
 80014c0:	2420      	movs	r4, #32
 80014c2:	0005      	movs	r5, r0
 80014c4:	1ae4      	subs	r4, r4, r3
 80014c6:	000f      	movs	r7, r1
 80014c8:	40dd      	lsrs	r5, r3
 80014ca:	40d9      	lsrs	r1, r3
 80014cc:	40a0      	lsls	r0, r4
 80014ce:	4643      	mov	r3, r8
 80014d0:	40a7      	lsls	r7, r4
 80014d2:	1a5b      	subs	r3, r3, r1
 80014d4:	1e44      	subs	r4, r0, #1
 80014d6:	41a0      	sbcs	r0, r4
 80014d8:	4698      	mov	r8, r3
 80014da:	432f      	orrs	r7, r5
 80014dc:	4338      	orrs	r0, r7
 80014de:	1a17      	subs	r7, r2, r0
 80014e0:	42ba      	cmp	r2, r7
 80014e2:	4192      	sbcs	r2, r2
 80014e4:	4643      	mov	r3, r8
 80014e6:	4252      	negs	r2, r2
 80014e8:	1a99      	subs	r1, r3, r2
 80014ea:	4664      	mov	r4, ip
 80014ec:	0035      	movs	r5, r6
 80014ee:	e6ca      	b.n	8001286 <__aeabi_dadd+0x62>
 80014f0:	2207      	movs	r2, #7
 80014f2:	403a      	ands	r2, r7
 80014f4:	2a00      	cmp	r2, #0
 80014f6:	d000      	beq.n	80014fa <__aeabi_dadd+0x2d6>
 80014f8:	e6f6      	b.n	80012e8 <__aeabi_dadd+0xc4>
 80014fa:	074b      	lsls	r3, r1, #29
 80014fc:	08ca      	lsrs	r2, r1, #3
 80014fe:	4948      	ldr	r1, [pc, #288]	; (8001620 <__aeabi_dadd+0x3fc>)
 8001500:	08ff      	lsrs	r7, r7, #3
 8001502:	433b      	orrs	r3, r7
 8001504:	428d      	cmp	r5, r1
 8001506:	d196      	bne.n	8001436 <__aeabi_dadd+0x212>
 8001508:	0019      	movs	r1, r3
 800150a:	4311      	orrs	r1, r2
 800150c:	d100      	bne.n	8001510 <__aeabi_dadd+0x2ec>
 800150e:	e19e      	b.n	800184e <__aeabi_dadd+0x62a>
 8001510:	2180      	movs	r1, #128	; 0x80
 8001512:	0309      	lsls	r1, r1, #12
 8001514:	430a      	orrs	r2, r1
 8001516:	0312      	lsls	r2, r2, #12
 8001518:	0b12      	lsrs	r2, r2, #12
 800151a:	4d41      	ldr	r5, [pc, #260]	; (8001620 <__aeabi_dadd+0x3fc>)
 800151c:	e78f      	b.n	800143e <__aeabi_dadd+0x21a>
 800151e:	0015      	movs	r5, r2
 8001520:	2200      	movs	r2, #0
 8001522:	2300      	movs	r3, #0
 8001524:	e78b      	b.n	800143e <__aeabi_dadd+0x21a>
 8001526:	2b00      	cmp	r3, #0
 8001528:	d000      	beq.n	800152c <__aeabi_dadd+0x308>
 800152a:	e0c7      	b.n	80016bc <__aeabi_dadd+0x498>
 800152c:	1c6b      	adds	r3, r5, #1
 800152e:	055f      	lsls	r7, r3, #21
 8001530:	0d7f      	lsrs	r7, r7, #21
 8001532:	2f01      	cmp	r7, #1
 8001534:	dc00      	bgt.n	8001538 <__aeabi_dadd+0x314>
 8001536:	e0f1      	b.n	800171c <__aeabi_dadd+0x4f8>
 8001538:	4d39      	ldr	r5, [pc, #228]	; (8001620 <__aeabi_dadd+0x3fc>)
 800153a:	42ab      	cmp	r3, r5
 800153c:	d100      	bne.n	8001540 <__aeabi_dadd+0x31c>
 800153e:	e0b9      	b.n	80016b4 <__aeabi_dadd+0x490>
 8001540:	1885      	adds	r5, r0, r2
 8001542:	000a      	movs	r2, r1
 8001544:	4285      	cmp	r5, r0
 8001546:	4189      	sbcs	r1, r1
 8001548:	4442      	add	r2, r8
 800154a:	4249      	negs	r1, r1
 800154c:	1851      	adds	r1, r2, r1
 800154e:	2207      	movs	r2, #7
 8001550:	07cf      	lsls	r7, r1, #31
 8001552:	086d      	lsrs	r5, r5, #1
 8001554:	432f      	orrs	r7, r5
 8001556:	0849      	lsrs	r1, r1, #1
 8001558:	403a      	ands	r2, r7
 800155a:	001d      	movs	r5, r3
 800155c:	e6c2      	b.n	80012e4 <__aeabi_dadd+0xc0>
 800155e:	2207      	movs	r2, #7
 8001560:	4930      	ldr	r1, [pc, #192]	; (8001624 <__aeabi_dadd+0x400>)
 8001562:	1aed      	subs	r5, r5, r3
 8001564:	4031      	ands	r1, r6
 8001566:	403a      	ands	r2, r7
 8001568:	e6bc      	b.n	80012e4 <__aeabi_dadd+0xc0>
 800156a:	003e      	movs	r6, r7
 800156c:	3828      	subs	r0, #40	; 0x28
 800156e:	4086      	lsls	r6, r0
 8001570:	2700      	movs	r7, #0
 8001572:	e69f      	b.n	80012b4 <__aeabi_dadd+0x90>
 8001574:	0038      	movs	r0, r7
 8001576:	f001 fc29 	bl	8002dcc <__clzsi2>
 800157a:	3020      	adds	r0, #32
 800157c:	e68e      	b.n	800129c <__aeabi_dadd+0x78>
 800157e:	4643      	mov	r3, r8
 8001580:	4313      	orrs	r3, r2
 8001582:	001f      	movs	r7, r3
 8001584:	1e7a      	subs	r2, r7, #1
 8001586:	4197      	sbcs	r7, r2
 8001588:	1bc7      	subs	r7, r0, r7
 800158a:	42b8      	cmp	r0, r7
 800158c:	4180      	sbcs	r0, r0
 800158e:	4240      	negs	r0, r0
 8001590:	1a09      	subs	r1, r1, r0
 8001592:	e678      	b.n	8001286 <__aeabi_dadd+0x62>
 8001594:	000e      	movs	r6, r1
 8001596:	003b      	movs	r3, r7
 8001598:	4306      	orrs	r6, r0
 800159a:	4313      	orrs	r3, r2
 800159c:	2d00      	cmp	r5, #0
 800159e:	d161      	bne.n	8001664 <__aeabi_dadd+0x440>
 80015a0:	2e00      	cmp	r6, #0
 80015a2:	d000      	beq.n	80015a6 <__aeabi_dadd+0x382>
 80015a4:	e0f4      	b.n	8001790 <__aeabi_dadd+0x56c>
 80015a6:	2b00      	cmp	r3, #0
 80015a8:	d100      	bne.n	80015ac <__aeabi_dadd+0x388>
 80015aa:	e11b      	b.n	80017e4 <__aeabi_dadd+0x5c0>
 80015ac:	4664      	mov	r4, ip
 80015ae:	0039      	movs	r1, r7
 80015b0:	0010      	movs	r0, r2
 80015b2:	e739      	b.n	8001428 <__aeabi_dadd+0x204>
 80015b4:	4f1a      	ldr	r7, [pc, #104]	; (8001620 <__aeabi_dadd+0x3fc>)
 80015b6:	42bb      	cmp	r3, r7
 80015b8:	d07a      	beq.n	80016b0 <__aeabi_dadd+0x48c>
 80015ba:	0033      	movs	r3, r6
 80015bc:	e6ff      	b.n	80013be <__aeabi_dadd+0x19a>
 80015be:	0030      	movs	r0, r6
 80015c0:	3d1f      	subs	r5, #31
 80015c2:	40e8      	lsrs	r0, r5
 80015c4:	2b20      	cmp	r3, #32
 80015c6:	d003      	beq.n	80015d0 <__aeabi_dadd+0x3ac>
 80015c8:	2140      	movs	r1, #64	; 0x40
 80015ca:	1acb      	subs	r3, r1, r3
 80015cc:	409e      	lsls	r6, r3
 80015ce:	4337      	orrs	r7, r6
 80015d0:	1e7b      	subs	r3, r7, #1
 80015d2:	419f      	sbcs	r7, r3
 80015d4:	2207      	movs	r2, #7
 80015d6:	4307      	orrs	r7, r0
 80015d8:	403a      	ands	r2, r7
 80015da:	2100      	movs	r1, #0
 80015dc:	2500      	movs	r5, #0
 80015de:	e789      	b.n	80014f4 <__aeabi_dadd+0x2d0>
 80015e0:	1a17      	subs	r7, r2, r0
 80015e2:	4643      	mov	r3, r8
 80015e4:	42ba      	cmp	r2, r7
 80015e6:	41b6      	sbcs	r6, r6
 80015e8:	1a59      	subs	r1, r3, r1
 80015ea:	4276      	negs	r6, r6
 80015ec:	1b8e      	subs	r6, r1, r6
 80015ee:	4664      	mov	r4, ip
 80015f0:	e64e      	b.n	8001290 <__aeabi_dadd+0x6c>
 80015f2:	2b1f      	cmp	r3, #31
 80015f4:	dd00      	ble.n	80015f8 <__aeabi_dadd+0x3d4>
 80015f6:	e0ad      	b.n	8001754 <__aeabi_dadd+0x530>
 80015f8:	2620      	movs	r6, #32
 80015fa:	4647      	mov	r7, r8
 80015fc:	1af6      	subs	r6, r6, r3
 80015fe:	40b7      	lsls	r7, r6
 8001600:	46b9      	mov	r9, r7
 8001602:	0017      	movs	r7, r2
 8001604:	46b2      	mov	sl, r6
 8001606:	40df      	lsrs	r7, r3
 8001608:	464e      	mov	r6, r9
 800160a:	433e      	orrs	r6, r7
 800160c:	0037      	movs	r7, r6
 800160e:	4656      	mov	r6, sl
 8001610:	40b2      	lsls	r2, r6
 8001612:	1e56      	subs	r6, r2, #1
 8001614:	41b2      	sbcs	r2, r6
 8001616:	4317      	orrs	r7, r2
 8001618:	4642      	mov	r2, r8
 800161a:	40da      	lsrs	r2, r3
 800161c:	1889      	adds	r1, r1, r2
 800161e:	e6ae      	b.n	800137e <__aeabi_dadd+0x15a>
 8001620:	000007ff 	.word	0x000007ff
 8001624:	ff7fffff 	.word	0xff7fffff
 8001628:	800fffff 	.word	0x800fffff
 800162c:	2620      	movs	r6, #32
 800162e:	4647      	mov	r7, r8
 8001630:	1af6      	subs	r6, r6, r3
 8001632:	40b7      	lsls	r7, r6
 8001634:	46b9      	mov	r9, r7
 8001636:	0017      	movs	r7, r2
 8001638:	46b2      	mov	sl, r6
 800163a:	40df      	lsrs	r7, r3
 800163c:	464e      	mov	r6, r9
 800163e:	433e      	orrs	r6, r7
 8001640:	0037      	movs	r7, r6
 8001642:	4656      	mov	r6, sl
 8001644:	40b2      	lsls	r2, r6
 8001646:	1e56      	subs	r6, r2, #1
 8001648:	41b2      	sbcs	r2, r6
 800164a:	4317      	orrs	r7, r2
 800164c:	4642      	mov	r2, r8
 800164e:	40da      	lsrs	r2, r3
 8001650:	1a89      	subs	r1, r1, r2
 8001652:	e799      	b.n	8001588 <__aeabi_dadd+0x364>
 8001654:	4c7f      	ldr	r4, [pc, #508]	; (8001854 <__aeabi_dadd+0x630>)
 8001656:	42a6      	cmp	r6, r4
 8001658:	d05b      	beq.n	8001712 <__aeabi_dadd+0x4ee>
 800165a:	2480      	movs	r4, #128	; 0x80
 800165c:	0424      	lsls	r4, r4, #16
 800165e:	425b      	negs	r3, r3
 8001660:	4321      	orrs	r1, r4
 8001662:	e727      	b.n	80014b4 <__aeabi_dadd+0x290>
 8001664:	2e00      	cmp	r6, #0
 8001666:	d10c      	bne.n	8001682 <__aeabi_dadd+0x45e>
 8001668:	2b00      	cmp	r3, #0
 800166a:	d100      	bne.n	800166e <__aeabi_dadd+0x44a>
 800166c:	e0cb      	b.n	8001806 <__aeabi_dadd+0x5e2>
 800166e:	4664      	mov	r4, ip
 8001670:	0039      	movs	r1, r7
 8001672:	0010      	movs	r0, r2
 8001674:	4d77      	ldr	r5, [pc, #476]	; (8001854 <__aeabi_dadd+0x630>)
 8001676:	e6d7      	b.n	8001428 <__aeabi_dadd+0x204>
 8001678:	4f76      	ldr	r7, [pc, #472]	; (8001854 <__aeabi_dadd+0x630>)
 800167a:	42bb      	cmp	r3, r7
 800167c:	d018      	beq.n	80016b0 <__aeabi_dadd+0x48c>
 800167e:	0033      	movs	r3, r6
 8001680:	e675      	b.n	800136e <__aeabi_dadd+0x14a>
 8001682:	2b00      	cmp	r3, #0
 8001684:	d014      	beq.n	80016b0 <__aeabi_dadd+0x48c>
 8001686:	074b      	lsls	r3, r1, #29
 8001688:	08c0      	lsrs	r0, r0, #3
 800168a:	4318      	orrs	r0, r3
 800168c:	2380      	movs	r3, #128	; 0x80
 800168e:	08c9      	lsrs	r1, r1, #3
 8001690:	031b      	lsls	r3, r3, #12
 8001692:	4219      	tst	r1, r3
 8001694:	d007      	beq.n	80016a6 <__aeabi_dadd+0x482>
 8001696:	08fc      	lsrs	r4, r7, #3
 8001698:	421c      	tst	r4, r3
 800169a:	d104      	bne.n	80016a6 <__aeabi_dadd+0x482>
 800169c:	0779      	lsls	r1, r7, #29
 800169e:	08d0      	lsrs	r0, r2, #3
 80016a0:	4308      	orrs	r0, r1
 80016a2:	46e1      	mov	r9, ip
 80016a4:	0021      	movs	r1, r4
 80016a6:	464c      	mov	r4, r9
 80016a8:	0f42      	lsrs	r2, r0, #29
 80016aa:	00c9      	lsls	r1, r1, #3
 80016ac:	4311      	orrs	r1, r2
 80016ae:	00c0      	lsls	r0, r0, #3
 80016b0:	4d68      	ldr	r5, [pc, #416]	; (8001854 <__aeabi_dadd+0x630>)
 80016b2:	e6b9      	b.n	8001428 <__aeabi_dadd+0x204>
 80016b4:	001d      	movs	r5, r3
 80016b6:	2200      	movs	r2, #0
 80016b8:	2300      	movs	r3, #0
 80016ba:	e6c0      	b.n	800143e <__aeabi_dadd+0x21a>
 80016bc:	2d00      	cmp	r5, #0
 80016be:	d15b      	bne.n	8001778 <__aeabi_dadd+0x554>
 80016c0:	000d      	movs	r5, r1
 80016c2:	4305      	orrs	r5, r0
 80016c4:	d100      	bne.n	80016c8 <__aeabi_dadd+0x4a4>
 80016c6:	e6e2      	b.n	800148e <__aeabi_dadd+0x26a>
 80016c8:	1c5d      	adds	r5, r3, #1
 80016ca:	d100      	bne.n	80016ce <__aeabi_dadd+0x4aa>
 80016cc:	e0b0      	b.n	8001830 <__aeabi_dadd+0x60c>
 80016ce:	4d61      	ldr	r5, [pc, #388]	; (8001854 <__aeabi_dadd+0x630>)
 80016d0:	42ae      	cmp	r6, r5
 80016d2:	d01f      	beq.n	8001714 <__aeabi_dadd+0x4f0>
 80016d4:	43db      	mvns	r3, r3
 80016d6:	2b38      	cmp	r3, #56	; 0x38
 80016d8:	dc71      	bgt.n	80017be <__aeabi_dadd+0x59a>
 80016da:	2b1f      	cmp	r3, #31
 80016dc:	dd00      	ble.n	80016e0 <__aeabi_dadd+0x4bc>
 80016de:	e096      	b.n	800180e <__aeabi_dadd+0x5ea>
 80016e0:	2520      	movs	r5, #32
 80016e2:	000f      	movs	r7, r1
 80016e4:	1aed      	subs	r5, r5, r3
 80016e6:	40af      	lsls	r7, r5
 80016e8:	46b9      	mov	r9, r7
 80016ea:	0007      	movs	r7, r0
 80016ec:	46aa      	mov	sl, r5
 80016ee:	40df      	lsrs	r7, r3
 80016f0:	464d      	mov	r5, r9
 80016f2:	433d      	orrs	r5, r7
 80016f4:	002f      	movs	r7, r5
 80016f6:	4655      	mov	r5, sl
 80016f8:	40a8      	lsls	r0, r5
 80016fa:	40d9      	lsrs	r1, r3
 80016fc:	1e45      	subs	r5, r0, #1
 80016fe:	41a8      	sbcs	r0, r5
 8001700:	4488      	add	r8, r1
 8001702:	4307      	orrs	r7, r0
 8001704:	18bf      	adds	r7, r7, r2
 8001706:	4297      	cmp	r7, r2
 8001708:	4192      	sbcs	r2, r2
 800170a:	4251      	negs	r1, r2
 800170c:	4441      	add	r1, r8
 800170e:	0035      	movs	r5, r6
 8001710:	e63a      	b.n	8001388 <__aeabi_dadd+0x164>
 8001712:	4664      	mov	r4, ip
 8001714:	0035      	movs	r5, r6
 8001716:	4641      	mov	r1, r8
 8001718:	0010      	movs	r0, r2
 800171a:	e685      	b.n	8001428 <__aeabi_dadd+0x204>
 800171c:	000b      	movs	r3, r1
 800171e:	4303      	orrs	r3, r0
 8001720:	2d00      	cmp	r5, #0
 8001722:	d000      	beq.n	8001726 <__aeabi_dadd+0x502>
 8001724:	e663      	b.n	80013ee <__aeabi_dadd+0x1ca>
 8001726:	2b00      	cmp	r3, #0
 8001728:	d0f5      	beq.n	8001716 <__aeabi_dadd+0x4f2>
 800172a:	4643      	mov	r3, r8
 800172c:	4313      	orrs	r3, r2
 800172e:	d100      	bne.n	8001732 <__aeabi_dadd+0x50e>
 8001730:	e67a      	b.n	8001428 <__aeabi_dadd+0x204>
 8001732:	1887      	adds	r7, r0, r2
 8001734:	4287      	cmp	r7, r0
 8001736:	4180      	sbcs	r0, r0
 8001738:	2207      	movs	r2, #7
 800173a:	4441      	add	r1, r8
 800173c:	4240      	negs	r0, r0
 800173e:	1809      	adds	r1, r1, r0
 8001740:	403a      	ands	r2, r7
 8001742:	020b      	lsls	r3, r1, #8
 8001744:	d400      	bmi.n	8001748 <__aeabi_dadd+0x524>
 8001746:	e6d5      	b.n	80014f4 <__aeabi_dadd+0x2d0>
 8001748:	4b43      	ldr	r3, [pc, #268]	; (8001858 <__aeabi_dadd+0x634>)
 800174a:	3501      	adds	r5, #1
 800174c:	4019      	ands	r1, r3
 800174e:	e5c9      	b.n	80012e4 <__aeabi_dadd+0xc0>
 8001750:	0038      	movs	r0, r7
 8001752:	e669      	b.n	8001428 <__aeabi_dadd+0x204>
 8001754:	001e      	movs	r6, r3
 8001756:	4647      	mov	r7, r8
 8001758:	3e20      	subs	r6, #32
 800175a:	40f7      	lsrs	r7, r6
 800175c:	46bc      	mov	ip, r7
 800175e:	2b20      	cmp	r3, #32
 8001760:	d004      	beq.n	800176c <__aeabi_dadd+0x548>
 8001762:	2640      	movs	r6, #64	; 0x40
 8001764:	1af3      	subs	r3, r6, r3
 8001766:	4646      	mov	r6, r8
 8001768:	409e      	lsls	r6, r3
 800176a:	4332      	orrs	r2, r6
 800176c:	0017      	movs	r7, r2
 800176e:	4663      	mov	r3, ip
 8001770:	1e7a      	subs	r2, r7, #1
 8001772:	4197      	sbcs	r7, r2
 8001774:	431f      	orrs	r7, r3
 8001776:	e602      	b.n	800137e <__aeabi_dadd+0x15a>
 8001778:	4d36      	ldr	r5, [pc, #216]	; (8001854 <__aeabi_dadd+0x630>)
 800177a:	42ae      	cmp	r6, r5
 800177c:	d0ca      	beq.n	8001714 <__aeabi_dadd+0x4f0>
 800177e:	2580      	movs	r5, #128	; 0x80
 8001780:	042d      	lsls	r5, r5, #16
 8001782:	425b      	negs	r3, r3
 8001784:	4329      	orrs	r1, r5
 8001786:	e7a6      	b.n	80016d6 <__aeabi_dadd+0x4b2>
 8001788:	4308      	orrs	r0, r1
 800178a:	1e41      	subs	r1, r0, #1
 800178c:	4188      	sbcs	r0, r1
 800178e:	e6a6      	b.n	80014de <__aeabi_dadd+0x2ba>
 8001790:	2b00      	cmp	r3, #0
 8001792:	d100      	bne.n	8001796 <__aeabi_dadd+0x572>
 8001794:	e648      	b.n	8001428 <__aeabi_dadd+0x204>
 8001796:	1a87      	subs	r7, r0, r2
 8001798:	4643      	mov	r3, r8
 800179a:	42b8      	cmp	r0, r7
 800179c:	41b6      	sbcs	r6, r6
 800179e:	1acb      	subs	r3, r1, r3
 80017a0:	4276      	negs	r6, r6
 80017a2:	1b9e      	subs	r6, r3, r6
 80017a4:	0233      	lsls	r3, r6, #8
 80017a6:	d54b      	bpl.n	8001840 <__aeabi_dadd+0x61c>
 80017a8:	1a17      	subs	r7, r2, r0
 80017aa:	4643      	mov	r3, r8
 80017ac:	42ba      	cmp	r2, r7
 80017ae:	4192      	sbcs	r2, r2
 80017b0:	1a59      	subs	r1, r3, r1
 80017b2:	4252      	negs	r2, r2
 80017b4:	1a89      	subs	r1, r1, r2
 80017b6:	2207      	movs	r2, #7
 80017b8:	4664      	mov	r4, ip
 80017ba:	403a      	ands	r2, r7
 80017bc:	e592      	b.n	80012e4 <__aeabi_dadd+0xc0>
 80017be:	4301      	orrs	r1, r0
 80017c0:	000f      	movs	r7, r1
 80017c2:	1e79      	subs	r1, r7, #1
 80017c4:	418f      	sbcs	r7, r1
 80017c6:	e79d      	b.n	8001704 <__aeabi_dadd+0x4e0>
 80017c8:	001c      	movs	r4, r3
 80017ca:	000f      	movs	r7, r1
 80017cc:	3c20      	subs	r4, #32
 80017ce:	40e7      	lsrs	r7, r4
 80017d0:	2b20      	cmp	r3, #32
 80017d2:	d003      	beq.n	80017dc <__aeabi_dadd+0x5b8>
 80017d4:	2440      	movs	r4, #64	; 0x40
 80017d6:	1ae3      	subs	r3, r4, r3
 80017d8:	4099      	lsls	r1, r3
 80017da:	4308      	orrs	r0, r1
 80017dc:	1e41      	subs	r1, r0, #1
 80017de:	4188      	sbcs	r0, r1
 80017e0:	4338      	orrs	r0, r7
 80017e2:	e67c      	b.n	80014de <__aeabi_dadd+0x2ba>
 80017e4:	2200      	movs	r2, #0
 80017e6:	2400      	movs	r4, #0
 80017e8:	e625      	b.n	8001436 <__aeabi_dadd+0x212>
 80017ea:	1a17      	subs	r7, r2, r0
 80017ec:	4643      	mov	r3, r8
 80017ee:	42ba      	cmp	r2, r7
 80017f0:	4192      	sbcs	r2, r2
 80017f2:	1a59      	subs	r1, r3, r1
 80017f4:	4252      	negs	r2, r2
 80017f6:	1a89      	subs	r1, r1, r2
 80017f8:	4664      	mov	r4, ip
 80017fa:	0035      	movs	r5, r6
 80017fc:	e543      	b.n	8001286 <__aeabi_dadd+0x62>
 80017fe:	4641      	mov	r1, r8
 8001800:	0010      	movs	r0, r2
 8001802:	4d14      	ldr	r5, [pc, #80]	; (8001854 <__aeabi_dadd+0x630>)
 8001804:	e610      	b.n	8001428 <__aeabi_dadd+0x204>
 8001806:	2280      	movs	r2, #128	; 0x80
 8001808:	2400      	movs	r4, #0
 800180a:	0312      	lsls	r2, r2, #12
 800180c:	e680      	b.n	8001510 <__aeabi_dadd+0x2ec>
 800180e:	001d      	movs	r5, r3
 8001810:	000f      	movs	r7, r1
 8001812:	3d20      	subs	r5, #32
 8001814:	40ef      	lsrs	r7, r5
 8001816:	46bc      	mov	ip, r7
 8001818:	2b20      	cmp	r3, #32
 800181a:	d003      	beq.n	8001824 <__aeabi_dadd+0x600>
 800181c:	2540      	movs	r5, #64	; 0x40
 800181e:	1aeb      	subs	r3, r5, r3
 8001820:	4099      	lsls	r1, r3
 8001822:	4308      	orrs	r0, r1
 8001824:	0007      	movs	r7, r0
 8001826:	4663      	mov	r3, ip
 8001828:	1e78      	subs	r0, r7, #1
 800182a:	4187      	sbcs	r7, r0
 800182c:	431f      	orrs	r7, r3
 800182e:	e769      	b.n	8001704 <__aeabi_dadd+0x4e0>
 8001830:	1887      	adds	r7, r0, r2
 8001832:	4297      	cmp	r7, r2
 8001834:	419b      	sbcs	r3, r3
 8001836:	4441      	add	r1, r8
 8001838:	425b      	negs	r3, r3
 800183a:	18c9      	adds	r1, r1, r3
 800183c:	0035      	movs	r5, r6
 800183e:	e5a3      	b.n	8001388 <__aeabi_dadd+0x164>
 8001840:	003b      	movs	r3, r7
 8001842:	4333      	orrs	r3, r6
 8001844:	d0ce      	beq.n	80017e4 <__aeabi_dadd+0x5c0>
 8001846:	2207      	movs	r2, #7
 8001848:	0031      	movs	r1, r6
 800184a:	403a      	ands	r2, r7
 800184c:	e652      	b.n	80014f4 <__aeabi_dadd+0x2d0>
 800184e:	2300      	movs	r3, #0
 8001850:	001a      	movs	r2, r3
 8001852:	e5f4      	b.n	800143e <__aeabi_dadd+0x21a>
 8001854:	000007ff 	.word	0x000007ff
 8001858:	ff7fffff 	.word	0xff7fffff

0800185c <__aeabi_ddiv>:
 800185c:	b5f0      	push	{r4, r5, r6, r7, lr}
 800185e:	4657      	mov	r7, sl
 8001860:	46de      	mov	lr, fp
 8001862:	464e      	mov	r6, r9
 8001864:	4645      	mov	r5, r8
 8001866:	b5e0      	push	{r5, r6, r7, lr}
 8001868:	4683      	mov	fp, r0
 800186a:	0007      	movs	r7, r0
 800186c:	030e      	lsls	r6, r1, #12
 800186e:	0048      	lsls	r0, r1, #1
 8001870:	b085      	sub	sp, #20
 8001872:	4692      	mov	sl, r2
 8001874:	001c      	movs	r4, r3
 8001876:	0b36      	lsrs	r6, r6, #12
 8001878:	0d40      	lsrs	r0, r0, #21
 800187a:	0fcd      	lsrs	r5, r1, #31
 800187c:	2800      	cmp	r0, #0
 800187e:	d100      	bne.n	8001882 <__aeabi_ddiv+0x26>
 8001880:	e09d      	b.n	80019be <__aeabi_ddiv+0x162>
 8001882:	4b95      	ldr	r3, [pc, #596]	; (8001ad8 <__aeabi_ddiv+0x27c>)
 8001884:	4298      	cmp	r0, r3
 8001886:	d039      	beq.n	80018fc <__aeabi_ddiv+0xa0>
 8001888:	2380      	movs	r3, #128	; 0x80
 800188a:	00f6      	lsls	r6, r6, #3
 800188c:	041b      	lsls	r3, r3, #16
 800188e:	431e      	orrs	r6, r3
 8001890:	4a92      	ldr	r2, [pc, #584]	; (8001adc <__aeabi_ddiv+0x280>)
 8001892:	0f7b      	lsrs	r3, r7, #29
 8001894:	4333      	orrs	r3, r6
 8001896:	4699      	mov	r9, r3
 8001898:	4694      	mov	ip, r2
 800189a:	0003      	movs	r3, r0
 800189c:	4463      	add	r3, ip
 800189e:	9300      	str	r3, [sp, #0]
 80018a0:	2300      	movs	r3, #0
 80018a2:	2600      	movs	r6, #0
 80018a4:	00ff      	lsls	r7, r7, #3
 80018a6:	9302      	str	r3, [sp, #8]
 80018a8:	0323      	lsls	r3, r4, #12
 80018aa:	0b1b      	lsrs	r3, r3, #12
 80018ac:	4698      	mov	r8, r3
 80018ae:	0063      	lsls	r3, r4, #1
 80018b0:	0fe4      	lsrs	r4, r4, #31
 80018b2:	4652      	mov	r2, sl
 80018b4:	0d5b      	lsrs	r3, r3, #21
 80018b6:	9401      	str	r4, [sp, #4]
 80018b8:	d100      	bne.n	80018bc <__aeabi_ddiv+0x60>
 80018ba:	e0b3      	b.n	8001a24 <__aeabi_ddiv+0x1c8>
 80018bc:	4986      	ldr	r1, [pc, #536]	; (8001ad8 <__aeabi_ddiv+0x27c>)
 80018be:	428b      	cmp	r3, r1
 80018c0:	d100      	bne.n	80018c4 <__aeabi_ddiv+0x68>
 80018c2:	e09e      	b.n	8001a02 <__aeabi_ddiv+0x1a6>
 80018c4:	4642      	mov	r2, r8
 80018c6:	00d1      	lsls	r1, r2, #3
 80018c8:	2280      	movs	r2, #128	; 0x80
 80018ca:	0412      	lsls	r2, r2, #16
 80018cc:	430a      	orrs	r2, r1
 80018ce:	4651      	mov	r1, sl
 80018d0:	0f49      	lsrs	r1, r1, #29
 80018d2:	4311      	orrs	r1, r2
 80018d4:	468b      	mov	fp, r1
 80018d6:	4981      	ldr	r1, [pc, #516]	; (8001adc <__aeabi_ddiv+0x280>)
 80018d8:	4652      	mov	r2, sl
 80018da:	468c      	mov	ip, r1
 80018dc:	9900      	ldr	r1, [sp, #0]
 80018de:	4463      	add	r3, ip
 80018e0:	1acb      	subs	r3, r1, r3
 80018e2:	2100      	movs	r1, #0
 80018e4:	00d2      	lsls	r2, r2, #3
 80018e6:	9300      	str	r3, [sp, #0]
 80018e8:	002b      	movs	r3, r5
 80018ea:	4063      	eors	r3, r4
 80018ec:	469a      	mov	sl, r3
 80018ee:	2e0f      	cmp	r6, #15
 80018f0:	d900      	bls.n	80018f4 <__aeabi_ddiv+0x98>
 80018f2:	e105      	b.n	8001b00 <__aeabi_ddiv+0x2a4>
 80018f4:	4b7a      	ldr	r3, [pc, #488]	; (8001ae0 <__aeabi_ddiv+0x284>)
 80018f6:	00b6      	lsls	r6, r6, #2
 80018f8:	599b      	ldr	r3, [r3, r6]
 80018fa:	469f      	mov	pc, r3
 80018fc:	465b      	mov	r3, fp
 80018fe:	4333      	orrs	r3, r6
 8001900:	4699      	mov	r9, r3
 8001902:	d000      	beq.n	8001906 <__aeabi_ddiv+0xaa>
 8001904:	e0b8      	b.n	8001a78 <__aeabi_ddiv+0x21c>
 8001906:	2302      	movs	r3, #2
 8001908:	2608      	movs	r6, #8
 800190a:	2700      	movs	r7, #0
 800190c:	9000      	str	r0, [sp, #0]
 800190e:	9302      	str	r3, [sp, #8]
 8001910:	e7ca      	b.n	80018a8 <__aeabi_ddiv+0x4c>
 8001912:	46cb      	mov	fp, r9
 8001914:	003a      	movs	r2, r7
 8001916:	9902      	ldr	r1, [sp, #8]
 8001918:	9501      	str	r5, [sp, #4]
 800191a:	9b01      	ldr	r3, [sp, #4]
 800191c:	469a      	mov	sl, r3
 800191e:	2902      	cmp	r1, #2
 8001920:	d027      	beq.n	8001972 <__aeabi_ddiv+0x116>
 8001922:	2903      	cmp	r1, #3
 8001924:	d100      	bne.n	8001928 <__aeabi_ddiv+0xcc>
 8001926:	e280      	b.n	8001e2a <__aeabi_ddiv+0x5ce>
 8001928:	2901      	cmp	r1, #1
 800192a:	d044      	beq.n	80019b6 <__aeabi_ddiv+0x15a>
 800192c:	496d      	ldr	r1, [pc, #436]	; (8001ae4 <__aeabi_ddiv+0x288>)
 800192e:	9b00      	ldr	r3, [sp, #0]
 8001930:	468c      	mov	ip, r1
 8001932:	4463      	add	r3, ip
 8001934:	001c      	movs	r4, r3
 8001936:	2c00      	cmp	r4, #0
 8001938:	dd38      	ble.n	80019ac <__aeabi_ddiv+0x150>
 800193a:	0753      	lsls	r3, r2, #29
 800193c:	d000      	beq.n	8001940 <__aeabi_ddiv+0xe4>
 800193e:	e213      	b.n	8001d68 <__aeabi_ddiv+0x50c>
 8001940:	08d2      	lsrs	r2, r2, #3
 8001942:	465b      	mov	r3, fp
 8001944:	01db      	lsls	r3, r3, #7
 8001946:	d509      	bpl.n	800195c <__aeabi_ddiv+0x100>
 8001948:	4659      	mov	r1, fp
 800194a:	4b67      	ldr	r3, [pc, #412]	; (8001ae8 <__aeabi_ddiv+0x28c>)
 800194c:	4019      	ands	r1, r3
 800194e:	468b      	mov	fp, r1
 8001950:	2180      	movs	r1, #128	; 0x80
 8001952:	00c9      	lsls	r1, r1, #3
 8001954:	468c      	mov	ip, r1
 8001956:	9b00      	ldr	r3, [sp, #0]
 8001958:	4463      	add	r3, ip
 800195a:	001c      	movs	r4, r3
 800195c:	4b63      	ldr	r3, [pc, #396]	; (8001aec <__aeabi_ddiv+0x290>)
 800195e:	429c      	cmp	r4, r3
 8001960:	dc07      	bgt.n	8001972 <__aeabi_ddiv+0x116>
 8001962:	465b      	mov	r3, fp
 8001964:	0564      	lsls	r4, r4, #21
 8001966:	075f      	lsls	r7, r3, #29
 8001968:	025b      	lsls	r3, r3, #9
 800196a:	4317      	orrs	r7, r2
 800196c:	0b1b      	lsrs	r3, r3, #12
 800196e:	0d62      	lsrs	r2, r4, #21
 8001970:	e002      	b.n	8001978 <__aeabi_ddiv+0x11c>
 8001972:	2300      	movs	r3, #0
 8001974:	2700      	movs	r7, #0
 8001976:	4a58      	ldr	r2, [pc, #352]	; (8001ad8 <__aeabi_ddiv+0x27c>)
 8001978:	2100      	movs	r1, #0
 800197a:	031b      	lsls	r3, r3, #12
 800197c:	0b1c      	lsrs	r4, r3, #12
 800197e:	0d0b      	lsrs	r3, r1, #20
 8001980:	051b      	lsls	r3, r3, #20
 8001982:	4323      	orrs	r3, r4
 8001984:	0514      	lsls	r4, r2, #20
 8001986:	4a5a      	ldr	r2, [pc, #360]	; (8001af0 <__aeabi_ddiv+0x294>)
 8001988:	0038      	movs	r0, r7
 800198a:	4013      	ands	r3, r2
 800198c:	431c      	orrs	r4, r3
 800198e:	4653      	mov	r3, sl
 8001990:	0064      	lsls	r4, r4, #1
 8001992:	07db      	lsls	r3, r3, #31
 8001994:	0864      	lsrs	r4, r4, #1
 8001996:	431c      	orrs	r4, r3
 8001998:	0021      	movs	r1, r4
 800199a:	b005      	add	sp, #20
 800199c:	bc3c      	pop	{r2, r3, r4, r5}
 800199e:	4690      	mov	r8, r2
 80019a0:	4699      	mov	r9, r3
 80019a2:	46a2      	mov	sl, r4
 80019a4:	46ab      	mov	fp, r5
 80019a6:	bdf0      	pop	{r4, r5, r6, r7, pc}
 80019a8:	2201      	movs	r2, #1
 80019aa:	4252      	negs	r2, r2
 80019ac:	2301      	movs	r3, #1
 80019ae:	1b1b      	subs	r3, r3, r4
 80019b0:	2b38      	cmp	r3, #56	; 0x38
 80019b2:	dc00      	bgt.n	80019b6 <__aeabi_ddiv+0x15a>
 80019b4:	e1ad      	b.n	8001d12 <__aeabi_ddiv+0x4b6>
 80019b6:	2200      	movs	r2, #0
 80019b8:	2300      	movs	r3, #0
 80019ba:	2700      	movs	r7, #0
 80019bc:	e7dc      	b.n	8001978 <__aeabi_ddiv+0x11c>
 80019be:	465b      	mov	r3, fp
 80019c0:	4333      	orrs	r3, r6
 80019c2:	4699      	mov	r9, r3
 80019c4:	d05e      	beq.n	8001a84 <__aeabi_ddiv+0x228>
 80019c6:	2e00      	cmp	r6, #0
 80019c8:	d100      	bne.n	80019cc <__aeabi_ddiv+0x170>
 80019ca:	e18a      	b.n	8001ce2 <__aeabi_ddiv+0x486>
 80019cc:	0030      	movs	r0, r6
 80019ce:	f001 f9fd 	bl	8002dcc <__clzsi2>
 80019d2:	0003      	movs	r3, r0
 80019d4:	3b0b      	subs	r3, #11
 80019d6:	2b1c      	cmp	r3, #28
 80019d8:	dd00      	ble.n	80019dc <__aeabi_ddiv+0x180>
 80019da:	e17b      	b.n	8001cd4 <__aeabi_ddiv+0x478>
 80019dc:	221d      	movs	r2, #29
 80019de:	1ad3      	subs	r3, r2, r3
 80019e0:	465a      	mov	r2, fp
 80019e2:	0001      	movs	r1, r0
 80019e4:	40da      	lsrs	r2, r3
 80019e6:	3908      	subs	r1, #8
 80019e8:	408e      	lsls	r6, r1
 80019ea:	0013      	movs	r3, r2
 80019ec:	465f      	mov	r7, fp
 80019ee:	4333      	orrs	r3, r6
 80019f0:	4699      	mov	r9, r3
 80019f2:	408f      	lsls	r7, r1
 80019f4:	4b3f      	ldr	r3, [pc, #252]	; (8001af4 <__aeabi_ddiv+0x298>)
 80019f6:	2600      	movs	r6, #0
 80019f8:	1a1b      	subs	r3, r3, r0
 80019fa:	9300      	str	r3, [sp, #0]
 80019fc:	2300      	movs	r3, #0
 80019fe:	9302      	str	r3, [sp, #8]
 8001a00:	e752      	b.n	80018a8 <__aeabi_ddiv+0x4c>
 8001a02:	4641      	mov	r1, r8
 8001a04:	4653      	mov	r3, sl
 8001a06:	430b      	orrs	r3, r1
 8001a08:	493b      	ldr	r1, [pc, #236]	; (8001af8 <__aeabi_ddiv+0x29c>)
 8001a0a:	469b      	mov	fp, r3
 8001a0c:	468c      	mov	ip, r1
 8001a0e:	9b00      	ldr	r3, [sp, #0]
 8001a10:	4463      	add	r3, ip
 8001a12:	9300      	str	r3, [sp, #0]
 8001a14:	465b      	mov	r3, fp
 8001a16:	2b00      	cmp	r3, #0
 8001a18:	d13b      	bne.n	8001a92 <__aeabi_ddiv+0x236>
 8001a1a:	2302      	movs	r3, #2
 8001a1c:	2200      	movs	r2, #0
 8001a1e:	431e      	orrs	r6, r3
 8001a20:	2102      	movs	r1, #2
 8001a22:	e761      	b.n	80018e8 <__aeabi_ddiv+0x8c>
 8001a24:	4643      	mov	r3, r8
 8001a26:	4313      	orrs	r3, r2
 8001a28:	469b      	mov	fp, r3
 8001a2a:	d037      	beq.n	8001a9c <__aeabi_ddiv+0x240>
 8001a2c:	4643      	mov	r3, r8
 8001a2e:	2b00      	cmp	r3, #0
 8001a30:	d100      	bne.n	8001a34 <__aeabi_ddiv+0x1d8>
 8001a32:	e162      	b.n	8001cfa <__aeabi_ddiv+0x49e>
 8001a34:	4640      	mov	r0, r8
 8001a36:	f001 f9c9 	bl	8002dcc <__clzsi2>
 8001a3a:	0003      	movs	r3, r0
 8001a3c:	3b0b      	subs	r3, #11
 8001a3e:	2b1c      	cmp	r3, #28
 8001a40:	dd00      	ble.n	8001a44 <__aeabi_ddiv+0x1e8>
 8001a42:	e153      	b.n	8001cec <__aeabi_ddiv+0x490>
 8001a44:	0002      	movs	r2, r0
 8001a46:	4641      	mov	r1, r8
 8001a48:	3a08      	subs	r2, #8
 8001a4a:	4091      	lsls	r1, r2
 8001a4c:	4688      	mov	r8, r1
 8001a4e:	211d      	movs	r1, #29
 8001a50:	1acb      	subs	r3, r1, r3
 8001a52:	4651      	mov	r1, sl
 8001a54:	40d9      	lsrs	r1, r3
 8001a56:	000b      	movs	r3, r1
 8001a58:	4641      	mov	r1, r8
 8001a5a:	430b      	orrs	r3, r1
 8001a5c:	469b      	mov	fp, r3
 8001a5e:	4653      	mov	r3, sl
 8001a60:	4093      	lsls	r3, r2
 8001a62:	001a      	movs	r2, r3
 8001a64:	9b00      	ldr	r3, [sp, #0]
 8001a66:	4925      	ldr	r1, [pc, #148]	; (8001afc <__aeabi_ddiv+0x2a0>)
 8001a68:	469c      	mov	ip, r3
 8001a6a:	4460      	add	r0, ip
 8001a6c:	0003      	movs	r3, r0
 8001a6e:	468c      	mov	ip, r1
 8001a70:	4463      	add	r3, ip
 8001a72:	9300      	str	r3, [sp, #0]
 8001a74:	2100      	movs	r1, #0
 8001a76:	e737      	b.n	80018e8 <__aeabi_ddiv+0x8c>
 8001a78:	2303      	movs	r3, #3
 8001a7a:	46b1      	mov	r9, r6
 8001a7c:	9000      	str	r0, [sp, #0]
 8001a7e:	260c      	movs	r6, #12
 8001a80:	9302      	str	r3, [sp, #8]
 8001a82:	e711      	b.n	80018a8 <__aeabi_ddiv+0x4c>
 8001a84:	2300      	movs	r3, #0
 8001a86:	9300      	str	r3, [sp, #0]
 8001a88:	3301      	adds	r3, #1
 8001a8a:	2604      	movs	r6, #4
 8001a8c:	2700      	movs	r7, #0
 8001a8e:	9302      	str	r3, [sp, #8]
 8001a90:	e70a      	b.n	80018a8 <__aeabi_ddiv+0x4c>
 8001a92:	2303      	movs	r3, #3
 8001a94:	46c3      	mov	fp, r8
 8001a96:	431e      	orrs	r6, r3
 8001a98:	2103      	movs	r1, #3
 8001a9a:	e725      	b.n	80018e8 <__aeabi_ddiv+0x8c>
 8001a9c:	3301      	adds	r3, #1
 8001a9e:	431e      	orrs	r6, r3
 8001aa0:	2200      	movs	r2, #0
 8001aa2:	2101      	movs	r1, #1
 8001aa4:	e720      	b.n	80018e8 <__aeabi_ddiv+0x8c>
 8001aa6:	2300      	movs	r3, #0
 8001aa8:	469a      	mov	sl, r3
 8001aaa:	2380      	movs	r3, #128	; 0x80
 8001aac:	2700      	movs	r7, #0
 8001aae:	031b      	lsls	r3, r3, #12
 8001ab0:	4a09      	ldr	r2, [pc, #36]	; (8001ad8 <__aeabi_ddiv+0x27c>)
 8001ab2:	e761      	b.n	8001978 <__aeabi_ddiv+0x11c>
 8001ab4:	2380      	movs	r3, #128	; 0x80
 8001ab6:	4649      	mov	r1, r9
 8001ab8:	031b      	lsls	r3, r3, #12
 8001aba:	4219      	tst	r1, r3
 8001abc:	d100      	bne.n	8001ac0 <__aeabi_ddiv+0x264>
 8001abe:	e0e2      	b.n	8001c86 <__aeabi_ddiv+0x42a>
 8001ac0:	4659      	mov	r1, fp
 8001ac2:	4219      	tst	r1, r3
 8001ac4:	d000      	beq.n	8001ac8 <__aeabi_ddiv+0x26c>
 8001ac6:	e0de      	b.n	8001c86 <__aeabi_ddiv+0x42a>
 8001ac8:	430b      	orrs	r3, r1
 8001aca:	031b      	lsls	r3, r3, #12
 8001acc:	0017      	movs	r7, r2
 8001ace:	0b1b      	lsrs	r3, r3, #12
 8001ad0:	46a2      	mov	sl, r4
 8001ad2:	4a01      	ldr	r2, [pc, #4]	; (8001ad8 <__aeabi_ddiv+0x27c>)
 8001ad4:	e750      	b.n	8001978 <__aeabi_ddiv+0x11c>
 8001ad6:	46c0      	nop			; (mov r8, r8)
 8001ad8:	000007ff 	.word	0x000007ff
 8001adc:	fffffc01 	.word	0xfffffc01
 8001ae0:	08010040 	.word	0x08010040
 8001ae4:	000003ff 	.word	0x000003ff
 8001ae8:	feffffff 	.word	0xfeffffff
 8001aec:	000007fe 	.word	0x000007fe
 8001af0:	800fffff 	.word	0x800fffff
 8001af4:	fffffc0d 	.word	0xfffffc0d
 8001af8:	fffff801 	.word	0xfffff801
 8001afc:	000003f3 	.word	0x000003f3
 8001b00:	45d9      	cmp	r9, fp
 8001b02:	d900      	bls.n	8001b06 <__aeabi_ddiv+0x2aa>
 8001b04:	e0cb      	b.n	8001c9e <__aeabi_ddiv+0x442>
 8001b06:	d100      	bne.n	8001b0a <__aeabi_ddiv+0x2ae>
 8001b08:	e0c6      	b.n	8001c98 <__aeabi_ddiv+0x43c>
 8001b0a:	003c      	movs	r4, r7
 8001b0c:	4648      	mov	r0, r9
 8001b0e:	2700      	movs	r7, #0
 8001b10:	9b00      	ldr	r3, [sp, #0]
 8001b12:	3b01      	subs	r3, #1
 8001b14:	9300      	str	r3, [sp, #0]
 8001b16:	465b      	mov	r3, fp
 8001b18:	0e16      	lsrs	r6, r2, #24
 8001b1a:	021b      	lsls	r3, r3, #8
 8001b1c:	431e      	orrs	r6, r3
 8001b1e:	0213      	lsls	r3, r2, #8
 8001b20:	4698      	mov	r8, r3
 8001b22:	0433      	lsls	r3, r6, #16
 8001b24:	0c1b      	lsrs	r3, r3, #16
 8001b26:	4699      	mov	r9, r3
 8001b28:	0c31      	lsrs	r1, r6, #16
 8001b2a:	9101      	str	r1, [sp, #4]
 8001b2c:	f7fe fba2 	bl	8000274 <__aeabi_uidivmod>
 8001b30:	464a      	mov	r2, r9
 8001b32:	4342      	muls	r2, r0
 8001b34:	040b      	lsls	r3, r1, #16
 8001b36:	0c21      	lsrs	r1, r4, #16
 8001b38:	0005      	movs	r5, r0
 8001b3a:	4319      	orrs	r1, r3
 8001b3c:	428a      	cmp	r2, r1
 8001b3e:	d907      	bls.n	8001b50 <__aeabi_ddiv+0x2f4>
 8001b40:	1989      	adds	r1, r1, r6
 8001b42:	3d01      	subs	r5, #1
 8001b44:	428e      	cmp	r6, r1
 8001b46:	d803      	bhi.n	8001b50 <__aeabi_ddiv+0x2f4>
 8001b48:	428a      	cmp	r2, r1
 8001b4a:	d901      	bls.n	8001b50 <__aeabi_ddiv+0x2f4>
 8001b4c:	1e85      	subs	r5, r0, #2
 8001b4e:	1989      	adds	r1, r1, r6
 8001b50:	1a88      	subs	r0, r1, r2
 8001b52:	9901      	ldr	r1, [sp, #4]
 8001b54:	f7fe fb8e 	bl	8000274 <__aeabi_uidivmod>
 8001b58:	0409      	lsls	r1, r1, #16
 8001b5a:	468c      	mov	ip, r1
 8001b5c:	464a      	mov	r2, r9
 8001b5e:	0421      	lsls	r1, r4, #16
 8001b60:	4664      	mov	r4, ip
 8001b62:	4342      	muls	r2, r0
 8001b64:	0c09      	lsrs	r1, r1, #16
 8001b66:	0003      	movs	r3, r0
 8001b68:	4321      	orrs	r1, r4
 8001b6a:	428a      	cmp	r2, r1
 8001b6c:	d904      	bls.n	8001b78 <__aeabi_ddiv+0x31c>
 8001b6e:	1989      	adds	r1, r1, r6
 8001b70:	3b01      	subs	r3, #1
 8001b72:	428e      	cmp	r6, r1
 8001b74:	d800      	bhi.n	8001b78 <__aeabi_ddiv+0x31c>
 8001b76:	e0f1      	b.n	8001d5c <__aeabi_ddiv+0x500>
 8001b78:	042d      	lsls	r5, r5, #16
 8001b7a:	431d      	orrs	r5, r3
 8001b7c:	46ab      	mov	fp, r5
 8001b7e:	4643      	mov	r3, r8
 8001b80:	1a89      	subs	r1, r1, r2
 8001b82:	4642      	mov	r2, r8
 8001b84:	0c28      	lsrs	r0, r5, #16
 8001b86:	0412      	lsls	r2, r2, #16
 8001b88:	0c1d      	lsrs	r5, r3, #16
 8001b8a:	465b      	mov	r3, fp
 8001b8c:	0c14      	lsrs	r4, r2, #16
 8001b8e:	0022      	movs	r2, r4
 8001b90:	041b      	lsls	r3, r3, #16
 8001b92:	0c1b      	lsrs	r3, r3, #16
 8001b94:	435a      	muls	r2, r3
 8001b96:	9403      	str	r4, [sp, #12]
 8001b98:	436b      	muls	r3, r5
 8001b9a:	4344      	muls	r4, r0
 8001b9c:	9502      	str	r5, [sp, #8]
 8001b9e:	4368      	muls	r0, r5
 8001ba0:	191b      	adds	r3, r3, r4
 8001ba2:	0c15      	lsrs	r5, r2, #16
 8001ba4:	18eb      	adds	r3, r5, r3
 8001ba6:	429c      	cmp	r4, r3
 8001ba8:	d903      	bls.n	8001bb2 <__aeabi_ddiv+0x356>
 8001baa:	2480      	movs	r4, #128	; 0x80
 8001bac:	0264      	lsls	r4, r4, #9
 8001bae:	46a4      	mov	ip, r4
 8001bb0:	4460      	add	r0, ip
 8001bb2:	0c1c      	lsrs	r4, r3, #16
 8001bb4:	0415      	lsls	r5, r2, #16
 8001bb6:	041b      	lsls	r3, r3, #16
 8001bb8:	0c2d      	lsrs	r5, r5, #16
 8001bba:	1820      	adds	r0, r4, r0
 8001bbc:	195d      	adds	r5, r3, r5
 8001bbe:	4281      	cmp	r1, r0
 8001bc0:	d377      	bcc.n	8001cb2 <__aeabi_ddiv+0x456>
 8001bc2:	d073      	beq.n	8001cac <__aeabi_ddiv+0x450>
 8001bc4:	1a0c      	subs	r4, r1, r0
 8001bc6:	4aa2      	ldr	r2, [pc, #648]	; (8001e50 <__aeabi_ddiv+0x5f4>)
 8001bc8:	1b7d      	subs	r5, r7, r5
 8001bca:	42af      	cmp	r7, r5
 8001bcc:	41bf      	sbcs	r7, r7
 8001bce:	4694      	mov	ip, r2
 8001bd0:	9b00      	ldr	r3, [sp, #0]
 8001bd2:	427f      	negs	r7, r7
 8001bd4:	4463      	add	r3, ip
 8001bd6:	1be0      	subs	r0, r4, r7
 8001bd8:	001c      	movs	r4, r3
 8001bda:	4286      	cmp	r6, r0
 8001bdc:	d100      	bne.n	8001be0 <__aeabi_ddiv+0x384>
 8001bde:	e0db      	b.n	8001d98 <__aeabi_ddiv+0x53c>
 8001be0:	9901      	ldr	r1, [sp, #4]
 8001be2:	f7fe fb47 	bl	8000274 <__aeabi_uidivmod>
 8001be6:	464a      	mov	r2, r9
 8001be8:	4342      	muls	r2, r0
 8001bea:	040b      	lsls	r3, r1, #16
 8001bec:	0c29      	lsrs	r1, r5, #16
 8001bee:	0007      	movs	r7, r0
 8001bf0:	4319      	orrs	r1, r3
 8001bf2:	428a      	cmp	r2, r1
 8001bf4:	d907      	bls.n	8001c06 <__aeabi_ddiv+0x3aa>
 8001bf6:	1989      	adds	r1, r1, r6
 8001bf8:	3f01      	subs	r7, #1
 8001bfa:	428e      	cmp	r6, r1
 8001bfc:	d803      	bhi.n	8001c06 <__aeabi_ddiv+0x3aa>
 8001bfe:	428a      	cmp	r2, r1
 8001c00:	d901      	bls.n	8001c06 <__aeabi_ddiv+0x3aa>
 8001c02:	1e87      	subs	r7, r0, #2
 8001c04:	1989      	adds	r1, r1, r6
 8001c06:	1a88      	subs	r0, r1, r2
 8001c08:	9901      	ldr	r1, [sp, #4]
 8001c0a:	f7fe fb33 	bl	8000274 <__aeabi_uidivmod>
 8001c0e:	0409      	lsls	r1, r1, #16
 8001c10:	464a      	mov	r2, r9
 8001c12:	4689      	mov	r9, r1
 8001c14:	0429      	lsls	r1, r5, #16
 8001c16:	464d      	mov	r5, r9
 8001c18:	4342      	muls	r2, r0
 8001c1a:	0c09      	lsrs	r1, r1, #16
 8001c1c:	0003      	movs	r3, r0
 8001c1e:	4329      	orrs	r1, r5
 8001c20:	428a      	cmp	r2, r1
 8001c22:	d907      	bls.n	8001c34 <__aeabi_ddiv+0x3d8>
 8001c24:	1989      	adds	r1, r1, r6
 8001c26:	3b01      	subs	r3, #1
 8001c28:	428e      	cmp	r6, r1
 8001c2a:	d803      	bhi.n	8001c34 <__aeabi_ddiv+0x3d8>
 8001c2c:	428a      	cmp	r2, r1
 8001c2e:	d901      	bls.n	8001c34 <__aeabi_ddiv+0x3d8>
 8001c30:	1e83      	subs	r3, r0, #2
 8001c32:	1989      	adds	r1, r1, r6
 8001c34:	043f      	lsls	r7, r7, #16
 8001c36:	1a89      	subs	r1, r1, r2
 8001c38:	003a      	movs	r2, r7
 8001c3a:	9f03      	ldr	r7, [sp, #12]
 8001c3c:	431a      	orrs	r2, r3
 8001c3e:	0038      	movs	r0, r7
 8001c40:	0413      	lsls	r3, r2, #16
 8001c42:	0c1b      	lsrs	r3, r3, #16
 8001c44:	4358      	muls	r0, r3
 8001c46:	4681      	mov	r9, r0
 8001c48:	9802      	ldr	r0, [sp, #8]
 8001c4a:	0c15      	lsrs	r5, r2, #16
 8001c4c:	436f      	muls	r7, r5
 8001c4e:	4343      	muls	r3, r0
 8001c50:	4345      	muls	r5, r0
 8001c52:	4648      	mov	r0, r9
 8001c54:	0c00      	lsrs	r0, r0, #16
 8001c56:	4684      	mov	ip, r0
 8001c58:	19db      	adds	r3, r3, r7
 8001c5a:	4463      	add	r3, ip
 8001c5c:	429f      	cmp	r7, r3
 8001c5e:	d903      	bls.n	8001c68 <__aeabi_ddiv+0x40c>
 8001c60:	2080      	movs	r0, #128	; 0x80
 8001c62:	0240      	lsls	r0, r0, #9
 8001c64:	4684      	mov	ip, r0
 8001c66:	4465      	add	r5, ip
 8001c68:	4648      	mov	r0, r9
 8001c6a:	0c1f      	lsrs	r7, r3, #16
 8001c6c:	0400      	lsls	r0, r0, #16
 8001c6e:	041b      	lsls	r3, r3, #16
 8001c70:	0c00      	lsrs	r0, r0, #16
 8001c72:	197d      	adds	r5, r7, r5
 8001c74:	1818      	adds	r0, r3, r0
 8001c76:	42a9      	cmp	r1, r5
 8001c78:	d200      	bcs.n	8001c7c <__aeabi_ddiv+0x420>
 8001c7a:	e084      	b.n	8001d86 <__aeabi_ddiv+0x52a>
 8001c7c:	d100      	bne.n	8001c80 <__aeabi_ddiv+0x424>
 8001c7e:	e07f      	b.n	8001d80 <__aeabi_ddiv+0x524>
 8001c80:	2301      	movs	r3, #1
 8001c82:	431a      	orrs	r2, r3
 8001c84:	e657      	b.n	8001936 <__aeabi_ddiv+0xda>
 8001c86:	2380      	movs	r3, #128	; 0x80
 8001c88:	464a      	mov	r2, r9
 8001c8a:	031b      	lsls	r3, r3, #12
 8001c8c:	4313      	orrs	r3, r2
 8001c8e:	031b      	lsls	r3, r3, #12
 8001c90:	0b1b      	lsrs	r3, r3, #12
 8001c92:	46aa      	mov	sl, r5
 8001c94:	4a6f      	ldr	r2, [pc, #444]	; (8001e54 <__aeabi_ddiv+0x5f8>)
 8001c96:	e66f      	b.n	8001978 <__aeabi_ddiv+0x11c>
 8001c98:	42ba      	cmp	r2, r7
 8001c9a:	d900      	bls.n	8001c9e <__aeabi_ddiv+0x442>
 8001c9c:	e735      	b.n	8001b0a <__aeabi_ddiv+0x2ae>
 8001c9e:	464b      	mov	r3, r9
 8001ca0:	07dc      	lsls	r4, r3, #31
 8001ca2:	0858      	lsrs	r0, r3, #1
 8001ca4:	087b      	lsrs	r3, r7, #1
 8001ca6:	431c      	orrs	r4, r3
 8001ca8:	07ff      	lsls	r7, r7, #31
 8001caa:	e734      	b.n	8001b16 <__aeabi_ddiv+0x2ba>
 8001cac:	2400      	movs	r4, #0
 8001cae:	42af      	cmp	r7, r5
 8001cb0:	d289      	bcs.n	8001bc6 <__aeabi_ddiv+0x36a>
 8001cb2:	4447      	add	r7, r8
 8001cb4:	4547      	cmp	r7, r8
 8001cb6:	41a4      	sbcs	r4, r4
 8001cb8:	465b      	mov	r3, fp
 8001cba:	4264      	negs	r4, r4
 8001cbc:	19a4      	adds	r4, r4, r6
 8001cbe:	1864      	adds	r4, r4, r1
 8001cc0:	3b01      	subs	r3, #1
 8001cc2:	42a6      	cmp	r6, r4
 8001cc4:	d21e      	bcs.n	8001d04 <__aeabi_ddiv+0x4a8>
 8001cc6:	42a0      	cmp	r0, r4
 8001cc8:	d86d      	bhi.n	8001da6 <__aeabi_ddiv+0x54a>
 8001cca:	d100      	bne.n	8001cce <__aeabi_ddiv+0x472>
 8001ccc:	e0b6      	b.n	8001e3c <__aeabi_ddiv+0x5e0>
 8001cce:	1a24      	subs	r4, r4, r0
 8001cd0:	469b      	mov	fp, r3
 8001cd2:	e778      	b.n	8001bc6 <__aeabi_ddiv+0x36a>
 8001cd4:	0003      	movs	r3, r0
 8001cd6:	465a      	mov	r2, fp
 8001cd8:	3b28      	subs	r3, #40	; 0x28
 8001cda:	409a      	lsls	r2, r3
 8001cdc:	2700      	movs	r7, #0
 8001cde:	4691      	mov	r9, r2
 8001ce0:	e688      	b.n	80019f4 <__aeabi_ddiv+0x198>
 8001ce2:	4658      	mov	r0, fp
 8001ce4:	f001 f872 	bl	8002dcc <__clzsi2>
 8001ce8:	3020      	adds	r0, #32
 8001cea:	e672      	b.n	80019d2 <__aeabi_ddiv+0x176>
 8001cec:	0003      	movs	r3, r0
 8001cee:	4652      	mov	r2, sl
 8001cf0:	3b28      	subs	r3, #40	; 0x28
 8001cf2:	409a      	lsls	r2, r3
 8001cf4:	4693      	mov	fp, r2
 8001cf6:	2200      	movs	r2, #0
 8001cf8:	e6b4      	b.n	8001a64 <__aeabi_ddiv+0x208>
 8001cfa:	4650      	mov	r0, sl
 8001cfc:	f001 f866 	bl	8002dcc <__clzsi2>
 8001d00:	3020      	adds	r0, #32
 8001d02:	e69a      	b.n	8001a3a <__aeabi_ddiv+0x1de>
 8001d04:	42a6      	cmp	r6, r4
 8001d06:	d1e2      	bne.n	8001cce <__aeabi_ddiv+0x472>
 8001d08:	45b8      	cmp	r8, r7
 8001d0a:	d9dc      	bls.n	8001cc6 <__aeabi_ddiv+0x46a>
 8001d0c:	1a34      	subs	r4, r6, r0
 8001d0e:	469b      	mov	fp, r3
 8001d10:	e759      	b.n	8001bc6 <__aeabi_ddiv+0x36a>
 8001d12:	2b1f      	cmp	r3, #31
 8001d14:	dc65      	bgt.n	8001de2 <__aeabi_ddiv+0x586>
 8001d16:	4c50      	ldr	r4, [pc, #320]	; (8001e58 <__aeabi_ddiv+0x5fc>)
 8001d18:	9900      	ldr	r1, [sp, #0]
 8001d1a:	46a4      	mov	ip, r4
 8001d1c:	465c      	mov	r4, fp
 8001d1e:	4461      	add	r1, ip
 8001d20:	0008      	movs	r0, r1
 8001d22:	408c      	lsls	r4, r1
 8001d24:	0011      	movs	r1, r2
 8001d26:	4082      	lsls	r2, r0
 8001d28:	40d9      	lsrs	r1, r3
 8001d2a:	1e50      	subs	r0, r2, #1
 8001d2c:	4182      	sbcs	r2, r0
 8001d2e:	430c      	orrs	r4, r1
 8001d30:	4314      	orrs	r4, r2
 8001d32:	465a      	mov	r2, fp
 8001d34:	40da      	lsrs	r2, r3
 8001d36:	0013      	movs	r3, r2
 8001d38:	0762      	lsls	r2, r4, #29
 8001d3a:	d009      	beq.n	8001d50 <__aeabi_ddiv+0x4f4>
 8001d3c:	220f      	movs	r2, #15
 8001d3e:	4022      	ands	r2, r4
 8001d40:	2a04      	cmp	r2, #4
 8001d42:	d005      	beq.n	8001d50 <__aeabi_ddiv+0x4f4>
 8001d44:	0022      	movs	r2, r4
 8001d46:	1d14      	adds	r4, r2, #4
 8001d48:	4294      	cmp	r4, r2
 8001d4a:	4189      	sbcs	r1, r1
 8001d4c:	4249      	negs	r1, r1
 8001d4e:	185b      	adds	r3, r3, r1
 8001d50:	021a      	lsls	r2, r3, #8
 8001d52:	d562      	bpl.n	8001e1a <__aeabi_ddiv+0x5be>
 8001d54:	2201      	movs	r2, #1
 8001d56:	2300      	movs	r3, #0
 8001d58:	2700      	movs	r7, #0
 8001d5a:	e60d      	b.n	8001978 <__aeabi_ddiv+0x11c>
 8001d5c:	428a      	cmp	r2, r1
 8001d5e:	d800      	bhi.n	8001d62 <__aeabi_ddiv+0x506>
 8001d60:	e70a      	b.n	8001b78 <__aeabi_ddiv+0x31c>
 8001d62:	1e83      	subs	r3, r0, #2
 8001d64:	1989      	adds	r1, r1, r6
 8001d66:	e707      	b.n	8001b78 <__aeabi_ddiv+0x31c>
 8001d68:	230f      	movs	r3, #15
 8001d6a:	4013      	ands	r3, r2
 8001d6c:	2b04      	cmp	r3, #4
 8001d6e:	d100      	bne.n	8001d72 <__aeabi_ddiv+0x516>
 8001d70:	e5e6      	b.n	8001940 <__aeabi_ddiv+0xe4>
 8001d72:	1d17      	adds	r7, r2, #4
 8001d74:	4297      	cmp	r7, r2
 8001d76:	4192      	sbcs	r2, r2
 8001d78:	4253      	negs	r3, r2
 8001d7a:	449b      	add	fp, r3
 8001d7c:	08fa      	lsrs	r2, r7, #3
 8001d7e:	e5e0      	b.n	8001942 <__aeabi_ddiv+0xe6>
 8001d80:	2800      	cmp	r0, #0
 8001d82:	d100      	bne.n	8001d86 <__aeabi_ddiv+0x52a>
 8001d84:	e5d7      	b.n	8001936 <__aeabi_ddiv+0xda>
 8001d86:	1871      	adds	r1, r6, r1
 8001d88:	1e53      	subs	r3, r2, #1
 8001d8a:	42b1      	cmp	r1, r6
 8001d8c:	d327      	bcc.n	8001dde <__aeabi_ddiv+0x582>
 8001d8e:	42a9      	cmp	r1, r5
 8001d90:	d315      	bcc.n	8001dbe <__aeabi_ddiv+0x562>
 8001d92:	d058      	beq.n	8001e46 <__aeabi_ddiv+0x5ea>
 8001d94:	001a      	movs	r2, r3
 8001d96:	e773      	b.n	8001c80 <__aeabi_ddiv+0x424>
 8001d98:	2b00      	cmp	r3, #0
 8001d9a:	dc00      	bgt.n	8001d9e <__aeabi_ddiv+0x542>
 8001d9c:	e604      	b.n	80019a8 <__aeabi_ddiv+0x14c>
 8001d9e:	2301      	movs	r3, #1
 8001da0:	2200      	movs	r2, #0
 8001da2:	449b      	add	fp, r3
 8001da4:	e5cd      	b.n	8001942 <__aeabi_ddiv+0xe6>
 8001da6:	2302      	movs	r3, #2
 8001da8:	4447      	add	r7, r8
 8001daa:	4547      	cmp	r7, r8
 8001dac:	4189      	sbcs	r1, r1
 8001dae:	425b      	negs	r3, r3
 8001db0:	469c      	mov	ip, r3
 8001db2:	4249      	negs	r1, r1
 8001db4:	1989      	adds	r1, r1, r6
 8001db6:	190c      	adds	r4, r1, r4
 8001db8:	44e3      	add	fp, ip
 8001dba:	1a24      	subs	r4, r4, r0
 8001dbc:	e703      	b.n	8001bc6 <__aeabi_ddiv+0x36a>
 8001dbe:	4643      	mov	r3, r8
 8001dc0:	005f      	lsls	r7, r3, #1
 8001dc2:	4547      	cmp	r7, r8
 8001dc4:	419b      	sbcs	r3, r3
 8001dc6:	46b8      	mov	r8, r7
 8001dc8:	425b      	negs	r3, r3
 8001dca:	199e      	adds	r6, r3, r6
 8001dcc:	3a02      	subs	r2, #2
 8001dce:	1989      	adds	r1, r1, r6
 8001dd0:	42a9      	cmp	r1, r5
 8001dd2:	d000      	beq.n	8001dd6 <__aeabi_ddiv+0x57a>
 8001dd4:	e754      	b.n	8001c80 <__aeabi_ddiv+0x424>
 8001dd6:	4540      	cmp	r0, r8
 8001dd8:	d000      	beq.n	8001ddc <__aeabi_ddiv+0x580>
 8001dda:	e751      	b.n	8001c80 <__aeabi_ddiv+0x424>
 8001ddc:	e5ab      	b.n	8001936 <__aeabi_ddiv+0xda>
 8001dde:	001a      	movs	r2, r3
 8001de0:	e7f6      	b.n	8001dd0 <__aeabi_ddiv+0x574>
 8001de2:	211f      	movs	r1, #31
 8001de4:	465f      	mov	r7, fp
 8001de6:	4249      	negs	r1, r1
 8001de8:	1b0c      	subs	r4, r1, r4
 8001dea:	40e7      	lsrs	r7, r4
 8001dec:	2b20      	cmp	r3, #32
 8001dee:	d007      	beq.n	8001e00 <__aeabi_ddiv+0x5a4>
 8001df0:	491a      	ldr	r1, [pc, #104]	; (8001e5c <__aeabi_ddiv+0x600>)
 8001df2:	9b00      	ldr	r3, [sp, #0]
 8001df4:	468c      	mov	ip, r1
 8001df6:	4463      	add	r3, ip
 8001df8:	0018      	movs	r0, r3
 8001dfa:	465b      	mov	r3, fp
 8001dfc:	4083      	lsls	r3, r0
 8001dfe:	431a      	orrs	r2, r3
 8001e00:	1e50      	subs	r0, r2, #1
 8001e02:	4182      	sbcs	r2, r0
 8001e04:	433a      	orrs	r2, r7
 8001e06:	2707      	movs	r7, #7
 8001e08:	2300      	movs	r3, #0
 8001e0a:	4017      	ands	r7, r2
 8001e0c:	d009      	beq.n	8001e22 <__aeabi_ddiv+0x5c6>
 8001e0e:	210f      	movs	r1, #15
 8001e10:	2300      	movs	r3, #0
 8001e12:	4011      	ands	r1, r2
 8001e14:	0014      	movs	r4, r2
 8001e16:	2904      	cmp	r1, #4
 8001e18:	d195      	bne.n	8001d46 <__aeabi_ddiv+0x4ea>
 8001e1a:	0022      	movs	r2, r4
 8001e1c:	075f      	lsls	r7, r3, #29
 8001e1e:	025b      	lsls	r3, r3, #9
 8001e20:	0b1b      	lsrs	r3, r3, #12
 8001e22:	08d2      	lsrs	r2, r2, #3
 8001e24:	4317      	orrs	r7, r2
 8001e26:	2200      	movs	r2, #0
 8001e28:	e5a6      	b.n	8001978 <__aeabi_ddiv+0x11c>
 8001e2a:	2380      	movs	r3, #128	; 0x80
 8001e2c:	4659      	mov	r1, fp
 8001e2e:	031b      	lsls	r3, r3, #12
 8001e30:	430b      	orrs	r3, r1
 8001e32:	031b      	lsls	r3, r3, #12
 8001e34:	0017      	movs	r7, r2
 8001e36:	0b1b      	lsrs	r3, r3, #12
 8001e38:	4a06      	ldr	r2, [pc, #24]	; (8001e54 <__aeabi_ddiv+0x5f8>)
 8001e3a:	e59d      	b.n	8001978 <__aeabi_ddiv+0x11c>
 8001e3c:	42bd      	cmp	r5, r7
 8001e3e:	d8b2      	bhi.n	8001da6 <__aeabi_ddiv+0x54a>
 8001e40:	469b      	mov	fp, r3
 8001e42:	2400      	movs	r4, #0
 8001e44:	e6bf      	b.n	8001bc6 <__aeabi_ddiv+0x36a>
 8001e46:	4580      	cmp	r8, r0
 8001e48:	d3b9      	bcc.n	8001dbe <__aeabi_ddiv+0x562>
 8001e4a:	001a      	movs	r2, r3
 8001e4c:	e7c3      	b.n	8001dd6 <__aeabi_ddiv+0x57a>
 8001e4e:	46c0      	nop			; (mov r8, r8)
 8001e50:	000003ff 	.word	0x000003ff
 8001e54:	000007ff 	.word	0x000007ff
 8001e58:	0000041e 	.word	0x0000041e
 8001e5c:	0000043e 	.word	0x0000043e

08001e60 <__eqdf2>:
 8001e60:	b5f0      	push	{r4, r5, r6, r7, lr}
 8001e62:	464f      	mov	r7, r9
 8001e64:	4646      	mov	r6, r8
 8001e66:	46d6      	mov	lr, sl
 8001e68:	4684      	mov	ip, r0
 8001e6a:	b5c0      	push	{r6, r7, lr}
 8001e6c:	4680      	mov	r8, r0
 8001e6e:	4e19      	ldr	r6, [pc, #100]	; (8001ed4 <__eqdf2+0x74>)
 8001e70:	0318      	lsls	r0, r3, #12
 8001e72:	030f      	lsls	r7, r1, #12
 8001e74:	004d      	lsls	r5, r1, #1
 8001e76:	0b00      	lsrs	r0, r0, #12
 8001e78:	005c      	lsls	r4, r3, #1
 8001e7a:	4682      	mov	sl, r0
 8001e7c:	0b3f      	lsrs	r7, r7, #12
 8001e7e:	0d6d      	lsrs	r5, r5, #21
 8001e80:	0fc9      	lsrs	r1, r1, #31
 8001e82:	4691      	mov	r9, r2
 8001e84:	0d64      	lsrs	r4, r4, #21
 8001e86:	0fdb      	lsrs	r3, r3, #31
 8001e88:	2001      	movs	r0, #1
 8001e8a:	42b5      	cmp	r5, r6
 8001e8c:	d00a      	beq.n	8001ea4 <__eqdf2+0x44>
 8001e8e:	42b4      	cmp	r4, r6
 8001e90:	d003      	beq.n	8001e9a <__eqdf2+0x3a>
 8001e92:	42a5      	cmp	r5, r4
 8001e94:	d101      	bne.n	8001e9a <__eqdf2+0x3a>
 8001e96:	4557      	cmp	r7, sl
 8001e98:	d00c      	beq.n	8001eb4 <__eqdf2+0x54>
 8001e9a:	bc1c      	pop	{r2, r3, r4}
 8001e9c:	4690      	mov	r8, r2
 8001e9e:	4699      	mov	r9, r3
 8001ea0:	46a2      	mov	sl, r4
 8001ea2:	bdf0      	pop	{r4, r5, r6, r7, pc}
 8001ea4:	4666      	mov	r6, ip
 8001ea6:	433e      	orrs	r6, r7
 8001ea8:	d1f7      	bne.n	8001e9a <__eqdf2+0x3a>
 8001eaa:	42ac      	cmp	r4, r5
 8001eac:	d1f5      	bne.n	8001e9a <__eqdf2+0x3a>
 8001eae:	4654      	mov	r4, sl
 8001eb0:	4314      	orrs	r4, r2
 8001eb2:	d1f2      	bne.n	8001e9a <__eqdf2+0x3a>
 8001eb4:	2001      	movs	r0, #1
 8001eb6:	45c8      	cmp	r8, r9
 8001eb8:	d1ef      	bne.n	8001e9a <__eqdf2+0x3a>
 8001eba:	4299      	cmp	r1, r3
 8001ebc:	d007      	beq.n	8001ece <__eqdf2+0x6e>
 8001ebe:	2d00      	cmp	r5, #0
 8001ec0:	d1eb      	bne.n	8001e9a <__eqdf2+0x3a>
 8001ec2:	4663      	mov	r3, ip
 8001ec4:	431f      	orrs	r7, r3
 8001ec6:	0038      	movs	r0, r7
 8001ec8:	1e47      	subs	r7, r0, #1
 8001eca:	41b8      	sbcs	r0, r7
 8001ecc:	e7e5      	b.n	8001e9a <__eqdf2+0x3a>
 8001ece:	2000      	movs	r0, #0
 8001ed0:	e7e3      	b.n	8001e9a <__eqdf2+0x3a>
 8001ed2:	46c0      	nop			; (mov r8, r8)
 8001ed4:	000007ff 	.word	0x000007ff

08001ed8 <__gedf2>:
 8001ed8:	b5f0      	push	{r4, r5, r6, r7, lr}
 8001eda:	464f      	mov	r7, r9
 8001edc:	4646      	mov	r6, r8
 8001ede:	46d6      	mov	lr, sl
 8001ee0:	004d      	lsls	r5, r1, #1
 8001ee2:	b5c0      	push	{r6, r7, lr}
 8001ee4:	030e      	lsls	r6, r1, #12
 8001ee6:	0fc9      	lsrs	r1, r1, #31
 8001ee8:	468a      	mov	sl, r1
 8001eea:	492c      	ldr	r1, [pc, #176]	; (8001f9c <__gedf2+0xc4>)
 8001eec:	031f      	lsls	r7, r3, #12
 8001eee:	005c      	lsls	r4, r3, #1
 8001ef0:	4680      	mov	r8, r0
 8001ef2:	0b36      	lsrs	r6, r6, #12
 8001ef4:	0d6d      	lsrs	r5, r5, #21
 8001ef6:	4691      	mov	r9, r2
 8001ef8:	0b3f      	lsrs	r7, r7, #12
 8001efa:	0d64      	lsrs	r4, r4, #21
 8001efc:	0fdb      	lsrs	r3, r3, #31
 8001efe:	428d      	cmp	r5, r1
 8001f00:	d01e      	beq.n	8001f40 <__gedf2+0x68>
 8001f02:	428c      	cmp	r4, r1
 8001f04:	d016      	beq.n	8001f34 <__gedf2+0x5c>
 8001f06:	2d00      	cmp	r5, #0
 8001f08:	d11e      	bne.n	8001f48 <__gedf2+0x70>
 8001f0a:	4330      	orrs	r0, r6
 8001f0c:	4684      	mov	ip, r0
 8001f0e:	2c00      	cmp	r4, #0
 8001f10:	d101      	bne.n	8001f16 <__gedf2+0x3e>
 8001f12:	433a      	orrs	r2, r7
 8001f14:	d023      	beq.n	8001f5e <__gedf2+0x86>
 8001f16:	4662      	mov	r2, ip
 8001f18:	2a00      	cmp	r2, #0
 8001f1a:	d01a      	beq.n	8001f52 <__gedf2+0x7a>
 8001f1c:	459a      	cmp	sl, r3
 8001f1e:	d029      	beq.n	8001f74 <__gedf2+0x9c>
 8001f20:	4651      	mov	r1, sl
 8001f22:	2002      	movs	r0, #2
 8001f24:	3901      	subs	r1, #1
 8001f26:	4008      	ands	r0, r1
 8001f28:	3801      	subs	r0, #1
 8001f2a:	bc1c      	pop	{r2, r3, r4}
 8001f2c:	4690      	mov	r8, r2
 8001f2e:	4699      	mov	r9, r3
 8001f30:	46a2      	mov	sl, r4
 8001f32:	bdf0      	pop	{r4, r5, r6, r7, pc}
 8001f34:	0039      	movs	r1, r7
 8001f36:	4311      	orrs	r1, r2
 8001f38:	d0e5      	beq.n	8001f06 <__gedf2+0x2e>
 8001f3a:	2002      	movs	r0, #2
 8001f3c:	4240      	negs	r0, r0
 8001f3e:	e7f4      	b.n	8001f2a <__gedf2+0x52>
 8001f40:	4330      	orrs	r0, r6
 8001f42:	d1fa      	bne.n	8001f3a <__gedf2+0x62>
 8001f44:	42ac      	cmp	r4, r5
 8001f46:	d00f      	beq.n	8001f68 <__gedf2+0x90>
 8001f48:	2c00      	cmp	r4, #0
 8001f4a:	d10f      	bne.n	8001f6c <__gedf2+0x94>
 8001f4c:	433a      	orrs	r2, r7
 8001f4e:	d0e7      	beq.n	8001f20 <__gedf2+0x48>
 8001f50:	e00c      	b.n	8001f6c <__gedf2+0x94>
 8001f52:	2201      	movs	r2, #1
 8001f54:	3b01      	subs	r3, #1
 8001f56:	4393      	bics	r3, r2
 8001f58:	0018      	movs	r0, r3
 8001f5a:	3001      	adds	r0, #1
 8001f5c:	e7e5      	b.n	8001f2a <__gedf2+0x52>
 8001f5e:	4663      	mov	r3, ip
 8001f60:	2000      	movs	r0, #0
 8001f62:	2b00      	cmp	r3, #0
 8001f64:	d0e1      	beq.n	8001f2a <__gedf2+0x52>
 8001f66:	e7db      	b.n	8001f20 <__gedf2+0x48>
 8001f68:	433a      	orrs	r2, r7
 8001f6a:	d1e6      	bne.n	8001f3a <__gedf2+0x62>
 8001f6c:	459a      	cmp	sl, r3
 8001f6e:	d1d7      	bne.n	8001f20 <__gedf2+0x48>
 8001f70:	42a5      	cmp	r5, r4
 8001f72:	dcd5      	bgt.n	8001f20 <__gedf2+0x48>
 8001f74:	42a5      	cmp	r5, r4
 8001f76:	db05      	blt.n	8001f84 <__gedf2+0xac>
 8001f78:	42be      	cmp	r6, r7
 8001f7a:	d8d1      	bhi.n	8001f20 <__gedf2+0x48>
 8001f7c:	d008      	beq.n	8001f90 <__gedf2+0xb8>
 8001f7e:	2000      	movs	r0, #0
 8001f80:	42be      	cmp	r6, r7
 8001f82:	d2d2      	bcs.n	8001f2a <__gedf2+0x52>
 8001f84:	4650      	mov	r0, sl
 8001f86:	2301      	movs	r3, #1
 8001f88:	3801      	subs	r0, #1
 8001f8a:	4398      	bics	r0, r3
 8001f8c:	3001      	adds	r0, #1
 8001f8e:	e7cc      	b.n	8001f2a <__gedf2+0x52>
 8001f90:	45c8      	cmp	r8, r9
 8001f92:	d8c5      	bhi.n	8001f20 <__gedf2+0x48>
 8001f94:	2000      	movs	r0, #0
 8001f96:	45c8      	cmp	r8, r9
 8001f98:	d3f4      	bcc.n	8001f84 <__gedf2+0xac>
 8001f9a:	e7c6      	b.n	8001f2a <__gedf2+0x52>
 8001f9c:	000007ff 	.word	0x000007ff

08001fa0 <__ledf2>:
 8001fa0:	b5f0      	push	{r4, r5, r6, r7, lr}
 8001fa2:	464f      	mov	r7, r9
 8001fa4:	4646      	mov	r6, r8
 8001fa6:	46d6      	mov	lr, sl
 8001fa8:	004d      	lsls	r5, r1, #1
 8001faa:	b5c0      	push	{r6, r7, lr}
 8001fac:	030e      	lsls	r6, r1, #12
 8001fae:	0fc9      	lsrs	r1, r1, #31
 8001fb0:	468a      	mov	sl, r1
 8001fb2:	492e      	ldr	r1, [pc, #184]	; (800206c <__ledf2+0xcc>)
 8001fb4:	031f      	lsls	r7, r3, #12
 8001fb6:	005c      	lsls	r4, r3, #1
 8001fb8:	4680      	mov	r8, r0
 8001fba:	0b36      	lsrs	r6, r6, #12
 8001fbc:	0d6d      	lsrs	r5, r5, #21
 8001fbe:	4691      	mov	r9, r2
 8001fc0:	0b3f      	lsrs	r7, r7, #12
 8001fc2:	0d64      	lsrs	r4, r4, #21
 8001fc4:	0fdb      	lsrs	r3, r3, #31
 8001fc6:	428d      	cmp	r5, r1
 8001fc8:	d018      	beq.n	8001ffc <__ledf2+0x5c>
 8001fca:	428c      	cmp	r4, r1
 8001fcc:	d011      	beq.n	8001ff2 <__ledf2+0x52>
 8001fce:	2d00      	cmp	r5, #0
 8001fd0:	d118      	bne.n	8002004 <__ledf2+0x64>
 8001fd2:	4330      	orrs	r0, r6
 8001fd4:	4684      	mov	ip, r0
 8001fd6:	2c00      	cmp	r4, #0
 8001fd8:	d11e      	bne.n	8002018 <__ledf2+0x78>
 8001fda:	433a      	orrs	r2, r7
 8001fdc:	d11c      	bne.n	8002018 <__ledf2+0x78>
 8001fde:	4663      	mov	r3, ip
 8001fe0:	2000      	movs	r0, #0
 8001fe2:	2b00      	cmp	r3, #0
 8001fe4:	d030      	beq.n	8002048 <__ledf2+0xa8>
 8001fe6:	4651      	mov	r1, sl
 8001fe8:	2002      	movs	r0, #2
 8001fea:	3901      	subs	r1, #1
 8001fec:	4008      	ands	r0, r1
 8001fee:	3801      	subs	r0, #1
 8001ff0:	e02a      	b.n	8002048 <__ledf2+0xa8>
 8001ff2:	0039      	movs	r1, r7
 8001ff4:	4311      	orrs	r1, r2
 8001ff6:	d0ea      	beq.n	8001fce <__ledf2+0x2e>
 8001ff8:	2002      	movs	r0, #2
 8001ffa:	e025      	b.n	8002048 <__ledf2+0xa8>
 8001ffc:	4330      	orrs	r0, r6
 8001ffe:	d1fb      	bne.n	8001ff8 <__ledf2+0x58>
 8002000:	42ac      	cmp	r4, r5
 8002002:	d026      	beq.n	8002052 <__ledf2+0xb2>
 8002004:	2c00      	cmp	r4, #0
 8002006:	d126      	bne.n	8002056 <__ledf2+0xb6>
 8002008:	433a      	orrs	r2, r7
 800200a:	d124      	bne.n	8002056 <__ledf2+0xb6>
 800200c:	4651      	mov	r1, sl
 800200e:	2002      	movs	r0, #2
 8002010:	3901      	subs	r1, #1
 8002012:	4008      	ands	r0, r1
 8002014:	3801      	subs	r0, #1
 8002016:	e017      	b.n	8002048 <__ledf2+0xa8>
 8002018:	4662      	mov	r2, ip
 800201a:	2a00      	cmp	r2, #0
 800201c:	d00f      	beq.n	800203e <__ledf2+0x9e>
 800201e:	459a      	cmp	sl, r3
 8002020:	d1e1      	bne.n	8001fe6 <__ledf2+0x46>
 8002022:	42a5      	cmp	r5, r4
 8002024:	db05      	blt.n	8002032 <__ledf2+0x92>
 8002026:	42be      	cmp	r6, r7
 8002028:	d8dd      	bhi.n	8001fe6 <__ledf2+0x46>
 800202a:	d019      	beq.n	8002060 <__ledf2+0xc0>
 800202c:	2000      	movs	r0, #0
 800202e:	42be      	cmp	r6, r7
 8002030:	d20a      	bcs.n	8002048 <__ledf2+0xa8>
 8002032:	4650      	mov	r0, sl
 8002034:	2301      	movs	r3, #1
 8002036:	3801      	subs	r0, #1
 8002038:	4398      	bics	r0, r3
 800203a:	3001      	adds	r0, #1
 800203c:	e004      	b.n	8002048 <__ledf2+0xa8>
 800203e:	2201      	movs	r2, #1
 8002040:	3b01      	subs	r3, #1
 8002042:	4393      	bics	r3, r2
 8002044:	0018      	movs	r0, r3
 8002046:	3001      	adds	r0, #1
 8002048:	bc1c      	pop	{r2, r3, r4}
 800204a:	4690      	mov	r8, r2
 800204c:	4699      	mov	r9, r3
 800204e:	46a2      	mov	sl, r4
 8002050:	bdf0      	pop	{r4, r5, r6, r7, pc}
 8002052:	433a      	orrs	r2, r7
 8002054:	d1d0      	bne.n	8001ff8 <__ledf2+0x58>
 8002056:	459a      	cmp	sl, r3
 8002058:	d1c5      	bne.n	8001fe6 <__ledf2+0x46>
 800205a:	42a5      	cmp	r5, r4
 800205c:	dcc3      	bgt.n	8001fe6 <__ledf2+0x46>
 800205e:	e7e0      	b.n	8002022 <__ledf2+0x82>
 8002060:	45c8      	cmp	r8, r9
 8002062:	d8c0      	bhi.n	8001fe6 <__ledf2+0x46>
 8002064:	2000      	movs	r0, #0
 8002066:	45c8      	cmp	r8, r9
 8002068:	d3e3      	bcc.n	8002032 <__ledf2+0x92>
 800206a:	e7ed      	b.n	8002048 <__ledf2+0xa8>
 800206c:	000007ff 	.word	0x000007ff

08002070 <__aeabi_dmul>:
 8002070:	b5f0      	push	{r4, r5, r6, r7, lr}
 8002072:	4657      	mov	r7, sl
 8002074:	46de      	mov	lr, fp
 8002076:	464e      	mov	r6, r9
 8002078:	4645      	mov	r5, r8
 800207a:	b5e0      	push	{r5, r6, r7, lr}
 800207c:	4683      	mov	fp, r0
 800207e:	0006      	movs	r6, r0
 8002080:	030f      	lsls	r7, r1, #12
 8002082:	0048      	lsls	r0, r1, #1
 8002084:	b087      	sub	sp, #28
 8002086:	4692      	mov	sl, r2
 8002088:	001d      	movs	r5, r3
 800208a:	0b3f      	lsrs	r7, r7, #12
 800208c:	0d40      	lsrs	r0, r0, #21
 800208e:	0fcc      	lsrs	r4, r1, #31
 8002090:	2800      	cmp	r0, #0
 8002092:	d100      	bne.n	8002096 <__aeabi_dmul+0x26>
 8002094:	e06f      	b.n	8002176 <__aeabi_dmul+0x106>
 8002096:	4bde      	ldr	r3, [pc, #888]	; (8002410 <__aeabi_dmul+0x3a0>)
 8002098:	4298      	cmp	r0, r3
 800209a:	d038      	beq.n	800210e <__aeabi_dmul+0x9e>
 800209c:	2380      	movs	r3, #128	; 0x80
 800209e:	00ff      	lsls	r7, r7, #3
 80020a0:	041b      	lsls	r3, r3, #16
 80020a2:	431f      	orrs	r7, r3
 80020a4:	0f73      	lsrs	r3, r6, #29
 80020a6:	433b      	orrs	r3, r7
 80020a8:	9301      	str	r3, [sp, #4]
 80020aa:	4bda      	ldr	r3, [pc, #872]	; (8002414 <__aeabi_dmul+0x3a4>)
 80020ac:	2700      	movs	r7, #0
 80020ae:	4699      	mov	r9, r3
 80020b0:	2300      	movs	r3, #0
 80020b2:	469b      	mov	fp, r3
 80020b4:	00f6      	lsls	r6, r6, #3
 80020b6:	4481      	add	r9, r0
 80020b8:	032b      	lsls	r3, r5, #12
 80020ba:	0069      	lsls	r1, r5, #1
 80020bc:	0b1b      	lsrs	r3, r3, #12
 80020be:	4652      	mov	r2, sl
 80020c0:	4698      	mov	r8, r3
 80020c2:	0d49      	lsrs	r1, r1, #21
 80020c4:	0fed      	lsrs	r5, r5, #31
 80020c6:	2900      	cmp	r1, #0
 80020c8:	d100      	bne.n	80020cc <__aeabi_dmul+0x5c>
 80020ca:	e085      	b.n	80021d8 <__aeabi_dmul+0x168>
 80020cc:	4bd0      	ldr	r3, [pc, #832]	; (8002410 <__aeabi_dmul+0x3a0>)
 80020ce:	4299      	cmp	r1, r3
 80020d0:	d100      	bne.n	80020d4 <__aeabi_dmul+0x64>
 80020d2:	e073      	b.n	80021bc <__aeabi_dmul+0x14c>
 80020d4:	4643      	mov	r3, r8
 80020d6:	00da      	lsls	r2, r3, #3
 80020d8:	2380      	movs	r3, #128	; 0x80
 80020da:	041b      	lsls	r3, r3, #16
 80020dc:	4313      	orrs	r3, r2
 80020de:	4652      	mov	r2, sl
 80020e0:	48cc      	ldr	r0, [pc, #816]	; (8002414 <__aeabi_dmul+0x3a4>)
 80020e2:	0f52      	lsrs	r2, r2, #29
 80020e4:	4684      	mov	ip, r0
 80020e6:	4313      	orrs	r3, r2
 80020e8:	4652      	mov	r2, sl
 80020ea:	2000      	movs	r0, #0
 80020ec:	4461      	add	r1, ip
 80020ee:	00d2      	lsls	r2, r2, #3
 80020f0:	4489      	add	r9, r1
 80020f2:	0021      	movs	r1, r4
 80020f4:	4069      	eors	r1, r5
 80020f6:	9100      	str	r1, [sp, #0]
 80020f8:	468c      	mov	ip, r1
 80020fa:	2101      	movs	r1, #1
 80020fc:	4449      	add	r1, r9
 80020fe:	468a      	mov	sl, r1
 8002100:	2f0f      	cmp	r7, #15
 8002102:	d900      	bls.n	8002106 <__aeabi_dmul+0x96>
 8002104:	e090      	b.n	8002228 <__aeabi_dmul+0x1b8>
 8002106:	49c4      	ldr	r1, [pc, #784]	; (8002418 <__aeabi_dmul+0x3a8>)
 8002108:	00bf      	lsls	r7, r7, #2
 800210a:	59cf      	ldr	r7, [r1, r7]
 800210c:	46bf      	mov	pc, r7
 800210e:	465b      	mov	r3, fp
 8002110:	433b      	orrs	r3, r7
 8002112:	9301      	str	r3, [sp, #4]
 8002114:	d000      	beq.n	8002118 <__aeabi_dmul+0xa8>
 8002116:	e16a      	b.n	80023ee <__aeabi_dmul+0x37e>
 8002118:	2302      	movs	r3, #2
 800211a:	2708      	movs	r7, #8
 800211c:	2600      	movs	r6, #0
 800211e:	4681      	mov	r9, r0
 8002120:	469b      	mov	fp, r3
 8002122:	e7c9      	b.n	80020b8 <__aeabi_dmul+0x48>
 8002124:	0032      	movs	r2, r6
 8002126:	4658      	mov	r0, fp
 8002128:	9b01      	ldr	r3, [sp, #4]
 800212a:	4661      	mov	r1, ip
 800212c:	9100      	str	r1, [sp, #0]
 800212e:	2802      	cmp	r0, #2
 8002130:	d100      	bne.n	8002134 <__aeabi_dmul+0xc4>
 8002132:	e075      	b.n	8002220 <__aeabi_dmul+0x1b0>
 8002134:	2803      	cmp	r0, #3
 8002136:	d100      	bne.n	800213a <__aeabi_dmul+0xca>
 8002138:	e1fe      	b.n	8002538 <__aeabi_dmul+0x4c8>
 800213a:	2801      	cmp	r0, #1
 800213c:	d000      	beq.n	8002140 <__aeabi_dmul+0xd0>
 800213e:	e12c      	b.n	800239a <__aeabi_dmul+0x32a>
 8002140:	2300      	movs	r3, #0
 8002142:	2700      	movs	r7, #0
 8002144:	2600      	movs	r6, #0
 8002146:	2500      	movs	r5, #0
 8002148:	033f      	lsls	r7, r7, #12
 800214a:	0d2a      	lsrs	r2, r5, #20
 800214c:	0b3f      	lsrs	r7, r7, #12
 800214e:	48b3      	ldr	r0, [pc, #716]	; (800241c <__aeabi_dmul+0x3ac>)
 8002150:	0512      	lsls	r2, r2, #20
 8002152:	433a      	orrs	r2, r7
 8002154:	4002      	ands	r2, r0
 8002156:	051b      	lsls	r3, r3, #20
 8002158:	4313      	orrs	r3, r2
 800215a:	9a00      	ldr	r2, [sp, #0]
 800215c:	005b      	lsls	r3, r3, #1
 800215e:	07d1      	lsls	r1, r2, #31
 8002160:	085b      	lsrs	r3, r3, #1
 8002162:	430b      	orrs	r3, r1
 8002164:	0030      	movs	r0, r6
 8002166:	0019      	movs	r1, r3
 8002168:	b007      	add	sp, #28
 800216a:	bc3c      	pop	{r2, r3, r4, r5}
 800216c:	4690      	mov	r8, r2
 800216e:	4699      	mov	r9, r3
 8002170:	46a2      	mov	sl, r4
 8002172:	46ab      	mov	fp, r5
 8002174:	bdf0      	pop	{r4, r5, r6, r7, pc}
 8002176:	465b      	mov	r3, fp
 8002178:	433b      	orrs	r3, r7
 800217a:	9301      	str	r3, [sp, #4]
 800217c:	d100      	bne.n	8002180 <__aeabi_dmul+0x110>
 800217e:	e12f      	b.n	80023e0 <__aeabi_dmul+0x370>
 8002180:	2f00      	cmp	r7, #0
 8002182:	d100      	bne.n	8002186 <__aeabi_dmul+0x116>
 8002184:	e1a5      	b.n	80024d2 <__aeabi_dmul+0x462>
 8002186:	0038      	movs	r0, r7
 8002188:	f000 fe20 	bl	8002dcc <__clzsi2>
 800218c:	0003      	movs	r3, r0
 800218e:	3b0b      	subs	r3, #11
 8002190:	2b1c      	cmp	r3, #28
 8002192:	dd00      	ble.n	8002196 <__aeabi_dmul+0x126>
 8002194:	e196      	b.n	80024c4 <__aeabi_dmul+0x454>
 8002196:	221d      	movs	r2, #29
 8002198:	1ad3      	subs	r3, r2, r3
 800219a:	465a      	mov	r2, fp
 800219c:	0001      	movs	r1, r0
 800219e:	40da      	lsrs	r2, r3
 80021a0:	465e      	mov	r6, fp
 80021a2:	3908      	subs	r1, #8
 80021a4:	408f      	lsls	r7, r1
 80021a6:	0013      	movs	r3, r2
 80021a8:	408e      	lsls	r6, r1
 80021aa:	433b      	orrs	r3, r7
 80021ac:	9301      	str	r3, [sp, #4]
 80021ae:	4b9c      	ldr	r3, [pc, #624]	; (8002420 <__aeabi_dmul+0x3b0>)
 80021b0:	2700      	movs	r7, #0
 80021b2:	1a1b      	subs	r3, r3, r0
 80021b4:	4699      	mov	r9, r3
 80021b6:	2300      	movs	r3, #0
 80021b8:	469b      	mov	fp, r3
 80021ba:	e77d      	b.n	80020b8 <__aeabi_dmul+0x48>
 80021bc:	4641      	mov	r1, r8
 80021be:	4653      	mov	r3, sl
 80021c0:	430b      	orrs	r3, r1
 80021c2:	4993      	ldr	r1, [pc, #588]	; (8002410 <__aeabi_dmul+0x3a0>)
 80021c4:	468c      	mov	ip, r1
 80021c6:	44e1      	add	r9, ip
 80021c8:	2b00      	cmp	r3, #0
 80021ca:	d000      	beq.n	80021ce <__aeabi_dmul+0x15e>
 80021cc:	e11a      	b.n	8002404 <__aeabi_dmul+0x394>
 80021ce:	2202      	movs	r2, #2
 80021d0:	2002      	movs	r0, #2
 80021d2:	4317      	orrs	r7, r2
 80021d4:	2200      	movs	r2, #0
 80021d6:	e78c      	b.n	80020f2 <__aeabi_dmul+0x82>
 80021d8:	4313      	orrs	r3, r2
 80021da:	d100      	bne.n	80021de <__aeabi_dmul+0x16e>
 80021dc:	e10d      	b.n	80023fa <__aeabi_dmul+0x38a>
 80021de:	4643      	mov	r3, r8
 80021e0:	2b00      	cmp	r3, #0
 80021e2:	d100      	bne.n	80021e6 <__aeabi_dmul+0x176>
 80021e4:	e181      	b.n	80024ea <__aeabi_dmul+0x47a>
 80021e6:	4640      	mov	r0, r8
 80021e8:	f000 fdf0 	bl	8002dcc <__clzsi2>
 80021ec:	0002      	movs	r2, r0
 80021ee:	3a0b      	subs	r2, #11
 80021f0:	2a1c      	cmp	r2, #28
 80021f2:	dd00      	ble.n	80021f6 <__aeabi_dmul+0x186>
 80021f4:	e172      	b.n	80024dc <__aeabi_dmul+0x46c>
 80021f6:	0001      	movs	r1, r0
 80021f8:	4643      	mov	r3, r8
 80021fa:	3908      	subs	r1, #8
 80021fc:	408b      	lsls	r3, r1
 80021fe:	4698      	mov	r8, r3
 8002200:	231d      	movs	r3, #29
 8002202:	1a9a      	subs	r2, r3, r2
 8002204:	4653      	mov	r3, sl
 8002206:	40d3      	lsrs	r3, r2
 8002208:	001a      	movs	r2, r3
 800220a:	4643      	mov	r3, r8
 800220c:	4313      	orrs	r3, r2
 800220e:	4652      	mov	r2, sl
 8002210:	408a      	lsls	r2, r1
 8002212:	4649      	mov	r1, r9
 8002214:	1a08      	subs	r0, r1, r0
 8002216:	4982      	ldr	r1, [pc, #520]	; (8002420 <__aeabi_dmul+0x3b0>)
 8002218:	4689      	mov	r9, r1
 800221a:	4481      	add	r9, r0
 800221c:	2000      	movs	r0, #0
 800221e:	e768      	b.n	80020f2 <__aeabi_dmul+0x82>
 8002220:	4b7b      	ldr	r3, [pc, #492]	; (8002410 <__aeabi_dmul+0x3a0>)
 8002222:	2700      	movs	r7, #0
 8002224:	2600      	movs	r6, #0
 8002226:	e78e      	b.n	8002146 <__aeabi_dmul+0xd6>
 8002228:	0c14      	lsrs	r4, r2, #16
 800222a:	0412      	lsls	r2, r2, #16
 800222c:	0c12      	lsrs	r2, r2, #16
 800222e:	0011      	movs	r1, r2
 8002230:	0c37      	lsrs	r7, r6, #16
 8002232:	0436      	lsls	r6, r6, #16
 8002234:	0c35      	lsrs	r5, r6, #16
 8002236:	4379      	muls	r1, r7
 8002238:	0028      	movs	r0, r5
 800223a:	468c      	mov	ip, r1
 800223c:	002e      	movs	r6, r5
 800223e:	4360      	muls	r0, r4
 8002240:	4460      	add	r0, ip
 8002242:	4683      	mov	fp, r0
 8002244:	4356      	muls	r6, r2
 8002246:	0021      	movs	r1, r4
 8002248:	0c30      	lsrs	r0, r6, #16
 800224a:	4680      	mov	r8, r0
 800224c:	4658      	mov	r0, fp
 800224e:	4379      	muls	r1, r7
 8002250:	4440      	add	r0, r8
 8002252:	9102      	str	r1, [sp, #8]
 8002254:	4584      	cmp	ip, r0
 8002256:	d906      	bls.n	8002266 <__aeabi_dmul+0x1f6>
 8002258:	4688      	mov	r8, r1
 800225a:	2180      	movs	r1, #128	; 0x80
 800225c:	0249      	lsls	r1, r1, #9
 800225e:	468c      	mov	ip, r1
 8002260:	44e0      	add	r8, ip
 8002262:	4641      	mov	r1, r8
 8002264:	9102      	str	r1, [sp, #8]
 8002266:	0436      	lsls	r6, r6, #16
 8002268:	0c01      	lsrs	r1, r0, #16
 800226a:	0c36      	lsrs	r6, r6, #16
 800226c:	0400      	lsls	r0, r0, #16
 800226e:	468b      	mov	fp, r1
 8002270:	1981      	adds	r1, r0, r6
 8002272:	0c1e      	lsrs	r6, r3, #16
 8002274:	041b      	lsls	r3, r3, #16
 8002276:	0c1b      	lsrs	r3, r3, #16
 8002278:	9103      	str	r1, [sp, #12]
 800227a:	0019      	movs	r1, r3
 800227c:	4379      	muls	r1, r7
 800227e:	468c      	mov	ip, r1
 8002280:	0028      	movs	r0, r5
 8002282:	4375      	muls	r5, r6
 8002284:	4465      	add	r5, ip
 8002286:	46a8      	mov	r8, r5
 8002288:	4358      	muls	r0, r3
 800228a:	0c05      	lsrs	r5, r0, #16
 800228c:	4445      	add	r5, r8
 800228e:	4377      	muls	r7, r6
 8002290:	42a9      	cmp	r1, r5
 8002292:	d903      	bls.n	800229c <__aeabi_dmul+0x22c>
 8002294:	2180      	movs	r1, #128	; 0x80
 8002296:	0249      	lsls	r1, r1, #9
 8002298:	468c      	mov	ip, r1
 800229a:	4467      	add	r7, ip
 800229c:	0c29      	lsrs	r1, r5, #16
 800229e:	468c      	mov	ip, r1
 80022a0:	0039      	movs	r1, r7
 80022a2:	0400      	lsls	r0, r0, #16
 80022a4:	0c00      	lsrs	r0, r0, #16
 80022a6:	042d      	lsls	r5, r5, #16
 80022a8:	182d      	adds	r5, r5, r0
 80022aa:	4461      	add	r1, ip
 80022ac:	44ab      	add	fp, r5
 80022ae:	9105      	str	r1, [sp, #20]
 80022b0:	4659      	mov	r1, fp
 80022b2:	9104      	str	r1, [sp, #16]
 80022b4:	9901      	ldr	r1, [sp, #4]
 80022b6:	040f      	lsls	r7, r1, #16
 80022b8:	0c3f      	lsrs	r7, r7, #16
 80022ba:	0c08      	lsrs	r0, r1, #16
 80022bc:	0039      	movs	r1, r7
 80022be:	4351      	muls	r1, r2
 80022c0:	4342      	muls	r2, r0
 80022c2:	4690      	mov	r8, r2
 80022c4:	0002      	movs	r2, r0
 80022c6:	468c      	mov	ip, r1
 80022c8:	0c09      	lsrs	r1, r1, #16
 80022ca:	468b      	mov	fp, r1
 80022cc:	4362      	muls	r2, r4
 80022ce:	437c      	muls	r4, r7
 80022d0:	4444      	add	r4, r8
 80022d2:	445c      	add	r4, fp
 80022d4:	45a0      	cmp	r8, r4
 80022d6:	d903      	bls.n	80022e0 <__aeabi_dmul+0x270>
 80022d8:	2180      	movs	r1, #128	; 0x80
 80022da:	0249      	lsls	r1, r1, #9
 80022dc:	4688      	mov	r8, r1
 80022de:	4442      	add	r2, r8
 80022e0:	0c21      	lsrs	r1, r4, #16
 80022e2:	4688      	mov	r8, r1
 80022e4:	4661      	mov	r1, ip
 80022e6:	0409      	lsls	r1, r1, #16
 80022e8:	0c09      	lsrs	r1, r1, #16
 80022ea:	468c      	mov	ip, r1
 80022ec:	0039      	movs	r1, r7
 80022ee:	4359      	muls	r1, r3
 80022f0:	4343      	muls	r3, r0
 80022f2:	4370      	muls	r0, r6
 80022f4:	437e      	muls	r6, r7
 80022f6:	0c0f      	lsrs	r7, r1, #16
 80022f8:	18f6      	adds	r6, r6, r3
 80022fa:	0424      	lsls	r4, r4, #16
 80022fc:	19be      	adds	r6, r7, r6
 80022fe:	4464      	add	r4, ip
 8002300:	4442      	add	r2, r8
 8002302:	468c      	mov	ip, r1
 8002304:	42b3      	cmp	r3, r6
 8002306:	d903      	bls.n	8002310 <__aeabi_dmul+0x2a0>
 8002308:	2380      	movs	r3, #128	; 0x80
 800230a:	025b      	lsls	r3, r3, #9
 800230c:	4698      	mov	r8, r3
 800230e:	4440      	add	r0, r8
 8002310:	9b02      	ldr	r3, [sp, #8]
 8002312:	4661      	mov	r1, ip
 8002314:	4698      	mov	r8, r3
 8002316:	9b04      	ldr	r3, [sp, #16]
 8002318:	0437      	lsls	r7, r6, #16
 800231a:	4443      	add	r3, r8
 800231c:	469b      	mov	fp, r3
 800231e:	45ab      	cmp	fp, r5
 8002320:	41ad      	sbcs	r5, r5
 8002322:	426b      	negs	r3, r5
 8002324:	040d      	lsls	r5, r1, #16
 8002326:	9905      	ldr	r1, [sp, #20]
 8002328:	0c2d      	lsrs	r5, r5, #16
 800232a:	468c      	mov	ip, r1
 800232c:	197f      	adds	r7, r7, r5
 800232e:	4467      	add	r7, ip
 8002330:	18fd      	adds	r5, r7, r3
 8002332:	46a8      	mov	r8, r5
 8002334:	465d      	mov	r5, fp
 8002336:	192d      	adds	r5, r5, r4
 8002338:	42a5      	cmp	r5, r4
 800233a:	41a4      	sbcs	r4, r4
 800233c:	4693      	mov	fp, r2
 800233e:	4264      	negs	r4, r4
 8002340:	46a4      	mov	ip, r4
 8002342:	44c3      	add	fp, r8
 8002344:	44dc      	add	ip, fp
 8002346:	428f      	cmp	r7, r1
 8002348:	41bf      	sbcs	r7, r7
 800234a:	4598      	cmp	r8, r3
 800234c:	419b      	sbcs	r3, r3
 800234e:	4593      	cmp	fp, r2
 8002350:	4192      	sbcs	r2, r2
 8002352:	45a4      	cmp	ip, r4
 8002354:	41a4      	sbcs	r4, r4
 8002356:	425b      	negs	r3, r3
 8002358:	427f      	negs	r7, r7
 800235a:	431f      	orrs	r7, r3
 800235c:	0c36      	lsrs	r6, r6, #16
 800235e:	4252      	negs	r2, r2
 8002360:	4264      	negs	r4, r4
 8002362:	19bf      	adds	r7, r7, r6
 8002364:	4322      	orrs	r2, r4
 8002366:	18bf      	adds	r7, r7, r2
 8002368:	4662      	mov	r2, ip
 800236a:	1838      	adds	r0, r7, r0
 800236c:	0243      	lsls	r3, r0, #9
 800236e:	0dd2      	lsrs	r2, r2, #23
 8002370:	9903      	ldr	r1, [sp, #12]
 8002372:	4313      	orrs	r3, r2
 8002374:	026a      	lsls	r2, r5, #9
 8002376:	430a      	orrs	r2, r1
 8002378:	1e50      	subs	r0, r2, #1
 800237a:	4182      	sbcs	r2, r0
 800237c:	4661      	mov	r1, ip
 800237e:	0ded      	lsrs	r5, r5, #23
 8002380:	432a      	orrs	r2, r5
 8002382:	024e      	lsls	r6, r1, #9
 8002384:	4332      	orrs	r2, r6
 8002386:	01d9      	lsls	r1, r3, #7
 8002388:	d400      	bmi.n	800238c <__aeabi_dmul+0x31c>
 800238a:	e0b3      	b.n	80024f4 <__aeabi_dmul+0x484>
 800238c:	2601      	movs	r6, #1
 800238e:	0850      	lsrs	r0, r2, #1
 8002390:	4032      	ands	r2, r6
 8002392:	4302      	orrs	r2, r0
 8002394:	07de      	lsls	r6, r3, #31
 8002396:	4332      	orrs	r2, r6
 8002398:	085b      	lsrs	r3, r3, #1
 800239a:	4c22      	ldr	r4, [pc, #136]	; (8002424 <__aeabi_dmul+0x3b4>)
 800239c:	4454      	add	r4, sl
 800239e:	2c00      	cmp	r4, #0
 80023a0:	dd62      	ble.n	8002468 <__aeabi_dmul+0x3f8>
 80023a2:	0751      	lsls	r1, r2, #29
 80023a4:	d009      	beq.n	80023ba <__aeabi_dmul+0x34a>
 80023a6:	200f      	movs	r0, #15
 80023a8:	4010      	ands	r0, r2
 80023aa:	2804      	cmp	r0, #4
 80023ac:	d005      	beq.n	80023ba <__aeabi_dmul+0x34a>
 80023ae:	1d10      	adds	r0, r2, #4
 80023b0:	4290      	cmp	r0, r2
 80023b2:	4192      	sbcs	r2, r2
 80023b4:	4252      	negs	r2, r2
 80023b6:	189b      	adds	r3, r3, r2
 80023b8:	0002      	movs	r2, r0
 80023ba:	01d9      	lsls	r1, r3, #7
 80023bc:	d504      	bpl.n	80023c8 <__aeabi_dmul+0x358>
 80023be:	2480      	movs	r4, #128	; 0x80
 80023c0:	4819      	ldr	r0, [pc, #100]	; (8002428 <__aeabi_dmul+0x3b8>)
 80023c2:	00e4      	lsls	r4, r4, #3
 80023c4:	4003      	ands	r3, r0
 80023c6:	4454      	add	r4, sl
 80023c8:	4818      	ldr	r0, [pc, #96]	; (800242c <__aeabi_dmul+0x3bc>)
 80023ca:	4284      	cmp	r4, r0
 80023cc:	dd00      	ble.n	80023d0 <__aeabi_dmul+0x360>
 80023ce:	e727      	b.n	8002220 <__aeabi_dmul+0x1b0>
 80023d0:	075e      	lsls	r6, r3, #29
 80023d2:	025b      	lsls	r3, r3, #9
 80023d4:	08d2      	lsrs	r2, r2, #3
 80023d6:	0b1f      	lsrs	r7, r3, #12
 80023d8:	0563      	lsls	r3, r4, #21
 80023da:	4316      	orrs	r6, r2
 80023dc:	0d5b      	lsrs	r3, r3, #21
 80023de:	e6b2      	b.n	8002146 <__aeabi_dmul+0xd6>
 80023e0:	2300      	movs	r3, #0
 80023e2:	4699      	mov	r9, r3
 80023e4:	3301      	adds	r3, #1
 80023e6:	2704      	movs	r7, #4
 80023e8:	2600      	movs	r6, #0
 80023ea:	469b      	mov	fp, r3
 80023ec:	e664      	b.n	80020b8 <__aeabi_dmul+0x48>
 80023ee:	2303      	movs	r3, #3
 80023f0:	9701      	str	r7, [sp, #4]
 80023f2:	4681      	mov	r9, r0
 80023f4:	270c      	movs	r7, #12
 80023f6:	469b      	mov	fp, r3
 80023f8:	e65e      	b.n	80020b8 <__aeabi_dmul+0x48>
 80023fa:	2201      	movs	r2, #1
 80023fc:	2001      	movs	r0, #1
 80023fe:	4317      	orrs	r7, r2
 8002400:	2200      	movs	r2, #0
 8002402:	e676      	b.n	80020f2 <__aeabi_dmul+0x82>
 8002404:	2303      	movs	r3, #3
 8002406:	2003      	movs	r0, #3
 8002408:	431f      	orrs	r7, r3
 800240a:	4643      	mov	r3, r8
 800240c:	e671      	b.n	80020f2 <__aeabi_dmul+0x82>
 800240e:	46c0      	nop			; (mov r8, r8)
 8002410:	000007ff 	.word	0x000007ff
 8002414:	fffffc01 	.word	0xfffffc01
 8002418:	08010080 	.word	0x08010080
 800241c:	800fffff 	.word	0x800fffff
 8002420:	fffffc0d 	.word	0xfffffc0d
 8002424:	000003ff 	.word	0x000003ff
 8002428:	feffffff 	.word	0xfeffffff
 800242c:	000007fe 	.word	0x000007fe
 8002430:	2300      	movs	r3, #0
 8002432:	2780      	movs	r7, #128	; 0x80
 8002434:	9300      	str	r3, [sp, #0]
 8002436:	033f      	lsls	r7, r7, #12
 8002438:	2600      	movs	r6, #0
 800243a:	4b43      	ldr	r3, [pc, #268]	; (8002548 <__aeabi_dmul+0x4d8>)
 800243c:	e683      	b.n	8002146 <__aeabi_dmul+0xd6>
 800243e:	9b01      	ldr	r3, [sp, #4]
 8002440:	0032      	movs	r2, r6
 8002442:	46a4      	mov	ip, r4
 8002444:	4658      	mov	r0, fp
 8002446:	e670      	b.n	800212a <__aeabi_dmul+0xba>
 8002448:	46ac      	mov	ip, r5
 800244a:	e66e      	b.n	800212a <__aeabi_dmul+0xba>
 800244c:	2780      	movs	r7, #128	; 0x80
 800244e:	9901      	ldr	r1, [sp, #4]
 8002450:	033f      	lsls	r7, r7, #12
 8002452:	4239      	tst	r1, r7
 8002454:	d02d      	beq.n	80024b2 <__aeabi_dmul+0x442>
 8002456:	423b      	tst	r3, r7
 8002458:	d12b      	bne.n	80024b2 <__aeabi_dmul+0x442>
 800245a:	431f      	orrs	r7, r3
 800245c:	033f      	lsls	r7, r7, #12
 800245e:	0b3f      	lsrs	r7, r7, #12
 8002460:	9500      	str	r5, [sp, #0]
 8002462:	0016      	movs	r6, r2
 8002464:	4b38      	ldr	r3, [pc, #224]	; (8002548 <__aeabi_dmul+0x4d8>)
 8002466:	e66e      	b.n	8002146 <__aeabi_dmul+0xd6>
 8002468:	2501      	movs	r5, #1
 800246a:	1b2d      	subs	r5, r5, r4
 800246c:	2d38      	cmp	r5, #56	; 0x38
 800246e:	dd00      	ble.n	8002472 <__aeabi_dmul+0x402>
 8002470:	e666      	b.n	8002140 <__aeabi_dmul+0xd0>
 8002472:	2d1f      	cmp	r5, #31
 8002474:	dc40      	bgt.n	80024f8 <__aeabi_dmul+0x488>
 8002476:	4835      	ldr	r0, [pc, #212]	; (800254c <__aeabi_dmul+0x4dc>)
 8002478:	001c      	movs	r4, r3
 800247a:	4450      	add	r0, sl
 800247c:	0016      	movs	r6, r2
 800247e:	4082      	lsls	r2, r0
 8002480:	4084      	lsls	r4, r0
 8002482:	40ee      	lsrs	r6, r5
 8002484:	1e50      	subs	r0, r2, #1
 8002486:	4182      	sbcs	r2, r0
 8002488:	4334      	orrs	r4, r6
 800248a:	4314      	orrs	r4, r2
 800248c:	40eb      	lsrs	r3, r5
 800248e:	0762      	lsls	r2, r4, #29
 8002490:	d009      	beq.n	80024a6 <__aeabi_dmul+0x436>
 8002492:	220f      	movs	r2, #15
 8002494:	4022      	ands	r2, r4
 8002496:	2a04      	cmp	r2, #4
 8002498:	d005      	beq.n	80024a6 <__aeabi_dmul+0x436>
 800249a:	0022      	movs	r2, r4
 800249c:	1d14      	adds	r4, r2, #4
 800249e:	4294      	cmp	r4, r2
 80024a0:	4180      	sbcs	r0, r0
 80024a2:	4240      	negs	r0, r0
 80024a4:	181b      	adds	r3, r3, r0
 80024a6:	021a      	lsls	r2, r3, #8
 80024a8:	d53e      	bpl.n	8002528 <__aeabi_dmul+0x4b8>
 80024aa:	2301      	movs	r3, #1
 80024ac:	2700      	movs	r7, #0
 80024ae:	2600      	movs	r6, #0
 80024b0:	e649      	b.n	8002146 <__aeabi_dmul+0xd6>
 80024b2:	2780      	movs	r7, #128	; 0x80
 80024b4:	9b01      	ldr	r3, [sp, #4]
 80024b6:	033f      	lsls	r7, r7, #12
 80024b8:	431f      	orrs	r7, r3
 80024ba:	033f      	lsls	r7, r7, #12
 80024bc:	0b3f      	lsrs	r7, r7, #12
 80024be:	9400      	str	r4, [sp, #0]
 80024c0:	4b21      	ldr	r3, [pc, #132]	; (8002548 <__aeabi_dmul+0x4d8>)
 80024c2:	e640      	b.n	8002146 <__aeabi_dmul+0xd6>
 80024c4:	0003      	movs	r3, r0
 80024c6:	465a      	mov	r2, fp
 80024c8:	3b28      	subs	r3, #40	; 0x28
 80024ca:	409a      	lsls	r2, r3
 80024cc:	2600      	movs	r6, #0
 80024ce:	9201      	str	r2, [sp, #4]
 80024d0:	e66d      	b.n	80021ae <__aeabi_dmul+0x13e>
 80024d2:	4658      	mov	r0, fp
 80024d4:	f000 fc7a 	bl	8002dcc <__clzsi2>
 80024d8:	3020      	adds	r0, #32
 80024da:	e657      	b.n	800218c <__aeabi_dmul+0x11c>
 80024dc:	0003      	movs	r3, r0
 80024de:	4652      	mov	r2, sl
 80024e0:	3b28      	subs	r3, #40	; 0x28
 80024e2:	409a      	lsls	r2, r3
 80024e4:	0013      	movs	r3, r2
 80024e6:	2200      	movs	r2, #0
 80024e8:	e693      	b.n	8002212 <__aeabi_dmul+0x1a2>
 80024ea:	4650      	mov	r0, sl
 80024ec:	f000 fc6e 	bl	8002dcc <__clzsi2>
 80024f0:	3020      	adds	r0, #32
 80024f2:	e67b      	b.n	80021ec <__aeabi_dmul+0x17c>
 80024f4:	46ca      	mov	sl, r9
 80024f6:	e750      	b.n	800239a <__aeabi_dmul+0x32a>
 80024f8:	201f      	movs	r0, #31
 80024fa:	001e      	movs	r6, r3
 80024fc:	4240      	negs	r0, r0
 80024fe:	1b04      	subs	r4, r0, r4
 8002500:	40e6      	lsrs	r6, r4
 8002502:	2d20      	cmp	r5, #32
 8002504:	d003      	beq.n	800250e <__aeabi_dmul+0x49e>
 8002506:	4c12      	ldr	r4, [pc, #72]	; (8002550 <__aeabi_dmul+0x4e0>)
 8002508:	4454      	add	r4, sl
 800250a:	40a3      	lsls	r3, r4
 800250c:	431a      	orrs	r2, r3
 800250e:	1e50      	subs	r0, r2, #1
 8002510:	4182      	sbcs	r2, r0
 8002512:	4332      	orrs	r2, r6
 8002514:	2607      	movs	r6, #7
 8002516:	2700      	movs	r7, #0
 8002518:	4016      	ands	r6, r2
 800251a:	d009      	beq.n	8002530 <__aeabi_dmul+0x4c0>
 800251c:	200f      	movs	r0, #15
 800251e:	2300      	movs	r3, #0
 8002520:	4010      	ands	r0, r2
 8002522:	0014      	movs	r4, r2
 8002524:	2804      	cmp	r0, #4
 8002526:	d1b9      	bne.n	800249c <__aeabi_dmul+0x42c>
 8002528:	0022      	movs	r2, r4
 800252a:	075e      	lsls	r6, r3, #29
 800252c:	025b      	lsls	r3, r3, #9
 800252e:	0b1f      	lsrs	r7, r3, #12
 8002530:	08d2      	lsrs	r2, r2, #3
 8002532:	4316      	orrs	r6, r2
 8002534:	2300      	movs	r3, #0
 8002536:	e606      	b.n	8002146 <__aeabi_dmul+0xd6>
 8002538:	2780      	movs	r7, #128	; 0x80
 800253a:	033f      	lsls	r7, r7, #12
 800253c:	431f      	orrs	r7, r3
 800253e:	033f      	lsls	r7, r7, #12
 8002540:	0b3f      	lsrs	r7, r7, #12
 8002542:	0016      	movs	r6, r2
 8002544:	4b00      	ldr	r3, [pc, #0]	; (8002548 <__aeabi_dmul+0x4d8>)
 8002546:	e5fe      	b.n	8002146 <__aeabi_dmul+0xd6>
 8002548:	000007ff 	.word	0x000007ff
 800254c:	0000041e 	.word	0x0000041e
 8002550:	0000043e 	.word	0x0000043e

08002554 <__aeabi_dsub>:
 8002554:	b5f8      	push	{r3, r4, r5, r6, r7, lr}
 8002556:	4657      	mov	r7, sl
 8002558:	464e      	mov	r6, r9
 800255a:	4645      	mov	r5, r8
 800255c:	46de      	mov	lr, fp
 800255e:	000c      	movs	r4, r1
 8002560:	0309      	lsls	r1, r1, #12
 8002562:	b5e0      	push	{r5, r6, r7, lr}
 8002564:	0a49      	lsrs	r1, r1, #9
 8002566:	0f46      	lsrs	r6, r0, #29
 8002568:	005f      	lsls	r7, r3, #1
 800256a:	4331      	orrs	r1, r6
 800256c:	031e      	lsls	r6, r3, #12
 800256e:	0fdb      	lsrs	r3, r3, #31
 8002570:	0a76      	lsrs	r6, r6, #9
 8002572:	469b      	mov	fp, r3
 8002574:	0f53      	lsrs	r3, r2, #29
 8002576:	4333      	orrs	r3, r6
 8002578:	4ec8      	ldr	r6, [pc, #800]	; (800289c <__aeabi_dsub+0x348>)
 800257a:	0065      	lsls	r5, r4, #1
 800257c:	00c0      	lsls	r0, r0, #3
 800257e:	0fe4      	lsrs	r4, r4, #31
 8002580:	00d2      	lsls	r2, r2, #3
 8002582:	0d6d      	lsrs	r5, r5, #21
 8002584:	46a2      	mov	sl, r4
 8002586:	4681      	mov	r9, r0
 8002588:	0d7f      	lsrs	r7, r7, #21
 800258a:	469c      	mov	ip, r3
 800258c:	4690      	mov	r8, r2
 800258e:	42b7      	cmp	r7, r6
 8002590:	d100      	bne.n	8002594 <__aeabi_dsub+0x40>
 8002592:	e0b9      	b.n	8002708 <__aeabi_dsub+0x1b4>
 8002594:	465b      	mov	r3, fp
 8002596:	2601      	movs	r6, #1
 8002598:	4073      	eors	r3, r6
 800259a:	469b      	mov	fp, r3
 800259c:	1bee      	subs	r6, r5, r7
 800259e:	45a3      	cmp	fp, r4
 80025a0:	d100      	bne.n	80025a4 <__aeabi_dsub+0x50>
 80025a2:	e083      	b.n	80026ac <__aeabi_dsub+0x158>
 80025a4:	2e00      	cmp	r6, #0
 80025a6:	dd63      	ble.n	8002670 <__aeabi_dsub+0x11c>
 80025a8:	2f00      	cmp	r7, #0
 80025aa:	d000      	beq.n	80025ae <__aeabi_dsub+0x5a>
 80025ac:	e0b1      	b.n	8002712 <__aeabi_dsub+0x1be>
 80025ae:	4663      	mov	r3, ip
 80025b0:	4313      	orrs	r3, r2
 80025b2:	d100      	bne.n	80025b6 <__aeabi_dsub+0x62>
 80025b4:	e123      	b.n	80027fe <__aeabi_dsub+0x2aa>
 80025b6:	1e73      	subs	r3, r6, #1
 80025b8:	2b00      	cmp	r3, #0
 80025ba:	d000      	beq.n	80025be <__aeabi_dsub+0x6a>
 80025bc:	e1ba      	b.n	8002934 <__aeabi_dsub+0x3e0>
 80025be:	1a86      	subs	r6, r0, r2
 80025c0:	4663      	mov	r3, ip
 80025c2:	42b0      	cmp	r0, r6
 80025c4:	4180      	sbcs	r0, r0
 80025c6:	2501      	movs	r5, #1
 80025c8:	1ac9      	subs	r1, r1, r3
 80025ca:	4240      	negs	r0, r0
 80025cc:	1a09      	subs	r1, r1, r0
 80025ce:	020b      	lsls	r3, r1, #8
 80025d0:	d400      	bmi.n	80025d4 <__aeabi_dsub+0x80>
 80025d2:	e147      	b.n	8002864 <__aeabi_dsub+0x310>
 80025d4:	0249      	lsls	r1, r1, #9
 80025d6:	0a4b      	lsrs	r3, r1, #9
 80025d8:	4698      	mov	r8, r3
 80025da:	4643      	mov	r3, r8
 80025dc:	2b00      	cmp	r3, #0
 80025de:	d100      	bne.n	80025e2 <__aeabi_dsub+0x8e>
 80025e0:	e189      	b.n	80028f6 <__aeabi_dsub+0x3a2>
 80025e2:	4640      	mov	r0, r8
 80025e4:	f000 fbf2 	bl	8002dcc <__clzsi2>
 80025e8:	0003      	movs	r3, r0
 80025ea:	3b08      	subs	r3, #8
 80025ec:	2b1f      	cmp	r3, #31
 80025ee:	dd00      	ble.n	80025f2 <__aeabi_dsub+0x9e>
 80025f0:	e17c      	b.n	80028ec <__aeabi_dsub+0x398>
 80025f2:	2220      	movs	r2, #32
 80025f4:	0030      	movs	r0, r6
 80025f6:	1ad2      	subs	r2, r2, r3
 80025f8:	4641      	mov	r1, r8
 80025fa:	40d0      	lsrs	r0, r2
 80025fc:	4099      	lsls	r1, r3
 80025fe:	0002      	movs	r2, r0
 8002600:	409e      	lsls	r6, r3
 8002602:	430a      	orrs	r2, r1
 8002604:	429d      	cmp	r5, r3
 8002606:	dd00      	ble.n	800260a <__aeabi_dsub+0xb6>
 8002608:	e16a      	b.n	80028e0 <__aeabi_dsub+0x38c>
 800260a:	1b5d      	subs	r5, r3, r5
 800260c:	1c6b      	adds	r3, r5, #1
 800260e:	2b1f      	cmp	r3, #31
 8002610:	dd00      	ble.n	8002614 <__aeabi_dsub+0xc0>
 8002612:	e194      	b.n	800293e <__aeabi_dsub+0x3ea>
 8002614:	2120      	movs	r1, #32
 8002616:	0010      	movs	r0, r2
 8002618:	0035      	movs	r5, r6
 800261a:	1ac9      	subs	r1, r1, r3
 800261c:	408e      	lsls	r6, r1
 800261e:	40da      	lsrs	r2, r3
 8002620:	4088      	lsls	r0, r1
 8002622:	40dd      	lsrs	r5, r3
 8002624:	1e71      	subs	r1, r6, #1
 8002626:	418e      	sbcs	r6, r1
 8002628:	0011      	movs	r1, r2
 800262a:	2207      	movs	r2, #7
 800262c:	4328      	orrs	r0, r5
 800262e:	2500      	movs	r5, #0
 8002630:	4306      	orrs	r6, r0
 8002632:	4032      	ands	r2, r6
 8002634:	2a00      	cmp	r2, #0
 8002636:	d009      	beq.n	800264c <__aeabi_dsub+0xf8>
 8002638:	230f      	movs	r3, #15
 800263a:	4033      	ands	r3, r6
 800263c:	2b04      	cmp	r3, #4
 800263e:	d005      	beq.n	800264c <__aeabi_dsub+0xf8>
 8002640:	1d33      	adds	r3, r6, #4
 8002642:	42b3      	cmp	r3, r6
 8002644:	41b6      	sbcs	r6, r6
 8002646:	4276      	negs	r6, r6
 8002648:	1989      	adds	r1, r1, r6
 800264a:	001e      	movs	r6, r3
 800264c:	020b      	lsls	r3, r1, #8
 800264e:	d400      	bmi.n	8002652 <__aeabi_dsub+0xfe>
 8002650:	e23d      	b.n	8002ace <__aeabi_dsub+0x57a>
 8002652:	1c6a      	adds	r2, r5, #1
 8002654:	4b91      	ldr	r3, [pc, #580]	; (800289c <__aeabi_dsub+0x348>)
 8002656:	0555      	lsls	r5, r2, #21
 8002658:	0d6d      	lsrs	r5, r5, #21
 800265a:	429a      	cmp	r2, r3
 800265c:	d100      	bne.n	8002660 <__aeabi_dsub+0x10c>
 800265e:	e119      	b.n	8002894 <__aeabi_dsub+0x340>
 8002660:	4a8f      	ldr	r2, [pc, #572]	; (80028a0 <__aeabi_dsub+0x34c>)
 8002662:	08f6      	lsrs	r6, r6, #3
 8002664:	400a      	ands	r2, r1
 8002666:	0757      	lsls	r7, r2, #29
 8002668:	0252      	lsls	r2, r2, #9
 800266a:	4337      	orrs	r7, r6
 800266c:	0b12      	lsrs	r2, r2, #12
 800266e:	e09b      	b.n	80027a8 <__aeabi_dsub+0x254>
 8002670:	2e00      	cmp	r6, #0
 8002672:	d000      	beq.n	8002676 <__aeabi_dsub+0x122>
 8002674:	e0c5      	b.n	8002802 <__aeabi_dsub+0x2ae>
 8002676:	1c6e      	adds	r6, r5, #1
 8002678:	0576      	lsls	r6, r6, #21
 800267a:	0d76      	lsrs	r6, r6, #21
 800267c:	2e01      	cmp	r6, #1
 800267e:	dc00      	bgt.n	8002682 <__aeabi_dsub+0x12e>
 8002680:	e148      	b.n	8002914 <__aeabi_dsub+0x3c0>
 8002682:	4667      	mov	r7, ip
 8002684:	1a86      	subs	r6, r0, r2
 8002686:	1bcb      	subs	r3, r1, r7
 8002688:	42b0      	cmp	r0, r6
 800268a:	41bf      	sbcs	r7, r7
 800268c:	427f      	negs	r7, r7
 800268e:	46b8      	mov	r8, r7
 8002690:	001f      	movs	r7, r3
 8002692:	4643      	mov	r3, r8
 8002694:	1aff      	subs	r7, r7, r3
 8002696:	003b      	movs	r3, r7
 8002698:	46b8      	mov	r8, r7
 800269a:	021b      	lsls	r3, r3, #8
 800269c:	d500      	bpl.n	80026a0 <__aeabi_dsub+0x14c>
 800269e:	e15f      	b.n	8002960 <__aeabi_dsub+0x40c>
 80026a0:	4337      	orrs	r7, r6
 80026a2:	d19a      	bne.n	80025da <__aeabi_dsub+0x86>
 80026a4:	2200      	movs	r2, #0
 80026a6:	2400      	movs	r4, #0
 80026a8:	2500      	movs	r5, #0
 80026aa:	e079      	b.n	80027a0 <__aeabi_dsub+0x24c>
 80026ac:	2e00      	cmp	r6, #0
 80026ae:	dc00      	bgt.n	80026b2 <__aeabi_dsub+0x15e>
 80026b0:	e0fa      	b.n	80028a8 <__aeabi_dsub+0x354>
 80026b2:	2f00      	cmp	r7, #0
 80026b4:	d100      	bne.n	80026b8 <__aeabi_dsub+0x164>
 80026b6:	e08d      	b.n	80027d4 <__aeabi_dsub+0x280>
 80026b8:	4b78      	ldr	r3, [pc, #480]	; (800289c <__aeabi_dsub+0x348>)
 80026ba:	429d      	cmp	r5, r3
 80026bc:	d067      	beq.n	800278e <__aeabi_dsub+0x23a>
 80026be:	2380      	movs	r3, #128	; 0x80
 80026c0:	4667      	mov	r7, ip
 80026c2:	041b      	lsls	r3, r3, #16
 80026c4:	431f      	orrs	r7, r3
 80026c6:	46bc      	mov	ip, r7
 80026c8:	2e38      	cmp	r6, #56	; 0x38
 80026ca:	dc00      	bgt.n	80026ce <__aeabi_dsub+0x17a>
 80026cc:	e152      	b.n	8002974 <__aeabi_dsub+0x420>
 80026ce:	4663      	mov	r3, ip
 80026d0:	4313      	orrs	r3, r2
 80026d2:	1e5a      	subs	r2, r3, #1
 80026d4:	4193      	sbcs	r3, r2
 80026d6:	181e      	adds	r6, r3, r0
 80026d8:	4286      	cmp	r6, r0
 80026da:	4180      	sbcs	r0, r0
 80026dc:	4240      	negs	r0, r0
 80026de:	1809      	adds	r1, r1, r0
 80026e0:	020b      	lsls	r3, r1, #8
 80026e2:	d400      	bmi.n	80026e6 <__aeabi_dsub+0x192>
 80026e4:	e0be      	b.n	8002864 <__aeabi_dsub+0x310>
 80026e6:	4b6d      	ldr	r3, [pc, #436]	; (800289c <__aeabi_dsub+0x348>)
 80026e8:	3501      	adds	r5, #1
 80026ea:	429d      	cmp	r5, r3
 80026ec:	d100      	bne.n	80026f0 <__aeabi_dsub+0x19c>
 80026ee:	e0d2      	b.n	8002896 <__aeabi_dsub+0x342>
 80026f0:	4a6b      	ldr	r2, [pc, #428]	; (80028a0 <__aeabi_dsub+0x34c>)
 80026f2:	0873      	lsrs	r3, r6, #1
 80026f4:	400a      	ands	r2, r1
 80026f6:	2101      	movs	r1, #1
 80026f8:	400e      	ands	r6, r1
 80026fa:	431e      	orrs	r6, r3
 80026fc:	0851      	lsrs	r1, r2, #1
 80026fe:	07d3      	lsls	r3, r2, #31
 8002700:	2207      	movs	r2, #7
 8002702:	431e      	orrs	r6, r3
 8002704:	4032      	ands	r2, r6
 8002706:	e795      	b.n	8002634 <__aeabi_dsub+0xe0>
 8002708:	001e      	movs	r6, r3
 800270a:	4316      	orrs	r6, r2
 800270c:	d000      	beq.n	8002710 <__aeabi_dsub+0x1bc>
 800270e:	e745      	b.n	800259c <__aeabi_dsub+0x48>
 8002710:	e740      	b.n	8002594 <__aeabi_dsub+0x40>
 8002712:	4b62      	ldr	r3, [pc, #392]	; (800289c <__aeabi_dsub+0x348>)
 8002714:	429d      	cmp	r5, r3
 8002716:	d03a      	beq.n	800278e <__aeabi_dsub+0x23a>
 8002718:	2380      	movs	r3, #128	; 0x80
 800271a:	4667      	mov	r7, ip
 800271c:	041b      	lsls	r3, r3, #16
 800271e:	431f      	orrs	r7, r3
 8002720:	46bc      	mov	ip, r7
 8002722:	2e38      	cmp	r6, #56	; 0x38
 8002724:	dd00      	ble.n	8002728 <__aeabi_dsub+0x1d4>
 8002726:	e0eb      	b.n	8002900 <__aeabi_dsub+0x3ac>
 8002728:	2e1f      	cmp	r6, #31
 800272a:	dc00      	bgt.n	800272e <__aeabi_dsub+0x1da>
 800272c:	e13a      	b.n	80029a4 <__aeabi_dsub+0x450>
 800272e:	0033      	movs	r3, r6
 8002730:	4667      	mov	r7, ip
 8002732:	3b20      	subs	r3, #32
 8002734:	40df      	lsrs	r7, r3
 8002736:	003b      	movs	r3, r7
 8002738:	2e20      	cmp	r6, #32
 800273a:	d005      	beq.n	8002748 <__aeabi_dsub+0x1f4>
 800273c:	2740      	movs	r7, #64	; 0x40
 800273e:	1bbf      	subs	r7, r7, r6
 8002740:	4666      	mov	r6, ip
 8002742:	40be      	lsls	r6, r7
 8002744:	4332      	orrs	r2, r6
 8002746:	4690      	mov	r8, r2
 8002748:	4646      	mov	r6, r8
 800274a:	1e72      	subs	r2, r6, #1
 800274c:	4196      	sbcs	r6, r2
 800274e:	4333      	orrs	r3, r6
 8002750:	e0da      	b.n	8002908 <__aeabi_dsub+0x3b4>
 8002752:	2b00      	cmp	r3, #0
 8002754:	d100      	bne.n	8002758 <__aeabi_dsub+0x204>
 8002756:	e214      	b.n	8002b82 <__aeabi_dsub+0x62e>
 8002758:	4663      	mov	r3, ip
 800275a:	4313      	orrs	r3, r2
 800275c:	d100      	bne.n	8002760 <__aeabi_dsub+0x20c>
 800275e:	e168      	b.n	8002a32 <__aeabi_dsub+0x4de>
 8002760:	2380      	movs	r3, #128	; 0x80
 8002762:	074e      	lsls	r6, r1, #29
 8002764:	08c0      	lsrs	r0, r0, #3
 8002766:	08c9      	lsrs	r1, r1, #3
 8002768:	031b      	lsls	r3, r3, #12
 800276a:	4306      	orrs	r6, r0
 800276c:	4219      	tst	r1, r3
 800276e:	d008      	beq.n	8002782 <__aeabi_dsub+0x22e>
 8002770:	4660      	mov	r0, ip
 8002772:	08c0      	lsrs	r0, r0, #3
 8002774:	4218      	tst	r0, r3
 8002776:	d104      	bne.n	8002782 <__aeabi_dsub+0x22e>
 8002778:	4663      	mov	r3, ip
 800277a:	0001      	movs	r1, r0
 800277c:	08d2      	lsrs	r2, r2, #3
 800277e:	075e      	lsls	r6, r3, #29
 8002780:	4316      	orrs	r6, r2
 8002782:	00f3      	lsls	r3, r6, #3
 8002784:	4699      	mov	r9, r3
 8002786:	00c9      	lsls	r1, r1, #3
 8002788:	0f72      	lsrs	r2, r6, #29
 800278a:	4d44      	ldr	r5, [pc, #272]	; (800289c <__aeabi_dsub+0x348>)
 800278c:	4311      	orrs	r1, r2
 800278e:	464b      	mov	r3, r9
 8002790:	08de      	lsrs	r6, r3, #3
 8002792:	4b42      	ldr	r3, [pc, #264]	; (800289c <__aeabi_dsub+0x348>)
 8002794:	074f      	lsls	r7, r1, #29
 8002796:	4337      	orrs	r7, r6
 8002798:	08ca      	lsrs	r2, r1, #3
 800279a:	429d      	cmp	r5, r3
 800279c:	d100      	bne.n	80027a0 <__aeabi_dsub+0x24c>
 800279e:	e06e      	b.n	800287e <__aeabi_dsub+0x32a>
 80027a0:	0312      	lsls	r2, r2, #12
 80027a2:	056d      	lsls	r5, r5, #21
 80027a4:	0b12      	lsrs	r2, r2, #12
 80027a6:	0d6d      	lsrs	r5, r5, #21
 80027a8:	2100      	movs	r1, #0
 80027aa:	0312      	lsls	r2, r2, #12
 80027ac:	0b13      	lsrs	r3, r2, #12
 80027ae:	0d0a      	lsrs	r2, r1, #20
 80027b0:	0512      	lsls	r2, r2, #20
 80027b2:	431a      	orrs	r2, r3
 80027b4:	4b3b      	ldr	r3, [pc, #236]	; (80028a4 <__aeabi_dsub+0x350>)
 80027b6:	052d      	lsls	r5, r5, #20
 80027b8:	4013      	ands	r3, r2
 80027ba:	432b      	orrs	r3, r5
 80027bc:	005b      	lsls	r3, r3, #1
 80027be:	07e4      	lsls	r4, r4, #31
 80027c0:	085b      	lsrs	r3, r3, #1
 80027c2:	4323      	orrs	r3, r4
 80027c4:	0038      	movs	r0, r7
 80027c6:	0019      	movs	r1, r3
 80027c8:	bc3c      	pop	{r2, r3, r4, r5}
 80027ca:	4690      	mov	r8, r2
 80027cc:	4699      	mov	r9, r3
 80027ce:	46a2      	mov	sl, r4
 80027d0:	46ab      	mov	fp, r5
 80027d2:	bdf8      	pop	{r3, r4, r5, r6, r7, pc}
 80027d4:	4663      	mov	r3, ip
 80027d6:	4313      	orrs	r3, r2
 80027d8:	d011      	beq.n	80027fe <__aeabi_dsub+0x2aa>
 80027da:	1e73      	subs	r3, r6, #1
 80027dc:	2b00      	cmp	r3, #0
 80027de:	d000      	beq.n	80027e2 <__aeabi_dsub+0x28e>
 80027e0:	e107      	b.n	80029f2 <__aeabi_dsub+0x49e>
 80027e2:	1886      	adds	r6, r0, r2
 80027e4:	4286      	cmp	r6, r0
 80027e6:	4180      	sbcs	r0, r0
 80027e8:	4461      	add	r1, ip
 80027ea:	4240      	negs	r0, r0
 80027ec:	1809      	adds	r1, r1, r0
 80027ee:	2501      	movs	r5, #1
 80027f0:	020b      	lsls	r3, r1, #8
 80027f2:	d537      	bpl.n	8002864 <__aeabi_dsub+0x310>
 80027f4:	2502      	movs	r5, #2
 80027f6:	e77b      	b.n	80026f0 <__aeabi_dsub+0x19c>
 80027f8:	003e      	movs	r6, r7
 80027fa:	4661      	mov	r1, ip
 80027fc:	4691      	mov	r9, r2
 80027fe:	0035      	movs	r5, r6
 8002800:	e7c5      	b.n	800278e <__aeabi_dsub+0x23a>
 8002802:	465c      	mov	r4, fp
 8002804:	2d00      	cmp	r5, #0
 8002806:	d000      	beq.n	800280a <__aeabi_dsub+0x2b6>
 8002808:	e0e1      	b.n	80029ce <__aeabi_dsub+0x47a>
 800280a:	000b      	movs	r3, r1
 800280c:	4303      	orrs	r3, r0
 800280e:	d0f3      	beq.n	80027f8 <__aeabi_dsub+0x2a4>
 8002810:	1c73      	adds	r3, r6, #1
 8002812:	d100      	bne.n	8002816 <__aeabi_dsub+0x2c2>
 8002814:	e1ac      	b.n	8002b70 <__aeabi_dsub+0x61c>
 8002816:	4b21      	ldr	r3, [pc, #132]	; (800289c <__aeabi_dsub+0x348>)
 8002818:	429f      	cmp	r7, r3
 800281a:	d100      	bne.n	800281e <__aeabi_dsub+0x2ca>
 800281c:	e13a      	b.n	8002a94 <__aeabi_dsub+0x540>
 800281e:	43f3      	mvns	r3, r6
 8002820:	2b38      	cmp	r3, #56	; 0x38
 8002822:	dd00      	ble.n	8002826 <__aeabi_dsub+0x2d2>
 8002824:	e16f      	b.n	8002b06 <__aeabi_dsub+0x5b2>
 8002826:	2b1f      	cmp	r3, #31
 8002828:	dd00      	ble.n	800282c <__aeabi_dsub+0x2d8>
 800282a:	e18c      	b.n	8002b46 <__aeabi_dsub+0x5f2>
 800282c:	2520      	movs	r5, #32
 800282e:	000e      	movs	r6, r1
 8002830:	1aed      	subs	r5, r5, r3
 8002832:	40ae      	lsls	r6, r5
 8002834:	46b0      	mov	r8, r6
 8002836:	0006      	movs	r6, r0
 8002838:	46aa      	mov	sl, r5
 800283a:	40de      	lsrs	r6, r3
 800283c:	4645      	mov	r5, r8
 800283e:	4335      	orrs	r5, r6
 8002840:	002e      	movs	r6, r5
 8002842:	4655      	mov	r5, sl
 8002844:	40d9      	lsrs	r1, r3
 8002846:	40a8      	lsls	r0, r5
 8002848:	4663      	mov	r3, ip
 800284a:	1e45      	subs	r5, r0, #1
 800284c:	41a8      	sbcs	r0, r5
 800284e:	1a5b      	subs	r3, r3, r1
 8002850:	469c      	mov	ip, r3
 8002852:	4330      	orrs	r0, r6
 8002854:	1a16      	subs	r6, r2, r0
 8002856:	42b2      	cmp	r2, r6
 8002858:	4192      	sbcs	r2, r2
 800285a:	4663      	mov	r3, ip
 800285c:	4252      	negs	r2, r2
 800285e:	1a99      	subs	r1, r3, r2
 8002860:	003d      	movs	r5, r7
 8002862:	e6b4      	b.n	80025ce <__aeabi_dsub+0x7a>
 8002864:	2207      	movs	r2, #7
 8002866:	4032      	ands	r2, r6
 8002868:	2a00      	cmp	r2, #0
 800286a:	d000      	beq.n	800286e <__aeabi_dsub+0x31a>
 800286c:	e6e4      	b.n	8002638 <__aeabi_dsub+0xe4>
 800286e:	4b0b      	ldr	r3, [pc, #44]	; (800289c <__aeabi_dsub+0x348>)
 8002870:	08f6      	lsrs	r6, r6, #3
 8002872:	074f      	lsls	r7, r1, #29
 8002874:	4337      	orrs	r7, r6
 8002876:	08ca      	lsrs	r2, r1, #3
 8002878:	429d      	cmp	r5, r3
 800287a:	d000      	beq.n	800287e <__aeabi_dsub+0x32a>
 800287c:	e790      	b.n	80027a0 <__aeabi_dsub+0x24c>
 800287e:	003b      	movs	r3, r7
 8002880:	4313      	orrs	r3, r2
 8002882:	d100      	bne.n	8002886 <__aeabi_dsub+0x332>
 8002884:	e1a6      	b.n	8002bd4 <__aeabi_dsub+0x680>
 8002886:	2380      	movs	r3, #128	; 0x80
 8002888:	031b      	lsls	r3, r3, #12
 800288a:	431a      	orrs	r2, r3
 800288c:	0312      	lsls	r2, r2, #12
 800288e:	0b12      	lsrs	r2, r2, #12
 8002890:	4d02      	ldr	r5, [pc, #8]	; (800289c <__aeabi_dsub+0x348>)
 8002892:	e789      	b.n	80027a8 <__aeabi_dsub+0x254>
 8002894:	0015      	movs	r5, r2
 8002896:	2200      	movs	r2, #0
 8002898:	2700      	movs	r7, #0
 800289a:	e785      	b.n	80027a8 <__aeabi_dsub+0x254>
 800289c:	000007ff 	.word	0x000007ff
 80028a0:	ff7fffff 	.word	0xff7fffff
 80028a4:	800fffff 	.word	0x800fffff
 80028a8:	2e00      	cmp	r6, #0
 80028aa:	d000      	beq.n	80028ae <__aeabi_dsub+0x35a>
